S01300004C41425F6279676765726E2E73726563F5
S11300000C9438000C9455000C9455000C94550035
S11300100C9455000C9455000C9455000C94550008
S11300200C9455000C9455000C9455000C945500F8
S11300300C9455000C9455000C9455000C945500E8
S11300400C9455000C9455000C9455000C945500D8
S11300500C9455000C9455000C9455000C945500C8
S11300600C9455000C9455000C9455000C945500B8
S113007011241FBECFEFD4E0DEBFCDBF11E0A0E05E
S1130080B1E0EAE7F1E002C005900D92AE30B107AD
S1130090D9F721E0AEE0B1E001C01D92A431B2076E
S11300A0E1F70E9466000C94BB000C9400005D9B79
S11300B0FECF8CB908955F9BFECF8CB1089590BD9F
S11300C089B988E18AB98EE880BD08958FE190E00E
S11300D00E945F00EEE0F1E080E091E09383828390
S11300E0918380830E945B0090E00E947800FACFA5
S11300F060911001709111010E947F0008950F9387
S11301001F93CF93DF93FB01238121FD03C08FEF66
S11301109FEF2CC022FF16C0468157812481358170
S11301204217530744F4A081B1819D012F5F3F4FD3
S1130130318320838C93268137812F5F3F4F378310
S1130140268314C08B01EC01FB010084F185E02DB2
S11301500995892BE1F6D80116968D919C911797F4
S1130160019617969C938E931697CE01DF91CF91AB
S10D01701F910F910895F894FFCF3A
S111017A000000030000000057005B000000BE
S9030000FC
