S01300004C41425F6279676765726E2E73726563F5
S11300000C9438000C9455000C9455000C94550035
S11300100C9455000C9455000C9455000C94550008
S11300200C9455000C9455000C9455000C945500F8
S11300300C9455000C9455000C9455000C945500E8
S11300400C9455000C9455000C9455000C945500D8
S11300500C9455000C9455000C9455000C945500C8
S11300600C9455000C9455000C9455000C945500B8
S113007011241FBECFEFD4E0DEBFCDBF11E0A0E05E
S1130080B1E0E4E0F1E002C005900D92A63FB107B3
S1130090D9F721E0A6EFB1E001C01D92AC3FB20751
S11300A0E1F70E9466000C9480000C9400005D9BB4
S11300B0FECF8CB908955F9BFECF8CB1089590BD9F
S11300C089B988E18AB98EE880BD08958FE190E00E
S11300D00E945F000E945B00C0E0D0E005C083EF97
S11300E091E00E9457002196CA30D105C4F3E6EF8F
S11300F0F1E080E091E09383828391838083FFCF5A
S1070100F894FFCF9D
S1130104000000030000000057005B00000053746B
S1130114617274696E67205352414D20746573741F
S11301242E2E2E00577269746520706861736520E1
S11301346572726F723A206578745F72616D5B25C3
S113014434645D203D2025303258202873686F754F
S11301546C642062652025303258290A0052657483
S113016472696576616C207068617365206572726A
S11301746F723A206578745F72616D5B2534645DD7
S1130184203D2025303258202873686F756C642014
S113019462652025303258290A005352414D207497
S11301A465737420636F6D706C657465642077691E
S11301B47468200A253464206572726F727320692E
S11301C46E20777269746520706861736520616E4E
S11301D464200A253464206572726F727320696E18
S11301E42072657472696576616C207068617365E8
S10901F40A0A00480000A5
S9030000FC
