S0110000627967676572656E322E737265638E
S11300000C94B4010C94D1010C94D1010C94D10141
S11300100C94D1010C94D1010C94D1010C94D10114
S11300200C94D1010C94D1010C94D1010C94D10104
S11300300C94D1010C94D1010C94D1010C94D101F4
S11300400C94D1010C94D1010C94D1010C94D101E4
S11300500C94D1010C94D1010C94D1010C94D101D4
S11300600C94D1010C94D1010C94D1010C94D101C4
S1130070000000000000000000065F5F06000000B2
S11300800007070007070000147F7F147F7F140018
S1130090242E6B6B3A120000466630180C66620020
S11300A0307A4F5D377A48000407030000000000EF
S11300B0001C3E63410000000041633E1C00000040
S11300C0082A3E1C1C3E2A0808083E3E0808000078
S11300D000A0E0600000000008080808080800000C
S11300E000006060000000006030180C060301008E
S11300F03E7F594D7F3E000042427F7F40400000DA
S1130100627359496F660000226349497F360000D3
S1130110181C16137F7F1000276745457D390000A2
S11301203C7E4B4979300000036371190F070000CE
S1130130367F49497F360000064F49693F1E00005B
S113014000006C6C0000000000A0EC6C00000000DB
S1130150081C366341000000141414141414000025
S1130160004163361C080000020351590F060000C9
S11301703E7F415D5D1F1E007C7E13137E7C00006C
S1130180417F7F49497F36001C3E63414163220021
S1130190417F7F41637F1C00417F7F495D41630054
S11301A0417F7F491D0103001C3E6341517372006E
S11301B07F7F08087F7F000000417F7F41000000AF
S11301C0307040417F3F0100417F7F081C7763000E
S11301D0417F7F41406070007F7F060C067F7F0077
S11301E07F7F060C187F7F001C3E6341633E1C002A
S11301F0417F7F49090F06001E3F21717F5E000089
S1130200417F7F19396F460026674D597B320000C4
S113021003417F7F410300007F7F40407F7F0000D8
S11302201F3F60603F1F00007F7F3018307F7F00DA
S113023063771C081C776300074F78784F0700002A
S11302406773594D47637100007F7F41410000008F
S11302500103060C183060000041417F7F0000005C
S1130260080C0603060C0800808080808080808053
S11302700000030704000000207454543C7840003C
S1130280413F7F44447C3800387C44446C2800005F
S1130290307848493F7F4000387C54545C18000053
S11302A0487E7F490302000098BCA4A4F87C0400A3
S11302B0417F7F08047C780000447D7D400000007D
S11302C040C484FD7D000000417F7F10386C4400F1
S11302D000417F7F400000007C7C0C180C7C78007F
S11302E07C7C04047C780000387C44447C38000026
S11302F084FCF8A4243C1800183C24A4F8FC8400D2
S1130300447C78441C180000485C54547424000055
S113031000043E7F442400003C7C40403C7C400080
S11303201C3C60603C1C00003C7C6030607C3C00F9
S1130330446C3810386C44009CBCA0A0FC7C0000C9
S11303404C64745C4C64000008083E774141000032
S113035000000077770000004141773E0808000064
S1130360020301030203010011241FBECFEFD4E0F6
S1130370DEBFCDBF11E0A0E0B1E0E2E5F4E102C0F0
S113038005900D92A43BB107D9F721E0A4EBB1E0AD
S113039001C01D92A23CB207E1F70E94C2020C9474
S11303A0270A0C9400009C0191B3906191BBEBE887
S11303B0F0E0908190649083EAE8F0E090819860A6
S11303C090833093870020938600808181608083AE
S11303D00895E0E0F4E184E8808386E08A95F1F70B
S11303E000C0208130E0205A310944E6429FC00118
S11303F0439F900D11246FE770E00E946205CB01CA
S11304001816190664F424E6269FC001279F900D50
S1130410112463E470E00E946205CB0108959923DE
S11304205CF424E6269FC001279F900D112465E803
S113043070E00E946205CB010895E0E0F4E181E8F8
S1130440808386E08A95F1F700C0208130E0225A4B
S1130450310944E6429FC001439F900D11246FE788
S113046070E00E946205CB011816190664F424E6B4
S1130470269FC001279F900D112461E470E00E9423
S11304806205CB01089599235CF424E6269FC001FC
S1130490279F900D112467E870E00E946205CB014C
S11304A00895CF93DF930E94E901EC010E941D029D
S11304B09E01DD2324F4222733272C1B3D0BAC01A2
S11304C0992324F444275527481B590B241735072F
S11304D054F0CE010996439708F1C233D10504F1D3
S11304E0E39704F50CC09C01205C3F4F2138310593
S11304F0D8F08E3C2FEF9207CCF0C397CCF40E9437
S113050051021F928F9380E191E09F938F930E94F9
S1130510F6060F900F900F900F900BC084E009C067
S113052080E007C081E005C084E003C083E001C02F
S113053082E0DF91CF910895823059F028F4882326
S1130540B9F0813081F00895833041F08430A9F00E
S1130550089583E291E00E940C07089587E291E0F8
S11305600E940C0708958DE291E00E940C07089503
S113057084E391E00E940C0708958AE391E00E94CD
S11305800C07089581E890E00E94D2038FE790E081
S11305900E94D20383EE90E00E94D2038FEA90E09F
S11305A00E94D20380E290E00E94D20382E090E0B5
S11305B00E94D2038AE290E00E94D2038EEA90E085
S11305C00E94D2038FE190E00E9455050E944505E8
S11305D080E090E00E94D3010E9451040E94D8035D
S11305E080E090E001C0019684309105E4F30E941C
S11305F0E9019F938F9383E491E09F938F930E94EB
S1130600F6060E941D029F938F938EE491E09F93C0
S11306108F930E94F6068091B6019091B7019F9343
S11306208F938AE591E09F938F930E94F6060E9430
S113063051020E949C020E94E9012DB73EB7245F3B
S11306403F4F0FB6F8943EBF0FBE2DBF8E3C9F4F59
S113065094F48091B4019091B501181619065CF4D4
S11306608091B4019091B50101979093B501809365
S1130670B4010E9451048091B4019091B501892B79
S113068011F40E94EB040E941D028E3C9F4F4CF516
S11306908091B6019091B70107971CF58091B6013E
S11306A09091B70101969093B7018093B601809120
S11306B0B6019091B70160E070E00E94BD048091A2
S11306C0B6019091B70160E070E001970E94D404F4
S11306D03FE986E891E0315080409040E1F700C066
S11306E000000E941D02C39754F18091B6019091BD
S11306F0B701181619061CF58091B6019091B7013F
S113070001979093B7018093B6018091B6019091BF
S1130710B70160E070E00E94BD048091B601909141
S1130720B70160E070E001960E94D4042FE936E836
S113073081E0215030408040E1F700C000000E9479
S1130740E901C39774F08091B6019091B7010597C0
S113075041F40E94280581E090E09093B5018093D4
S1130760B4010E94E901C39774F08091B60190919D
S1130770B701029741F40E94280581E090E090932C
S1130780B5018093B4010E94E901C3970CF42FCF03
S11307908091B6019091B701059709F028CF0E9486
S11307A0280525CF809300100895809300120895A2
S11307B081EA90E00E94D2038AED90E00E94D20385
S11307C082E190E00E94D20388EC90E00E94D20380
S11307D088EA90E00E94D2038FE390E00E94D20363
S11307E085ED90E00E94D20380E890E00E94D2035D
S11307F081E890E00E94D20380E590E00E94D20359
S113080089ED90E00E94D20381E290E00E94D2033D
S113081080E290E00E94D20382E090E00E94D20342
S11308208BED90E00E94D20380E390E00E94D2031B
S11308308DEA90E00E94D20380E090E00E94D2030F
S113084084EA90E00E94D20386EA90E00E94D203F8
S11308508FEA90E00E94D203089580559F4F0E9432
S1130860D2030895CF93DF93EC018F70907899238E
S113087024F40197806F9F6F01960E94D203CE01EA
S1130880DD230CF40F969595879595958795959509
S113089087959595879540960E94D203DF91CF91D5
S11308A008950F931F93CF93DF9300E010E014C0DB
S11308B0C8010E942D0480E090E00E943204C0E050
S11308C0D0E005C080E090E00E94D5032196C038B6
S11308D0D105C4F30F5F1F4F083011054CF3DF91AE
S11308E0CF911F910F910895CF93DF93EB010E9455
S11308F02D04CE010E943204DF91CF9108951F93FD
S1130900CF93DF9310EE180FC0E0D0E011C0E12FB9
S1130910F0E0EE0FFF1FEE0FFF1FEE0FFF1FEC0FB7
S1130920FD1FE059FF4F849190E00E94D50321966A
S1130930C830D10564F3DF91CF911F9108950F93CF
S11309401F93CF93DF938C01C0E0D0E007C0F80180
S1130950EC0FFD1F80810E947F042196F801019015
S11309600020E9F73197E01BF10BCE17DF0778F38E
S1130970DF91CF911F910F9108950E94740488E133
S113098090E00E94D50388E190E00E94D5038EE7B1
S113099090E00E94D5038CE390E00E94D50388E1A7
S11309A090E00E94D50308950E94740480E090E0D2
S11309B00E94D50380E090E00E94D50380E090E09F
S11309C00E94D50380E090E00E94D50380E090E08F
S11309D00E94D503089565E070E080E090E00E94F5
S11309E074048EEA91E00E949F0465E070E081E067
S11309F090E00E94740480E791E00E949F0465E007
S1130A0070E082E090E00E94740481E891E00E942A
S1130A109F0465E070E083E090E00E94740488E83D
S1130A2091E00E949F0465E070E084E090E00E9401
S1130A3074048FE891E00E949F0465E070E085E013
S1130A4090E00E94740486E991E00E949F04089556
S1130A50CF93DF930E94510460E070E080E090E067
S1130A600E947404C0E0D0E00AC065E070E0CE01EA
S1130A700E94740481EA91E00E949F042196C6308A
S1130A80D1059CF3DF91CF91089585B7806885BF28
S1130A9080B7806280BF08955D9BFECF8CB90895B6
S1130AA05F9902C08CB10895089590BD89B988E119
S1130AB08AB98EE880BD60E575E08CE495E00E941B
S1130AC0AB06089597FB072E16F4009407D077FD24
S1130AD009D00E94760507FC05D03EF490958195D7
S1130AE09F4F0895709561957F4F0895AA1BBB1B76
S1130AF051E107C0AA1FBB1FA617B70710F0A61B1A
S1130B00B70B881F991F5A95A9F780959095BC013A
S1130B10CD0108950F931F93CF93DF9382309105F6
S1130B2010F482E090E0E091BA01F091BB0120E082
S1130B3030E0A0E0B0E0309719F1408151810281AA
S1130B40138148175907C8F08417950769F410975B
S1130B5031F012960C93129713961C9327C00093AE
S1130B60BA011093BB0122C02115310519F04217B7
S1130B70530718F49A01BD01EF01DF01F801DBCF3F
S1130B8021153105F9F0281B390B2430310580F487
S1130B908A819B816115710521F0FB019383828316
S1130BA004C09093BB018093BA01FE01329644C005
S1130BB0FE01E20FF31F819391932250310939838F
S1130BC028833AC02091B8013091B901232B41F414
S1130BD020910201309103013093B9012093B801AF
S1130BE020910001309101012115310541F42DB707
S1130BF03EB74091040150910501241B350BE0914F
S1130C00B801F091B901E217F307A0F42E1B3F0BD2
S1130C102817390778F0AC014E5F5F4F241735076A
S1130C2048F04E0F5F1F5093B9014093B801819370
S1130C30919302C0E0E0F0E0CF01DF91CF911F91EA
S1130C400F910895CF93DF93009709F481C0FC01BD
S1130C50329713821282A091BA01B091BB0110970E
S1130C6081F420813181820F931F2091B80130914A
S1130C70B9012817390751F5F093B901E093B80188
S1130C8067C0ED0120E030E0CE17DF0740F44A8171
S1130C905B819E0141155105F1F0EA01F5CFD38343
S1130CA0C28340815181840F951FC817D90759F415
S1130CB088819981840F951F0296918380838A810C
S1130CC09B81938382832115310529F4F093BB0121
S1130CD0E093BA013DC0E901FB83EA83499159914C
S1130CE0C40FD51FEC17FD0761F480819181840F37
S1130CF0951F0296E90199838883828193819B835E
S1130D008A83E0E0F0E012968D919C91139700970E
S1130D1019F0FD01DC01F7CF8D919C9111979D0194
S1130D202E5F3F4F820F931F2091B8013091B9017C
S1130D302817390769F4309729F41092BB011092EF
S1130D40BA0102C013821282B093B901A093B80110
S1130D50DF91CF9108950F931F93CF93DF93009763
S1130D6031F46115710519F480E090E03AC08B010B
S1130D70EC016EE070E081E090E00E941D09FC014E
S1130D80892B91F380E883830115110571F0138792
S1130D90028781E883838091BC019091BD01892BF6
S1130DA021F4F093BD01E093BC012097C9F0D187F1
S1130DB0C0878381826083838091BE019091BF014B
S1130DC0892B71F4F093BF01E093BE018091C001BF
S1130DD09091C101892B21F4F093C101E093C001EA
S1130DE0CF01DF91CF911F910F910895A0E0B0E062
S1130DF0ECEFF6E00C94000AAE014B5F5F4FFA0192
S1130E0061917191AF018091BE019091BF010E94E7
S1130E103C07E2E00C941C0A0F931F93CF93DF93DB
S1130E20E091BE01F091BF01238121FF1BC08C0121
S1130E30D0E0C0E0F80181918F016091BE01709112
S1130E40BF01DB011896ED91FC911997882331F0CD
S1130E500995892B79F3DFEFCFEFECCF8AE0099581
S1130E60892B19F08FEF9FEF02C08D2F9C2FDF91FC
S1130E70CF911F910F910895ABE0B0E0E2E4F7E069
S1130E800C94F0096C017B018A01FC011782168223
S1130E90838181FFCCC1CE0101963C01F60193818F
S1130EA0F70193FD859193FF81917F01882309F4D4
S1130EB0BAC1853239F493FD859193FF81917F0105
S1130EC0853229F4B60190E00E945609E7CF912CAF
S1130ED0212C312CFFE1F315D8F08B3279F038F462
S1130EE0803279F08332A1F4232D20611DC08D322C
S1130EF061F0803369F4232D216016C0832D826054
S1130F00382EE32DE4603E2E2AC0F32DF8601DC078
S1130F1037FC2DC020ED280F2A3040F08E32B9F472
S1130F2036FC81C1232D2064322E19C036FE06C042
S1130F308AE0989E200D1124922E11C0EAE02E9E84
S1130F40200D1124222EF32DF0623F2E08C08C3682
S1130F5021F4832D8068382E02C0883641F4F701CD
S1130F6093FD859193FF81917F018111B3CF982FD8
S1130F709F7D9554933028F40C5F1F4F9FE3998312
S1130F800DC0833631F0833771F0833509F059C0D1
S1130F9021C0F801808189830E5F1F4F88248394C8
S1130FA0912C530113C02801F2E04F0E511CF8019B
S1130FB0A080B18036FE03C0692D70E002C06FEFDF
S1130FC07FEFC5010E944B094C018201F32DFF778D
S1130FD03F2E16C0280122E0420E511CF801A080C9
S1130FE0B18036FE03C0692D70E002C06FEF7FEF61
S1130FF0C5010E9439094C01F32DF0683F2E82018E
S113100033FC1BC0822D90E088169906B0F4B6011B
S113101080E290E00E9456092A94F4CFF50137FC4F
S1131020859137FE81915F01B60190E00E945609D7
S113103021102A9421E0821A91088114910471F7F5
S1131040E8C0843611F0893641F5F80137FE07C04F
S113105060817181828193810C5F1F4F08C0608120
S11310607181072E000C880B990B0E5F1F4FF32D17
S1131070FF763F2E97FF09C09095809570956195F6
S11310807F4F8F4F9F4FF0683F2E2AE030E0A3013F
S11310900E949209882E861845C0853731F4232D85
S11310A02F7EB22E2AE030E025C0932D997FB92EF1
S11310B08F36C1F018F4883579F0B5C0803719F04F
S11310C0883721F0B0C0E92FE061BE2EB4FE0DC018
S11310D0FB2DF460BF2E09C034FE0AC0292F266000
S11310E0B22E06C028E030E005C020E130E002C0A6
S11310F020E132E0F801B7FE07C06081718182818E
S113110093810C5F1F4F06C06081718180E090E085
S11311100E5F1F4FA3010E949209882E8618FB2D93
S1131120FF773F2E36FE0DC0232D2E7FA22E89146D
S113113058F434FE0BC032FC09C0832D8E7EA82ED9
S113114005C0B82CA32C03C0B82C01C0B92CA4FE34
S11311500FC0FE01E80DF11D8081803321F49A2D2A
S1131160997EA92E09C0A2FE06C0B394B39404C00C
S11311708A2D867809F0B394A3FC11C0A0FE06C0A2
S1131180B21488F4280C922C9B180EC0B21460F48C
S1131190B60180E290E00E945609B394F7CFB214EE
S11311A018F42B1802C0982C212CA4FE10C0B601F0
S11311B080E390E00E945609A2FE17C0A1FC03C080
S11311C088E790E002C088E590E0B6010CC08A2D63
S11311D0867859F0A1FE02C08BE201C080E2A7FC30
S11311E08DE2B60190E00E945609891438F4B601E4
S11311F080E390E00E9456099A94F7CF8A94F30111
S1131200E80DF11D8081B60190E00E94560981101D
S1131210F5CF222009F442CEB60180E290E00E948C
S113122056092A94F6CFF6018681978102C08FEF82
S11312309FEF2B96E2E10C940C0A0F931F93CF932C
S1131240DF93869F8001879F100D969F100D1124B8
S1131250C8010E948A05EC01009729F0A80160E00A
S113126070E00E944409CE01DF91CF911F910F914C
S11312700895FC010590615070400110D8F78095E5
S113128090958E0F9F1F0895DC0101C06D9341500E
S11312905040E0F70895FC01615070400190011046
S11312A0D8F7809590958E0F9F1F08950F931F93E5
S11312B0CF93DF93FB01238121FD03C08FEF9FEFC9
S11312C02CC022FF16C046815781248135814217E4
S11312D0530744F4A081B1819D012F5F3F4F3183B7
S11312E020838C93268137812F5F3F4F378326835A
S11312F014C08B01EC01FB010084F185E02D0995FC
S1131300892BE1F6D80116968D919C911797019639
S113131017969C938E931697CE01DF91CF911F91D0
S11313200F910895FA01AA27283051F1203181F153
S1131330E8946F936E7F6E5F7F4F8F4F9F4FAF4FD9
S1131340B1E03ED0B4E03CD0670F781F891F9A1FEC
S1131350A11D680F791F8A1F911DA11D6A0F711DA0
S1131360811D911DA11D20D009F468943F912AE0AC
S1131370269F11243019305D3193DEF6CF01089594
S1131380462F4770405D4193B3E00FD0C9F7F6CFC5
S1131390462F4F70405D4A3318F0495D31FD40528D
S11313A0419302D0A9F7EACFB4E0A6959795879523
S11313B077956795BA95C9F7009761057105089502
S11313C09B01AC010A2E06945795479537952795AE
S11313D0BA95C9F7620F731F841F951FA01D089546
S11313E02F923F924F925F926F927F928F929F9231
S11313F0AF92BF92CF92DF92EF92FF920F931F931F
S1131400CF93DF93CDB7DEB7CA1BDB0B0FB6F894CF
S1131410DEBF0FBECDBF09942A88398848885F840F
S11314206E847D848C849B84AA84B984C884DF8080
S1131430EE80FD800C811B81AA81B981CE0FD11D64
S11314400FB6F894DEBF0FBECDBFED010895F8943A
S1051450FFCFC8
S11314520000C201200076657264692025640A00D6
S1131462706F733A202564000A706F73203D202543
S1131472640A000A5550000A444F574E000A524962
S1131482474854000A4C454654000A4E45555452A6
S1131492414C005820506F733A20256409005920AA
S11314A2506F733A2025640909004C696E653A202D
S11314B2202564200A004D61696E204D656E750019
S11314C253544152542047414D45005354415254C0
S11314D200444946462031004449464620320044ED
S11314E24946462033004849474853434F524553DF
S11314F2002564207472796D004D41494E5F4D455B
S10715024E5500003E
S9030000FC
