:100000000C9438000C9455000C9455000C94550039
:100010000C9455000C9455000C9455000C9455000C
:100020000C9455000C9455000C9455000C945500FC
:100030000C9455000C9455000C9455000C945500EC
:100040000C9455000C9455000C9455000C945500DC
:100050000C9455000C9455000C9455000C945500CC
:100060000C9455000C9455000C9455000C945500BC
:1000700011241FBECFEFD4E0DEBFCDBF11E0A0E062
:10008000B1E0EAE2FFE002C005900D92AC38B107A2
:10009000D9F721E0ACE8B1E001C01D92A639B20762
:1000A000E1F70E94F0000C9493070C9400000E946A
:1000B000D80180E00E94F00141E06FEF8BE20E94E6
:1000C000B60108950F931F93CF93DF938C01FC012A
:1000D0006081718176956795769567957695679538
:1000E00081E30E948301F80160816295660F607E62
:1000F00082E30E948301F801628185E30E9483010B
:10010000C0E0D0E009C0F801EC0FFD1F63818C2F27
:100110008A5C0E9483012196F801828190E0C817D1
:10012000D9078CF380E090E00E949701DF91CF9196
:100130001F910F910895FF920F931F93CF93DF9319
:100140008C018BE0F80111928A95E9F782E60E9412
:100150007101C82FC295C695C77081E60E947101D2
:1001600090E0880F991F880F991F880F991F8C0F97
:10017000911DF8019183808385E60E947101F82E1C
:10018000F8018283C0E0D0E009C08C2F8A590E9418
:100190007101F801EC0FFD1F838321968F2D90E0F4
:1001A000C817D90794F3C801DF91CF911F910F9120
:1001B000FF9008959C0191B3906191BBEBE8F0E052
:1001C000908190649083EAE8F0E090819860908359
:1001D000309387002093860080818160808308951A
:1001E000CF93DF93CDB7DEB72B970FB6F894DEBF72
:1001F0000FBECDBF81E890E00E94F6018FE790E04E
:100200000E94F60183EE90E00E94F6018FEA90E0F2
:100210000E94F60180E290E00E94F60182E090E008
:100220000E94F6018AE290E00E94F6018EEA90E0D8
:100230000E94F6018FE190E00E94C1020E94B1028B
:1002400080E090E00E94DA000E9475020E94FC01AA
:1002500080E090E001C0019684309105E4F38FE1E5
:1002600090E00E94C1020E94570080E00E94F001CD
:1002700081E090E00E946200CE0101960E949B0006
:1002800086E291E00E9478048A818F9389818F931E
:1002900081E591E09F938F930E9462048B811F926E
:1002A0008F938BE591E09F938F930E946204CE0120
:1002B00004969F938F9389E691E09F938F930E947A
:1002C00062040FB6F894DEBF0FBECDBF80E090E0B1
:1002D0002B960FB6F894DEBF0FBECDBFDF91CF9146
:1002E0000895CF93C82F0E94AD0283E00E94980228
:1002F0008C2F0E9498020E949C02C82F0E94A2028A
:100300008C2FCF910895CF93DF93D82FC62F0E94C3
:10031000AD0282E00E9498028D2F0E9498028C2FDD
:100320000E9498020E94A202DF91CF910895CF937C
:10033000DF93EC010E94AD02CE0163E070E00E9409
:10034000CE02009739F08130910531F0029731F0FB
:1003500081E805C081E803C082E801C084E80E940A
:1003600098020E94A202DF91CF9108951F93CF932C
:10037000DF93182FD62FC42F0E94AD0285E00E9474
:100380009802812F0E9498028D2F0E9498028C2F34
:100390000E9498020E94A202DF91CF911F910895BE
:1003A0000E94AD0280EC0E9498020E94A202089571
:1003B0000E94A6020E94D0018EE00E947101982F37
:1003C000907E903861F01F928F938AE791E09F931F
:1003D0008F930E9462040F900F900F900F900895DA
:1003E000482F60EE8FE00E94B601089580930010C0
:1003F000089580930012089581EA90E00E94F6012A
:100400008AED90E00E94F60182E190E00E94F60100
:1004100088EC90E00E94F60188EA90E00E94F601E4
:100420008FE390E00E94F60185ED90E00E94F601D6
:1004300080E890E00E94F60181E890E00E94F601D9
:1004400080E590E00E94F60189ED90E00E94F601BF
:1004500081E290E00E94F60180E290E00E94F601C5
:1004600082E090E00E94F6018BED90E00E94F601A0
:1004700080E390E00E94F6018DEA90E00E94F60190
:1004800080E090E00E94F60184EA90E00E94F6018C
:1004900086EA90E00E94F6018FEA90E00E94F60161
:1004A000089580559F4F0E94F6010895CF93DF93E2
:1004B000EC018F709078992324F40197806F9F6FDF
:1004C00001960E94F601CE01DD230CF40F9695955E
:1004D0008795959587959595879595958795409658
:1004E0000E94F601DF91CF9108950F931F93CF9350
:1004F000DF9300E010E014C0C8010E94510280E0C8
:1005000090E00E945602C0E0D0E005C080E090E09C
:100510000E94F9012196C038D105C4F30F5F1F4F27
:10052000083011054CF3DF91CF911F910F91089581
:100530008FB9779BFECF08958FEF8FB9779BFECF52
:100540008FB1089588B3806188BB089580EB87BB25
:1005500081ED8DB90E94A202089588B38F7E88BB79
:10056000089585B7806885BF80B7806280BF089591
:100570005D9BFECF8CB908955F9902C08CB1089540
:10058000089590BD89B988E18AB98EE880BD6CEB89
:1005900072E088EB92E00E941704089597FB072E03
:1005A00016F4009407D077FD09D00E94E20207FC00
:1005B00005D03EF4909581959F4F08957095619573
:1005C0007F4F0895AA1BBB1B51E107C0AA1FBB1F89
:1005D000A617B70710F0A61BB70B881F991F5A95CF
:1005E000A9F780959095BC01CD0108950F931F93B5
:1005F000CF93DF938230910510F482E090E0E09198
:100600008E01F0918F0120E030E0A0E0B0E0309763
:1006100019F1408151810281138148175907C8F0AF
:100620008417950769F4109731F012960C9312977E
:1006300013961C9327C000938E0110938F0122C044
:100640002115310519F04217530718F49A01BD011D
:10065000EF01DF01F801DBCF21153105F9F0281B8F
:10066000390B2430310580F48A819B816115710535
:1006700021F0FB019383828304C090938F018093C8
:100680008E01FE01329644C0FE01E20FF31F8193FA
:10069000919322503109398328833AC020918C01EB
:1006A00030918D01232B41F42091020130910301FF
:1006B00030938D0120938C01209100013091010134
:1006C0002115310541F42DB73EB7409104015091F9
:1006D0000501241B350BE0918C01F0918D01E2178F
:1006E000F307A0F42E1B3F0B2817390778F0AC0155
:1006F0004E5F5F4F2417350748F04E0F5F1F509332
:100700008D0140938C018193919302C0E0E0F0E071
:10071000CF01DF91CF911F910F910895CF93DF9378
:10072000009709F481C0FC01329713821282A091D4
:100730008E01B0918F01109781F420813181820F59
:10074000931F20918C0130918D012817390751F5A5
:10075000F0938D01E0938C0167C0ED0120E030E063
:10076000CE17DF0740F44A815B819E014115510598
:10077000F1F0EA01F5CFD383C28340815181840F28
:10078000951FC817D90759F488819981840F951F3F
:100790000296918380838A819B8193838283211532
:1007A000310529F4F0938F01E0938E013DC0E901FA
:1007B000FB83EA8349915991C40FD51FEC17FD07BC
:1007C00061F480819181840F951F0296E9019983DC
:1007D0008883828193819B838A83E0E0F0E0129694
:1007E0008D919C911397009719F0FD01DC01F7CFD3
:1007F0008D919C9111979D012E5F3F4F820F931F0A
:1008000020918C0130918D012817390769F43097B8
:1008100029F410928F0110928E0102C0138212826D
:10082000B0938D01A0938C01DF91CF9108950F9328
:100830001F93CF93DF93009731F46115710519F47D
:1008400080E090E03AC08B01EC016EE070E081E066
:1008500090E00E948906FC01892B91F380E8838354
:100860000115110571F01387028781E88383809158
:10087000900190919101892B21F4F0939101E093E3
:1008800090012097C9F0D187C087838182608383DC
:100890008091920190919301892B71F4F0939301CF
:1008A000E09392018091940190919501892B21F41C
:1008B000F0939501E0939401CF01DF91CF911F91C7
:1008C0000F910895A0E0B0E0E8E6F4E00C946C0726
:1008D000AE014B5F5F4FFA0161917191AF01809161
:1008E0009201909193010E94A804E2E00C94880781
:1008F0000F931F93CF93DF93E0919201F0919301B7
:10090000238121FF1BC08C01D0E0C0E0F801819160
:100910008F016091920170919301DB011896ED9126
:10092000FC911997882331F00995892B79F3DFEF32
:10093000CFEFECCF8AE00995892B19F08FEF9FEF6D
:1009400002C08D2F9C2FDF91CF911F910F910895A1
:10095000ABE0B0E0EEEAF4E00C945C076C017B01E4
:100960008A01FC0117821682838181FFCCC1CE01EE
:1009700001963C01F6019381F70193FD859193FF68
:1009800081917F01882309F4BAC1853239F493FD3E
:10099000859193FF81917F01853229F4B60190E022
:1009A0000E94C206E7CF912C212C312CFFE1F315D8
:1009B000D8F08B3279F038F4803279F08332A1F4B8
:1009C000232D20611DC08D3261F0803369F4232D09
:1009D000216016C0832D8260382EE32DE4603E2E08
:1009E0002AC0F32DF8601DC037FC2DC020ED280F64
:1009F0002A3040F08E32B9F436FC81C1232D2064B8
:100A0000322E19C036FE06C08AE0989E200D1124B1
:100A1000922E11C0EAE02E9E200D1124222EF32DDD
:100A2000F0623F2E08C08C3621F4832D8068382E6A
:100A300002C0883641F4F70193FD859193FF8191BF
:100A40007F018111B3CF982F9F7D9554933028F467
:100A50000C5F1F4F9FE399830DC0833631F08337BE
:100A600071F0833509F059C021C0F8018081898374
:100A70000E5F1F4F88248394912C530113C02801CB
:100A8000F2E04F0E511CF801A080B18036FE03C089
:100A9000692D70E002C06FEF7FEFC5010E94B706BD
:100AA0004C018201F32DFF773F2E16C0280122E072
:100AB000420E511CF801A080B18036FE03C0692DA2
:100AC00070E002C06FEF7FEFC5010E94A5064C01E8
:100AD000F32DF0683F2E820133FC1BC0822D90E085
:100AE00088169906B0F4B60180E290E00E94C20632
:100AF0002A94F4CFF50137FC859137FE81915F018F
:100B0000B60190E00E94C20621102A9421E0821AC8
:100B100091088114910471F7E8C0843611F0893688
:100B200041F5F80137FE07C06081718182819381B0
:100B30000C5F1F4F08C060817181072E000C880B6D
:100B4000990B0E5F1F4FF32DFF763F2E97FF09C0C5
:100B500090958095709561957F4F8F4F9F4FF0686E
:100B60003F2E2AE030E0A3010E94FE06882E861860
:100B700045C0853731F4232D2F7EB22E2AE030E098
:100B800025C0932D997FB92E8F36C1F018F4883582
:100B900079F0B5C0803719F0883721F0B0C0E92F5F
:100BA000E061BE2EB4FE0DC0FB2DF460BF2E09C067
:100BB00034FE0AC0292F2660B22E06C028E030E09D
:100BC00005C020E130E002C020E132E0F801B7FECC
:100BD00007C060817181828193810C5F1F4F06C0C5
:100BE0006081718180E090E00E5F1F4FA3010E9441
:100BF000FE06882E8618FB2DFF773F2E36FE0DC091
:100C0000232D2E7FA22E891458F434FE0BC032FC03
:100C100009C0832D8E7EA82E05C0B82CA32C03C03E
:100C2000B82C01C0B92CA4FE0FC0FE01E80DF11DC7
:100C30008081803321F49A2D997EA92E09C0A2FECD
:100C400006C0B394B39404C08A2D867809F0B39497
:100C5000A3FC11C0A0FE06C0B21488F4280C922C8C
:100C60009B180EC0B21460F4B60180E290E00E94BE
:100C7000C206B394F7CFB21418F42B1802C0982C04
:100C8000212CA4FE10C0B60180E390E00E94C206B1
:100C9000A2FE17C0A1FC03C088E790E002C088E56F
:100CA00090E0B6010CC08A2D867859F0A1FE02C0F2
:100CB0008BE201C080E2A7FC8DE2B60190E00E94C9
:100CC000C206891438F4B60180E390E00E94C2069F
:100CD0009A94F7CF8A94F301E80DF11D8081B60153
:100CE00090E00E94C2068110F5CF222009F442CE86
:100CF000B60180E290E00E94C2062A94F6CFF60187
:100D00008681978102C08FEF9FEF2B96E2E10C94D2
:100D100078070F931F93CF93DF93869F8001879F60
:100D2000100D969F100D1124C8010E94F602EC01CF
:100D3000009729F0A80160E070E00E94B006CE01A3
:100D4000DF91CF911F910F910895FC0105906150A3
:100D500070400110D8F7809590958E0F9F1F0895D1
:100D6000DC0101C06D9341505040E0F70895FC0153
:100D70006150704001900110D8F7809590958E0FCA
:100D80009F1F08950F931F93CF93DF93FB01238140
:100D900021FD03C08FEF9FEF2CC022FF16C04681BC
:100DA0005781248135814217530744F4A081B181D2
:100DB0009D012F5F3F4F318320838C9326813781A4
:100DC0002F5F3F4F3783268314C08B01EC01FB015B
:100DD0000084F185E02D0995892BE1F6D80116965E
:100DE0008D919C911797019617969C938E931697C9
:100DF000CE01DF91CF911F910F910895FA01AA279B
:100E0000283051F1203181F1E8946F936E7F6E5F4D
:100E10007F4F8F4F9F4FAF4FB1E03ED0B4E03CD0FB
:100E2000670F781F891F9A1FA11D680F791F8A1FDE
:100E3000911DA11D6A0F711D811D911DA11D20D045
:100E400009F468943F912AE0269F11243019305DFF
:100E50003193DEF6CF010895462F4770405D4193F0
:100E6000B3E00FD0C9F7F6CF462F4F70405D4A333D
:100E700018F0495D31FD4052419302D0A9F7EACF05
:100E8000B4E0A6959795879577956795BA95C9F734
:100E900000976105710508959B01AC010A2E069427
:100EA0005795479537952795BA95C9F7620F731FE0
:100EB000841F951FA01D08952F923F924F925F921D
:100EC0006F927F928F929F92AF92BF92CF92DF925A
:100ED000EF92FF920F931F93CF93DF93CDB7DEB7BF
:100EE000CA1BDB0B0FB6F894DEBF0FBECDBF099453
:100EF0002A88398848885F846E847D848C849B84AA
:100F0000AA84B984C884DF80EE80FD800C811B81B7
:100F1000AA81B981CE0FD11D0FB6F894DEBF0FBEE6
:0A0F2000CDBFED010895F894FFCF56
:100F2A000000960120000A5550000A444F574E000F
:100F3A000A5249474854000A4C454654000A4E454D
:100F4A00555452414C0048656973616E6E20737640
:100F5A00656973616E6E2C207669206861722066FD
:100F6A00E57474206569206D656C64696E672E0D81
:100F7A000049643A202564200D0A004C656E6764B6
:100F8A00653A202564200D0A004D656C64696E6718
:100F9A003A202573200D0A0D0A004D435021636F34
:0C0FAA006E666967202578200D0A0000A3
:00000001FF
