:100000000C94B4010C94D1010C94D1010C94D10145
:100010000C94D1010C94D1010C94D1010C94D10118
:100020000C94D1010C94D1010C94D1010C94D10108
:100030000C94D1010C94D1010C94D1010C94D101F8
:100040000C94D1010C94D1010C94D1010C94D101E8
:100050000C94D1010C94D1010C94D1010C94D101D8
:100060000C94D1010C94D1010C94D1010C94D101C8
:10007000000000000000000000065F5F06000000B6
:100080000007070007070000147F7F147F7F14001C
:10009000242E6B6B3A120000466630180C66620024
:1000A000307A4F5D377A48000407030000000000F3
:1000B000001C3E63410000000041633E1C00000044
:1000C000082A3E1C1C3E2A0808083E3E080800007C
:1000D00000A0E06000000000080808080808000010
:1000E00000006060000000006030180C0603010092
:1000F0003E7F594D7F3E000042427F7F40400000DE
:10010000627359496F660000226349497F360000D7
:10011000181C16137F7F1000276745457D390000A6
:100120003C7E4B4979300000036371190F070000D2
:10013000367F49497F360000064F49693F1E00005F
:1001400000006C6C0000000000A0EC6C00000000DF
:10015000081C366341000000141414141414000029
:10016000004163361C080000020351590F060000CD
:100170003E7F415D5D1F1E007C7E13137E7C000070
:10018000417F7F49497F36001C3E63414163220025
:10019000417F7F41637F1C00417F7F495D41630058
:1001A000417F7F491D0103001C3E63415173720072
:1001B0007F7F08087F7F000000417F7F41000000B3
:1001C000307040417F3F0100417F7F081C77630012
:1001D000417F7F41406070007F7F060C067F7F007B
:1001E0007F7F060C187F7F001C3E6341633E1C002E
:1001F000417F7F49090F06001E3F21717F5E00008D
:10020000417F7F19396F460026674D597B320000C8
:1002100003417F7F410300007F7F40407F7F0000DC
:100220001F3F60603F1F00007F7F3018307F7F00DE
:1002300063771C081C776300074F78784F0700002E
:100240006773594D47637100007F7F414100000093
:100250000103060C183060000041417F7F00000060
:10026000080C0603060C0800808080808080808057
:100270000000030704000000207454543C78400040
:10028000413F7F44447C3800387C44446C28000063
:10029000307848493F7F4000387C54545C18000057
:1002A000487E7F490302000098BCA4A4F87C0400A7
:1002B000417F7F08047C780000447D7D4000000081
:1002C00040C484FD7D000000417F7F10386C4400F5
:1002D00000417F7F400000007C7C0C180C7C780083
:1002E0007C7C04047C780000387C44447C3800002A
:1002F00084FCF8A4243C1800183C24A4F8FC8400D6
:10030000447C78441C180000485C54547424000059
:1003100000043E7F442400003C7C40403C7C400084
:100320001C3C60603C1C00003C7C6030607C3C00FD
:10033000446C3810386C44009CBCA0A0FC7C0000CD
:100340004C64745C4C64000008083E774141000036
:1003500000000077770000004141773E0808000068
:10036000020301030203010011241FBECFEFD4E0FA
:10037000DEBFCDBF11E0A0E0B1E0EEE8FAE102C0DF
:1003800005900D92A03DB107D9F721E0A0EDB1E0B5
:1003900001C01D92A63EB207E1F70E9482030C94B1
:1003A000450D0C940000FC010FB6F8946091E20139
:1003B0007091E3018091E4019091E5010FBE3097C7
:1003C00021F0608371838283938308950E941A06CB
:1003D00083EC99E00197F1F700C0000065E088E246
:1003E0000E94C50561EB89E20E94C50563E08AE2CF
:1003F0000E94C50580E00E94380641E06FEF8BE265
:100400000E94F80508950F931F93CF93DF938C01FB
:10041000FC01608166956695669581E30E94C5053D
:10042000F8016081F0E26F9FB001112482E30E9425
:10043000C505F801618185E30E94C505C0E0D0E0F3
:1004400009C0F801EC0FFD1F62818C2F8A5C0E94AD
:10045000C5052196F801818190E0C817D9078CF372
:1004600080E090E00E94D905DF91CF911F910F911C
:1004700008950F931F93CF93DF938C0182E60E9420
:10048000B305C82FC295C695C77081E60E94B30513
:10049000880F880F880FC80FF801C08385E60E9477
:1004A000B305F8018183C0E0D0E009C08C2F8A59E0
:1004B0000E94B305F801EC0FFD1F82832196F8011D
:1004C000818190E0C817D9078CF3DF91CF911F91FC
:1004D0000F9108950F931F93CF93DF93EC0184E165
:1004E00088830E949A028C01035A1F4F0E94CE02F9
:1004F000825A9F4F92E099830A838B83CE01DF91CA
:10050000CF911F910F9108959C0191B3906191BB80
:10051000EBE8F0E0908190649083EAE8F0E090816D
:10052000986090833093870020938600808181605B
:1005300080830895E0E0F4E184E8808386E08A9592
:10054000F1F700C0208130E0205A310944E6429F93
:10055000C001439F900D11246FE770E00E94F107E6
:10056000CB011816190664F424E6269FC001279FC4
:10057000900D112463E470E00E94F107CB0108950F
:1005800099235CF424E6269FC001279F900D112437
:1005900065E870E00E94F107CB010895E0E0F4E126
:1005A00081E8808386E08A95F1F700C0208130E001
:1005B000225A310944E6429FC001439F900D112405
:1005C0006FE770E00E94F107CB011816190664F47A
:1005D00024E6269FC001279F900D112461E470E05E
:1005E0000E94F107CB01089599235CF424E6269F2D
:1005F000C001279F900D112467E870E00E94F10769
:10060000CB010895E0E0F4E183E8808386E08A95F9
:10061000F1F700C0808190E00895E0E0F4E182E825
:10062000808386E08A95F1F700C0808190E008958C
:1006300086B3827090E0089586B3847090E0089548
:100640001F93CF93DF93EC0184E089838EE188834D
:100650000E941803182F0E941C031A838B83CE015B
:10066000DF91CF911F9108950F931F93CF93DF9345
:1006700000D000D0CDB7DEB78C0184E0F8018183D3
:1006800088E280830E9402039A8389830E940D037B
:100690009C838B8389819A81F80182838B819C81E1
:1006A0008383C8010F900F900F900F90DF91CF912F
:1006B0001F910F910895892BB1F08091D0019091F5
:1006C000D10101969093D1018093D00181E090E017
:1006D00090930D0180930C018FE493EC0197F1F757
:1006E00000C0000004C010920D0110920C01809116
:1006F000D0019091D1018617970711F481E00895F8
:1007000080E00895CF93DF93CDB7DEB7E2970FB6C1
:10071000F894DEBF0FBECDBF80E090E00E94D30111
:10072000CB010E948B0981E890E00E943E068FE792
:1007300090E00E943E0683EE90E00E943E068FEA23
:1007400090E00E943E0680E290E00E943E0682E039
:1007500090E00E943E068AE290E00E943E068EEA09
:1007600090E00E943E068FE190E00E94E4070E9424
:10077000D40780E090E00E9484020E94BD060E949F
:1007800044060E94E60180E00E9438062FEB84EDCB
:1007900091E0215080409040E1F700C0000080913E
:1007A000D0019091D1019F938F938EE091E09F9320
:1007B0008F930E94E10989A10F900F900F900F90E5
:1007C000843741F41092D3011092D201CE014F969A
:1007D0000E94390200910A0110910B010E94180336
:1007E000B8010E945B03813041F41092D301109252
:1007F000D2011092D1011092D0018091D20190913A
:10080000D301019709F0C7C0CE014F960E9439026B
:1008100064E170E081E090E00E94E0068CE191E00C
:100820000E940B076EE170E084E090E00E94E00619
:1008300087E291E00E940B0760E570E084E090E0C1
:100840000E94E00680910A0190910B012091D00155
:100850003091D101821B930B019721F48FE291E03B
:100860000E940B0780910A0190910B012091D00109
:100870003091D101821B930B029721F481E391E027
:100880000E940B0780910A0190910B012091D001E9
:100890003091D101821B930B039721F483E391E004
:1008A0000E940B0780910A0190910B012091D001C9
:1008B0003091D101821B930B049721F485E391E0E1
:1008C0000E940B0780910A0190910B012091D001A9
:1008D0003091D101821B930B059721F487E391E0BE
:1008E0000E940B07CE0189960E946A028AE0FE01EF
:1008F000B996DE01119601900D928A95E1F7CE012D
:1009000001960E94030283ED90E30197F1F700C086
:100910000000CE0189960E9420038AE0FE01B9966C
:10092000DE011B9601900D928A95E1F7CE010B96A0
:100930000E94030283ED90E30197F1F700C00000ED
:10094000CE0189960E9434038AE0FE01B996DE0149
:10095000559601900D928A95E1F7988D8F89292FF0
:10096000092E000C330B3F939F93282F082E000C69
:10097000330B3F938F9389E391E09F938F930E9472
:10098000E109CE0145960E9403020F900F900F904F
:100990000F900F900F908091D2019091D301892BED
:1009A00009F0D7C0CE014F960E9439020E949A02E8
:1009B0008E3C9F4F94F48091D4019091D5011816EC
:1009C00019065CF48091D4019091D5010197909320
:1009D000D5018093D4010E94BD068091D4019091ED
:1009E000D501892B11F40E9457070E94CE028E3C3C
:1009F0009F4F4CF58091D6019091D70107971CF538
:100A00008091D6019091D70101969093D701809360
:100A1000D6018091D6019091D70160E070E00E94EC
:100A200029078091D6019091D70160E070E001978D
:100A30000E9440078FE996E821E0815090402040D5
:100A4000E1F700C000000E94CE02C39754F18091EC
:100A5000D6019091D701181619061CF58091D60180
:100A60009091D70101979093D7018093D6018091FF
:100A7000D6019091D70160E070E00E942907809133
:100A8000D6019091D70160E070E001960E94400786
:100A90008FE996E821E0815090402040E1F700C0C6
:100AA00000000E949A02C39774F08091D601909141
:100AB000D701069741F40E949E0781E090E0909351
:100AC000D5018093D4010E949A02C39794F080913B
:100AD000D6019091D701019761F481E090E0909365
:100AE000D3018093D2011092D1011092D0010E94C3
:100AF000BD060E949A02C39764F08091D60190913E
:100B0000D701039731F48AE090E090930B01809332
:100B10000A010E949A02C39764F08091D6019091D5
:100B2000D701049731F485E090E090930B01809316
:100B30000A010E949A02C39764F08091D6019091B5
:100B4000D701059731F483E090E090930B018093F7
:100B50000A018FE996E821E0815090402040E1F7BA
:100B600000C000001CCECF93C82F0E94D00783E0A6
:100B70000E94BB078C2F0E94BB070E94BF07C82F93
:100B80000E94C5078C2FCF910895CF93DF93D82F64
:100B9000C62F0E94D00782E00E94BB078D2F0E94C3
:100BA000BB078C2F0E94BB070E94C507DF91CF9126
:100BB0000895CF93DF93EC010E94D007CE0163E04C
:100BC00070E00E94F107009739F08130910531F013
:100BD000029731F081E805C081E803C082E801C0D6
:100BE00084E80E94BB070E94C507DF91CF9108955A
:100BF0001F93CF93DF93182FD62FC42F0E94D007B7
:100C000085E00E94BB07812F0E94BB078D2F0E94A9
:100C1000BB078C2F0E94BB070E94C507DF91CF91B5
:100C20001F9108950E94D00780EC0E94BB070E948C
:100C3000C50708950E94C9070E94120689EF90E037
:100C40000197F1F700C000008EE00E94B305982FD5
:100C5000907E903861F01F928F9382E591E09F9390
:100C60008F930E94E1090F900F900F900F900895BD
:100C7000482F60EE8FE00E94F805089580930010E1
:100C8000089580930012089581EA90E00E943E0644
:100C90008AED90E00E943E0682E190E00E943E06CE
:100CA00088EC90E00E943E0688EA90E00E943E06B2
:100CB0008FE390E00E943E0685ED90E00E943E06A4
:100CC00080E890E00E943E0681E890E00E943E06A7
:100CD00080E590E00E943E0689ED90E00E943E068D
:100CE00081E290E00E943E0680E290E00E943E0693
:100CF00082E090E00E943E068BED90E00E943E066E
:100D000080E390E00E943E068DEA90E00E943E065D
:100D100080E090E00E943E0684EA90E00E943E0659
:100D200086EA90E00E943E068FEA90E00E943E062E
:100D3000089580559F4F0E943E060895CF93DF93FC
:100D4000EC018F709078992324F40197806F9F6F46
:100D500001960E943E06CE01DD230CF40F96959578
:100D600087959595879595958795959587954096BF
:100D70000E943E06DF91CF9108950F931F93CF936A
:100D8000DF9300E010E014C0C8010E94990680E0E3
:100D900090E00E949E06C0E0D0E005C080E090E0B8
:100DA0000E9441062196C038D105C4F30F5F1F4F42
:100DB000083011054CF3DF91CF911F910F910895E9
:100DC000CF93DF93EB010E949906CE010E949E060D
:100DD000DF91CF9108951F93CF93DF9310EE180FFB
:100DE000C0E0D0E011C0E12FF0E0EE0FFF1FEE0FEA
:100DF000FF1FEE0FFF1FEC0FFD1FE059FF4F849107
:100E000090E00E9441062196C830D10564F3DF913D
:100E1000CF911F9108950F931F93CF93DF938C0170
:100E2000C0E0D0E007C0F801EC0FFD1F80810E94F8
:100E3000EB062196F80101900020E9F73197E01BBD
:100E4000F10BCE17DF0778F3DF91CF911F910F9150
:100E500008950E94E00688E190E00E94410688E142
:100E600090E00E9441068EE790E00E9441068CE3EC
:100E700090E00E94410688E190E00E9441060895BA
:100E80000E94E00680E090E00E94410680E090E051
:100E90000E94410680E090E00E94410680E090E0E0
:100EA0000E94410680E090E00E944106089565E0BE
:100EB00070E080E090E00E94E0068AEC91E00E9401
:100EC0000B0765E070E081E090E00E94E0068AE8B0
:100ED00091E00E940B0765E070E082E090E00E94E4
:100EE000E00684E991E00E940B0765E070E083E092
:100EF00090E00E94E00681EA91E00E940B0765E025
:100F000070E084E090E00E94E00686EA91E00E94B2
:100F10000B0765E070E085E090E00E94E0068DEA56
:100F200091E00E940B0765E070E086E090E00E948F
:100F3000E00682EB91E00E940B070895CF93DF93C8
:100F40000E94BD0660E070E080E090E00E94E00654
:100F5000C0E0D0E00AC065E070E0CE010E94E0068B
:100F60008DEB91E00E940B072196C630D1059CF3D2
:100F7000DF91CF9108958FB9779BFECF08958FEFC2
:100F80008FB9779BFECF8FB1089588B3806188BBFE
:100F9000089580EB87BB81ED8DB90E94C507089548
:100FA00088B38F7E88BB089585B7806885BF80B77A
:100FB000806280BF08955D9BFECF8CB908955F99D4
:100FC00002C08CB10895089590BD89B988E18AB9AD
:100FD0008EE880BD6FED77E08BED97E00E9496097B
:100FE000089597FB072E16F4009407D077FD09D0DB
:100FF0000E94050807FC05D03EF4909581959F4F0F
:101000000895709561957F4F0895AA1BBB1B51E110
:1010100007C0AA1FBB1FA617B70710F0A61BB70B68
:10102000881F991F5A95A9F780959095BC01CD010D
:1010300008950F931F93CF93DF938230910510F49F
:1010400082E090E0E091DA01F091DB0120E030E015
:10105000A0E0B0E0309719F1408151810281138105
:1010600048175907C8F08417950769F4109731F0AD
:1010700012960C93129713961C9327C00093DA01D3
:101080001093DB0122C02115310519F042175307D7
:1010900018F49A01BD01EF01DF01F801DBCF211542
:1010A0003105F9F0281B390B2430310580F48A8191
:1010B0009B816115710521F0FB019383828304C03C
:1010C0009093DB018093DA01FE01329644C0FE0169
:1010D000E20FF31F819391932250310939832883C2
:1010E0003AC02091D8013091D901232B41F42091AD
:1010F0000201309103013093D9012093D80120914E
:101100000001309101012115310541F42DB73EB7A1
:101110004091040150910501241B350BE091D80149
:10112000F091D901E217F307A0F42E1B3F0B28170B
:10113000390778F0AC014E5F5F4F2417350748F050
:101140004E0F5F1F5093D9014093D8018193919323
:1011500002C0E0E0F0E0CF01DF91CF911F910F914D
:101160000895CF93DF93009709F481C0FC01329773
:1011700013821282A091DA01B091DB01109781F401
:1011800020813181820F931F2091D8013091D901A4
:101190002817390751F5F093D901E093D80167C0BA
:1011A000ED0120E030E0CE17DF0740F44A815B819B
:1011B0009E0141155105F1F0EA01F5CFD383C283B9
:1011C00040815181840F951FC817D90759F4888130
:1011D0009981840F951F0296918380838A819B81D8
:1011E000938382832115310529F4F093DB01E09389
:1011F000DA013DC0E901FB83EA8349915991C40FAB
:10120000D51FEC17FD0761F480819181840F951F34
:101210000296E90199838883828193819B838A83E3
:10122000E0E0F0E012968D919C911397009719F0F1
:10123000FD01DC01F7CF8D919C9111979D012E5FEF
:101240003F4F820F931F2091D8013091D901281769
:10125000390769F4309729F41092DB011092DA0112
:1012600002C013821282B093D901A093D801DF91FA
:10127000CF9108958F929F92AF92BF92CF92DF92BB
:10128000EF92FF92CF93DF93EC01688179818A819D
:101290009B81611571058105910521F464E279ED69
:1012A0008BE597E02DE133EF41E050E00E94AB0C7D
:1012B00049015A019B01AC01A7EAB1E40E94CA0CA2
:1012C0006B017C01ACEEB4EFA50194010E94D80C37
:1012D000DC01CB018C0D9D1DAE1DBF1DB7FF03C0F2
:1012E0000197A109B04888839983AA83BB839F771C
:1012F000DF91CF91FF90EF90DF90CF90BF90AF90B4
:101300009F908F9008950E943A09089586E091E099
:101310000E943A090895A0E0B0E0809306019093FE
:101320000701A0930801B093090108950F931F933B
:10133000CF93DF93009731F46115710519F480E0C4
:1013400090E03AC08B01EC016EE070E081E090E04B
:101350000E94D80BFC01892B91F380E8838301154F
:10136000110571F01387028781E883838091DC0186
:101370009091DD01892B21F4F093DD01E093DC01F4
:101380002097C9F0D187C087838182608383809151
:10139000DE019091DF01892B71F4F093DF01E0937E
:1013A000DE018091E0019091E101892B21F4F0931D
:1013B000E101E093E001CF01DF91CF911F910F9107
:1013C0000895A0E0B0E0E7EEF9E00C94ED0CAE017A
:1013D0004B5F5F4FFA0161917191AF018091DE0126
:1013E0009091DF010E94F709E2E00C94090DABE057
:1013F000B0E0EDEFF9E00C94DD0C6C017B018A01AB
:10140000FC0117821682838181FFCCC1CE01019637
:101410003C01F6019381F70193FD859193FF819142
:101420007F01882309F4BAC1853239F493FD85918F
:1014300093FF81917F01853229F4B60190E00E94EB
:10144000110CE7CF912C212C312CFFE1F315D8F0B2
:101450008B3279F038F4803279F08332A1F4232D85
:1014600020611DC08D3261F0803369F4232D21602D
:1014700016C0832D8260382EE32DE4603E2E2AC0F4
:10148000F32DF8601DC037FC2DC020ED280F2A3049
:1014900040F08E32B9F436FC81C1232D2064322E07
:1014A00019C036FE06C08AE0989E200D1124922EA7
:1014B00011C0EAE02E9E200D1124222EF32DF062A1
:1014C0003F2E08C08C3621F4832D8068382E02C050
:1014D000883641F4F70193FD859193FF81917F0157
:1014E0008111B3CF982F9F7D9554933028F40C5FD2
:1014F0001F4F9FE399830DC0833631F0833771F01E
:10150000833509F059C021C0F801808189830E5FBD
:101510001F4F88248394912C530113C02801F2E0BB
:101520004F0E511CF801A080B18036FE03C0692D1A
:1015300070E002C06FEF7FEFC5010E94060C4C0106
:101540008201F32DFF773F2E16C0280122E0420EC4
:10155000511CF801A080B18036FE03C0692D70E0F7
:1015600002C06FEF7FEFC5010E94F40B4C01F32D19
:10157000F0683F2E820133FC1BC0822D90E088165C
:101580009906B0F4B60180E290E00E94110C2A9412
:10159000F4CFF50137FC859137FE81915F01B601EB
:1015A00090E00E94110C21102A9421E0821A9108E7
:1015B0008114910471F7E8C0843611F0893641F541
:1015C000F80137FE07C060817181828193810C5FD1
:1015D0001F4F08C060817181072E000C880B990B8A
:1015E0000E5F1F4FF32DFF763F2E97FF09C090959A
:1015F0008095709561957F4F8F4F9F4FF0683F2E7C
:101600002AE030E0A3010E944D0C882E861845C0C8
:10161000853731F4232D2F7EB22E2AE030E025C00D
:10162000932D997FB92E8F36C1F018F4883579F053
:10163000B5C0803719F0883721F0B0C0E92FE061DC
:10164000BE2EB4FE0DC0FB2DF460BF2E09C034FECB
:101650000AC0292F2660B22E06C028E030E005C05F
:1016600020E130E002C020E132E0F801B7FE07C01F
:1016700060817181828193810C5F1F4F06C0608100
:10168000718180E090E00E5F1F4FA3010E944D0C1E
:10169000882E8618FB2DFF773F2E36FE0DC0232D9A
:1016A0002E7FA22E891458F434FE0BC032FC09C0E0
:1016B000832D8E7EA82E05C0B82CA32C03C0B82C79
:1016C00001C0B92CA4FE0FC0FE01E80DF11D808100
:1016D000803321F49A2D997EA92E09C0A2FE06C05E
:1016E000B394B39404C08A2D867809F0B394A3FC14
:1016F00011C0A0FE06C0B21488F4280C922C9B18CE
:101700000EC0B21460F4B60180E290E00E94110CA9
:10171000B394F7CFB21418F42B1802C0982C212CD4
:10172000A4FE10C0B60180E390E00E94110CA2FE5E
:1017300017C0A1FC03C088E790E002C088E590E0F4
:10174000B6010CC08A2D867859F0A1FE02C08BE24A
:1017500001C080E2A7FC8DE2B60190E00E94110C6E
:10176000891438F4B60180E390E00E94110C9A9439
:10177000F7CF8A94F301E80DF11D8081B60190E066
:101780000E94110C8110F5CF222009F442CEB6013F
:1017900080E290E00E94110C2A94F6CFF601868137
:1017A000978102C08FEF9FEF2B96E2E10C94F90C2A
:1017B0000F931F93CF93DF93869F8001879F100D18
:1017C000969F100D1124C8010E941908EC01009782
:1017D00029F0A80160E070E00E94FF0BCE01DF91CC
:1017E000CF911F910F910895FC01059061507040B9
:1017F0000110D8F7809590958E0F9F1F0895DC01FA
:1018000001C06D9341505040E0F70895FC016150D4
:10181000704001900110D8F7809590958E0F9F1F12
:1018200008950F931F93CF93DF93FB01238121FD35
:1018300003C08FEF9FEF2CC022FF16C04681578157
:10184000248135814217530744F4A081B1819D0161
:101850002F5F3F4F318320838C93268137812F5F09
:101860003F4F3783268314C08B01EC01FB010084BA
:10187000F185E02D0995892BE1F6D80116968D9119
:101880009C911797019617969C938E931697CE016D
:10189000DF91CF911F910F910895FA01AA27283067
:1018A00051F1203181F1E8946F936E7F6E5F7F4F2D
:1018B0008F4F9F4FAF4FB1E03ED0B4E03CD0670FA9
:1018C000781F891F9A1FA11D680F791F8A1F911DFC
:1018D000A11D6A0F711D811D911DA11D20D009F44C
:1018E00068943F912AE0269F11243019305D31938E
:1018F000DEF6CF010895462F4770405D4193B3E077
:101900000FD0C9F7F6CF462F4F70405D4A3318F01D
:10191000495D31FD4052419302D0A9F7EACFB4E0CE
:10192000A6959795879577956795BA95C9F7009786
:101930006105710508959B01AC010A2E0694579527
:10194000479537952795BA95C9F7620F731F841F7E
:10195000951FA01D0895052E97FB1EF400940E946C
:10196000C20C57FD07D00E94140D07FC03D04EF4A3
:101970000C94C20C50954095309521953F4F4F4F98
:101980005F4F089590958095709561957F4F8F4F2B
:101990009F4F08950E94360DA59F900DB49F900D06
:1019A000A49F800D911D11240895B7FF0C94CA0CBB
:1019B0000E94CA0C821B930B08952F923F924F9264
:1019C0005F926F927F928F929F92AF92BF92CF92CF
:1019D000DF92EF92FF920F931F93CF93DF93CDB7D8
:1019E000DEB7CA1BDB0B0FB6F894DEBF0FBECDBF50
:1019F00009942A88398848885F846E847D848C8421
:101A00009B84AA84B984C884DF80EE80FD800C8129
:101A10001B81AA81B981CE0FD11D0FB6F894DEBF0C
:101A20000FBECDBFED010895A1E21A2EAA1BBB1B6C
:101A3000FD010DC0AA1FBB1FEE1FFF1FA217B3079A
:101A4000E407F50720F0A21BB30BE40BF50B661FB0
:101A5000771F881F991F1A9469F760957095809574
:101A600090959B01AC01BD01CF010895A29FB001EB
:101A7000B39FC001A39F700D811D1124911DB29FC2
:0E1A8000700D811D1124911D0895F894FFCF63
:101A8E000000E60120000100000003000100436F8A
:101A9E00756E7465723A202564200A0047414D45E3
:101AAE00204C49564521004C495645533A200031A9
:101ABE00003200330034003500736C6964657220A7
:101ACE003120256420736C69646572203220256490
:101ADE000A004D435021636F6E6669672F4D435068
:101AEE005F43414E53544154202578200D0A004D3A
:101AFE0061696E204D656E750053544152542047F6
:101B0E00414D4500535441525400504C41592047C9
:101B1E00414D4500444946464943554C4954593A6E
:101B2E000045415359004D454449554D00484152D9
:101B3E0044004849474853434F52455300256420BB
:101B4E007472796D004D41494E5F4D454E55000002
:00000001FF
