:100000000C94B4010C94D1010C94D1010C94D10145
:100010000C94D1010C94D1010C94D1010C94D10118
:100020000C94D1010C94D1010C94D1010C94D10108
:100030000C94D1010C94D1010C94D1010C94D101F8
:100040000C94D1010C94D1010C94D1010C94D101E8
:100050000C94D1010C94D1010C94D1010C94D101D8
:100060000C94D1010C94D1010C94D1010C94D101C8
:10007000000000000000000000065F5F06000000B6
:100080000007070007070000147F7F147F7F14001C
:10009000242E6B6B3A120000466630180C66620024
:1000A000307A4F5D377A48000407030000000000F3
:1000B000001C3E63410000000041633E1C00000044
:1000C000082A3E1C1C3E2A0808083E3E080800007C
:1000D00000A0E06000000000080808080808000010
:1000E00000006060000000006030180C0603010092
:1000F0003E7F594D7F3E000042427F7F40400000DE
:10010000627359496F660000226349497F360000D7
:10011000181C16137F7F1000276745457D390000A6
:100120003C7E4B4979300000036371190F070000D2
:10013000367F49497F360000064F49693F1E00005F
:1001400000006C6C0000000000A0EC6C00000000DF
:10015000081C366341000000141414141414000029
:10016000004163361C080000020351590F060000CD
:100170003E7F415D5D1F1E007C7E13137E7C000070
:10018000417F7F49497F36001C3E63414163220025
:10019000417F7F41637F1C00417F7F495D41630058
:1001A000417F7F491D0103001C3E63415173720072
:1001B0007F7F08087F7F000000417F7F41000000B3
:1001C000307040417F3F0100417F7F081C77630012
:1001D000417F7F41406070007F7F060C067F7F007B
:1001E0007F7F060C187F7F001C3E6341633E1C002E
:1001F000417F7F49090F06001E3F21717F5E00008D
:10020000417F7F19396F460026674D597B320000C8
:1002100003417F7F410300007F7F40407F7F0000DC
:100220001F3F60603F1F00007F7F3018307F7F00DE
:1002300063771C081C776300074F78784F0700002E
:100240006773594D47637100007F7F414100000093
:100250000103060C183060000041417F7F00000060
:10026000080C0603060C0800808080808080808057
:100270000000030704000000207454543C78400040
:10028000413F7F44447C3800387C44446C28000063
:10029000307848493F7F4000387C54545C18000057
:1002A000487E7F490302000098BCA4A4F87C0400A7
:1002B000417F7F08047C780000447D7D4000000081
:1002C00040C484FD7D000000417F7F10386C4400F5
:1002D00000417F7F400000007C7C0C180C7C780083
:1002E0007C7C04047C780000387C44447C3800002A
:1002F00084FCF8A4243C1800183C24A4F8FC8400D6
:10030000447C78441C180000485C54547424000059
:1003100000043E7F442400003C7C40403C7C400084
:100320001C3C60603C1C00003C7C6030607C3C00FD
:10033000446C3810386C44009CBCA0A0FC7C0000CD
:100340004C64745C4C64000008083E774141000036
:1003500000000077770000004141773E0808000068
:10036000020301030203010011241FBECFEFD4E0FA
:10037000DEBFCDBF11E0A0E0B1E0E6EDF7E102C0E5
:1003800005900D92A639B107D9F721E0A6E9B1E0B1
:1003900001C01D92A83AB207E1F70E941E030C9417
:1003A000E90B0C940000FC010FB6F8946091A401D5
:1003B0007091A5018091A6019091A7010FBE309781
:1003C00021F0608371838283938308950E9498044F
:1003D00083EC99E00197F1F700C0000065E088E246
:1003E0000E94430461EB89E20E94430463E08AE2D5
:1003F0000E94430480E00E94B60441E06FEF8BE26C
:100400000E94760408950F931F93CF93DF938C017E
:10041000FC01608166956695669581E30E944304C0
:10042000F8016081F0E26F9FB001112482E30E9425
:100430004304F801618185E30E944304C0E0D0E0F9
:1004400009C0F801EC0FFD1F62818C2F8A5C0E94AD
:1004500043042196F801818190E0C817D9078CF3F5
:1004600080E090E00E945704DF91CF911F910F919F
:100470000895CF93DF93EC014883623059F028F45C
:10048000662389F0613061F013C0633031F064306D
:1004900061F00EC082E08A830FC083E08A830CC0C3
:1004A00081E08A8309C01A8207C084E08A8304C07D
:1004B0008AE091E00E946B0881E08983CE01DF91A0
:1004C000CF9108959C0191B3906191BBEBE8F0E06E
:1004D000908190649083EAE8F0E090819860908346
:1004E0003093870020938600808181608083089507
:1004F000E0E0F4E184E8808386E08A95F1F700C0CB
:10050000208130E0205A310944E6429FC001439FD8
:10051000900D11246FE770E00E946506CB0118165C
:10052000190664F424E6269FC001279F900D11242C
:1005300063E470E00E946506CB01089599235CF4A2
:1005400024E6269FC001279F900D112465E870E0E6
:100550000E946506CB010895E0E0F4E181E8808324
:1005600086E08A95F1F700C0208130E0225A3109F7
:1005700044E6429FC001439F900D11246FE770E055
:100580000E946506CB011816190664F424E6269F1E
:10059000C001279F900D112461E470E00E94650660
:1005A000CB01089599235CF424E6269FC001279F80
:1005B000900D112467E870E00E946506CB01089554
:1005C000CF93DF930E947802EC010E94AC029E015F
:1005D000DD2324F4222733272C1B3D0BAC01992368
:1005E00024F444275527481B590B241735075CF082
:1005F000CE0109964397A0F0CF3C2FEFD20794F09D
:10060000E29794F40CC09C01275F3F4F23313105E2
:1006100068F08E3C2FEF92075CF0C3975CF40BC040
:1006200084E009C080E007C081E005C084E003C029
:1006300083E001C082E0DF91CF910895CF93DF93F3
:10064000CDB7DEB764970FB6F894DEBF0FBECDBF4F
:1006500080E090E00E94D301CB010E94FF0781E877
:1006600090E00E94BC048FE790E00E94BC0483EEFF
:1006700090E00E94BC048FEA90E00E94BC0480E2FB
:1006800090E00E94BC0482E090E00E94BC048AE2F8
:1006900090E00E94BC048EEA90E00E94BC048FE1CE
:1006A00090E00E9458060E94480680E090E00E9478
:1006B00062020E943B050E94C2040E94E6012FEBE9
:1006C00084ED91E0215080409040E1F700C00000AF
:1006D0000E94E00241E0682FCE010B960E94390291
:1006E0008AE0FE013B96DE01119601900D928A95FB
:1006F000E1F7CE0101960E94030287EA91E6019795
:10070000F1F700C000000E9478028E3C9F4F94F4E5
:100710008091960190919701181619065CF48091CA
:10072000960190919701019790939701809396017C
:100730000E943B058091960190919701892B11F4BD
:100740000E94D5050E94AC028E3C9F4F4CF58091D3
:1007500098019091990107971CF5809198019091CB
:100760009901019690939901809398018091980145
:100770009091990160E070E00E94A7058091980136
:100780009091990160E070E001970E94BE058FE9A9
:1007900096E821E0815090402040E1F700C0000041
:1007A0000E94AC02C39754F18091980190919901F5
:1007B000181619061CF580919801909199010197DE
:1007C000909399018093980180919801909199015B
:1007D00060E070E00E94A7058091980190919901D6
:1007E00060E070E001960E94BE058FE996E821E086
:1007F000815090402040E1F700C000000E94780244
:10080000C39774F08091980190919901059741F4F4
:100810000E94120681E090E09093970180939601E8
:100820000E947802C39774F0809198019091990189
:10083000029741F40E94120681E090E090939701A4
:10084000809396010E947802C3970CF441CF809167
:10085000980190919901059709F03ACF0E941206EC
:1008600037CFCF93C82F0E94440683E00E942F0603
:100870008C2F0E942F060E943306C82F0E94390633
:100880008C2FCF910895CF93DF93D82FC62F0E943E
:10089000440682E00E942F068D2F0E942F068C2F87
:1008A0000E942F060E943906DF91CF910895CF93C1
:1008B000DF93EC010E944406CE0163E070E00E94E9
:1008C0006506009739F08130910531F0029731F0DB
:1008D00081E805C081E803C082E801C084E80E9485
:1008E0002F060E943906DF91CF9108951F93CF9371
:1008F000DF93182FD62FC42F0E94440685E00E9454
:100900002F06812F0E942F068D2F0E942F068C2FDD
:100910000E942F060E943906DF91CF911F91089502
:100920000E94440680EC0E942F060E94390608951A
:100930000E943D060E94900489EF90E00197F1F734
:1009400000C000008EE00E943104982F907E903805
:1009500061F01F928F938CE291E09F938F930E949E
:1009600055080F900F900F900F900895482F60EE4C
:100970008FE00E947604089580930010089580937C
:100980000012089581EA90E00E94BC048AED90E094
:100990000E94BC0482E190E00E94BC0488EC90E0DC
:1009A0000E94BC0488EA90E00E94BC048FE390E0BF
:1009B0000E94BC0485ED90E00E94BC0480E890E0B9
:1009C0000E94BC0481E890E00E94BC0480E590E0B5
:1009D0000E94BC0489ED90E00E94BC0481E290E09A
:1009E0000E94BC0480E290E00E94BC0482E090E09F
:1009F0000E94BC048BED90E00E94BC0480E390E078
:100A00000E94BC048DEA90E00E94BC0480E090E06B
:100A10000E94BC0484EA90E00E94BC0486EA90E054
:100A20000E94BC048FEA90E00E94BC0408958055A7
:100A30009F4F0E94BC040895CF93DF93EC018F7009
:100A40009078992324F40197806F9F6F01960E94FC
:100A5000BC04CE01DD230CF40F96959587959595F2
:100A60008795959587959595879540960E94BC04A6
:100A7000DF91CF9108950F931F93CF93DF9300E001
:100A800010E014C0C8010E94170580E090E00E94A9
:100A90001C05C0E0D0E005C080E090E00E94BF04EB
:100AA0002196C038D105C4F30F5F1F4F08301105E0
:100AB0004CF3DF91CF911F910F910895CF93DF9366
:100AC000EB010E941705CE010E941C05DF91CF911A
:100AD00008951F93CF93DF9310EE180FC0E0D0E07E
:100AE00011C0E12FF0E0EE0FFF1FEE0FFF1FEE0F22
:100AF000FF1FEC0FFD1FE059FF4F849190E00E9413
:100B0000BF042196C830D10564F3DF91CF911F91C6
:100B100008950F931F93CF93DF938C01C0E0D0E033
:100B200007C0F801EC0FFD1F80810E946905219626
:100B3000F80101900020E9F73197E01BF10BCE1787
:100B4000DF0778F3DF91CF911F910F9108950E94F5
:100B50005E0588E190E00E94BF0488E190E00E9479
:100B6000BF048EE790E00E94BF048CE390E00E94F7
:100B7000BF0488E190E00E94BF0408950E945E05D2
:100B800080E090E00E94BF0480E090E00E94BF04FB
:100B900080E090E00E94BF0480E090E00E94BF04EB
:100BA00080E090E00E94BF04089565E070E080E07E
:100BB00090E00E945E0581E991E00E94890565E070
:100BC00070E081E090E00E945E0583E591E00E9484
:100BD000890565E070E082E090E00E945E0584E6B1
:100BE00091E00E94890565E070E083E090E00E945A
:100BF0005E058BE691E00E94890565E070E084E087
:100C000090E00E945E0582E791E00E94890565E020
:100C100070E085E090E00E945E0589E791E00E9427
:100C200089050895CF93DF930E943B0560E070E053
:100C300080E090E00E945E05C0E0D0E00AC065E080
:100C400070E0CE010E945E0584E891E00E94890573
:100C50002196C630D1059CF3DF91CF9108958FB9CD
:100C6000779BFECF08958FEF8FB9779BFECF8FB123
:100C7000089588B3806188BB089580EB87BB81EDC0
:100C80008DB90E943906089588B38F7E88BB089578
:100C900085B7806885BF80B7806280BF08955D9BFF
:100CA000FECF8CB908955F9902C08CB10895089564
:100CB00090BD89B988E18AB98EE880BD63E576E0A8
:100CC0008FE496E00E940A08089597FB072E16F419
:100CD000009407D077FD09D00E94790607FC05D063
:100CE0003EF4909581959F4F0895709561957F4F43
:100CF0000895AA1BBB1B51E107C0AA1FBB1FA61763
:100D0000B70710F0A61BB70B881F991F5A95A9F7B4
:100D100080959095BC01CD0108950F931F93CF93BB
:100D2000DF938230910510F482E090E0E0919C0125
:100D3000F0919D0120E030E0A0E0B0E0309719F1A3
:100D4000408151810281138148175907C8F08417E7
:100D5000950769F4109731F012960C931297139639
:100D60001C9327C000939C0110939D0122C0211564
:100D7000310519F04217530718F49A01BD01EF012C
:100D8000DF01F801DBCF21153105F9F0281B390B04
:100D90002430310580F48A819B816115710521F031
:100DA000FB019383828304C090939D0180939C01F7
:100DB000FE01329644C0FE01E20FF31F819391932E
:100DC00022503109398328833AC020919A01309109
:100DD0009B01232B41F420910201309103013093B8
:100DE0009B0120939A01209100013091010121156E
:100DF000310541F42DB73EB74091040150910501F2
:100E0000241B350BE0919A01F0919B01E217F30747
:100E1000A0F42E1B3F0B2817390778F0AC014E5F6A
:100E20005F4F2417350748F04E0F5F1F50939B010B
:100E300040939A018193919302C0E0E0F0E0CF01EA
:100E4000DF91CF911F910F910895CF93DF9300977A
:100E500009F481C0FC01329713821282A0919C0197
:100E6000B0919D01109781F420813181820F931FF1
:100E700020919A0130919B012817390751F5F09381
:100E80009B01E0939A0167C0ED0120E030E0CE17AE
:100E9000DF0740F44A815B819E0141155105F1F065
:100EA000EA01F5CFD383C28340815181840F951F1E
:100EB000C817D90759F488819981840F951F029624
:100EC000918380838A819B8193838283211531055D
:100ED00029F4F0939D01E0939C013DC0E901FB835F
:100EE000EA8349915991C40FD51FEC17FD0761F4AE
:100EF00080819181840F951F0296E90199838883EF
:100F0000828193819B838A83E0E0F0E012968D9149
:100F10009C911397009719F0FD01DC01F7CF8D919B
:100F20009C9111979D012E5F3F4F820F931F20913F
:100F30009A0130919B012817390769F4309729F4F9
:100F400010929D0110929C0102C013821282B093F4
:100F50009B01A0939A01DF91CF9108958F929F9268
:100F6000AF92BF92CF92DF92EF92FF92CF93DF9337
:100F7000EC01688179818A819B8161157105810508
:100F8000910521F464E279ED8BE597E02DE133EFF3
:100F900041E050E00E944F0B49015A019B01AC0116
:100FA000A7EAB1E40E946E0B6B017C01ACEEB4EFDA
:100FB000A50194010E947C0BDC01CB018C0D9D1DD1
:100FC000AE1DBF1DB7FF03C00197A109B0488883BC
:100FD0009983AA83BB839F77DF91CF91FF90EF9096
:100FE000DF90CF90BF90AF909F908F9008950E9418
:100FF000AE07089586E091E00E94AE070895A0E054
:10100000B0E08093060190930701A0930801B0938C
:10101000090108950F931F93CF93DF93009731F445
:101020006115710519F480E090E03AC08B01EC0184
:101030006EE070E081E090E00E947C0AFC01892B68
:1010400091F380E883830115110571F013870287FE
:1010500081E8838380919E0190919F01892B21F4E7
:10106000F0939F01E0939E012097C9F0D187C0873C
:101070008381826083838091A0019091A101892B5B
:1010800071F4F093A101E093A0018091A2019091ED
:10109000A301892B21F4F093A301E093A201CF01D6
:1010A000DF91CF911F910F910895A0E0B0E0EBE5A3
:1010B000F8E00C94910BAE014B5F5F4FFA01619128
:1010C0007191AF018091A0019091A1010E949B08B4
:1010D000E2E00C94AD0B0F931F93CF93DF93E0915D
:1010E000A001F091A101238121FF1BC08C01D0E060
:1010F000C0E0F80181918F016091A0017091A10180
:10110000DB011896ED91FC911997882331F0099530
:10111000892B79F3DFEFCFEFECCF8AE00995892BAC
:1011200019F08FEF9FEF02C08D2F9C2FDF91CF9191
:101130001F910F910895ABE0B0E0E1EAF8E00C9464
:10114000810B6C017B018A01FC011782168283816D
:1011500081FFCCC1CE0101963C01F6019381F701DC
:1011600093FD859193FF81917F01882309F4BAC192
:10117000853239F493FD859193FF81917F0185320A
:1011800029F4B60190E00E94B50AE7CF912C212CFA
:10119000312CFFE1F315D8F08B3279F038F480323E
:1011A00079F08332A1F4232D20611DC08D3261F0CE
:1011B000803369F4232D216016C0832D8260382E80
:1011C000E32DE4603E2E2AC0F32DF8601DC037FCED
:1011D0002DC020ED280F2A3040F08E32B9F436FCB5
:1011E00081C1232D2064322E19C036FE06C08AE04C
:1011F000989E200D1124922E11C0EAE02E9E200D03
:101200001124222EF32DF0623F2E08C08C3621F4DB
:10121000832D8068382E02C0883641F4F70193FD93
:10122000859193FF81917F018111B3CF982F9F7D8D
:101230009554933028F40C5F1F4F9FE399830DC0A2
:10124000833631F0833771F0833509F059C021C0FE
:10125000F801808189830E5F1F4F88248394912C2D
:10126000530113C02801F2E04F0E511CF801A08079
:10127000B18036FE03C0692D70E002C06FEF7FEFD2
:10128000C5010E94AA0A4C018201F32DFF773F2E6F
:1012900016C0280122E0420E511CF801A080B18046
:1012A00036FE03C0692D70E002C06FEF7FEFC5010D
:1012B0000E94980A4C01F32DF0683F2E820133FC06
:1012C0001BC0822D90E088169906B0F4B60180E22A
:1012D00090E00E94B50A2A94F4CFF50137FC85917D
:1012E00037FE81915F01B60190E00E94B50A21109E
:1012F0002A9421E0821A91088114910471F7E8C0C0
:10130000843611F0893641F5F80137FE07C0608157
:101310007181828193810C5F1F4F08C06081718150
:10132000072E000C880B990B0E5F1F4FF32DFF76D5
:101330003F2E97FF09C090958095709561957F4FDE
:101340008F4F9F4FF0683F2E2AE030E0A3010E94AC
:10135000F10A882E861845C0853731F4232D2F7E5B
:10136000B22E2AE030E025C0932D997FB92E8F361A
:10137000C1F018F4883579F0B5C0803719F0883796
:1013800021F0B0C0E92FE061BE2EB4FE0DC0FB2DF0
:10139000F460BF2E09C034FE0AC0292F2660B22E89
:1013A00006C028E030E005C020E130E002C020E1C6
:1013B00032E0F801B7FE07C06081718182819381BC
:1013C0000C5F1F4F06C06081718180E090E00E5F6E
:1013D0001F4FA3010E94F10A882E8618FB2DFF776C
:1013E0003F2E36FE0DC0232D2E7FA22E891458F4D9
:1013F00034FE0BC032FC09C0832D8E7EA82E05C0A2
:10140000B82CA32C03C0B82C01C0B92CA4FE0FC06B
:10141000FE01E80DF11D8081803321F49A2D997E23
:10142000A92E09C0A2FE06C0B394B39404C08A2DAD
:10143000867809F0B394A3FC11C0A0FE06C0B214D4
:1014400088F4280C922C9B180EC0B21460F4B601DC
:1014500080E290E00E94B50AB394F7CFB21418F47A
:101460002B1802C0982C212CA4FE10C0B60180E3DA
:1014700090E00E94B50AA2FE17C0A1FC03C088E755
:1014800090E002C088E590E0B6010CC08A2D867815
:1014900059F0A1FE02C08BE201C080E2A7FC8DE200
:1014A000B60190E00E94B50A891438F4B60180E3D1
:1014B00090E00E94B50A9A94F7CF8A94F301E80D60
:1014C000F11D8081B60190E00E94B50A8110F5CF30
:1014D000222009F442CEB60180E290E00E94B50AD3
:1014E0002A94F6CFF6018681978102C08FEF9FEF95
:1014F0002B96E2E10C949D0B0F931F93CF93DF93F8
:10150000869F8001879F100D969F100D1124C801A2
:101510000E948D06EC01009729F0A80160E070E0C0
:101520000E94A30ACE01DF91CF911F910F910895E0
:10153000FC010590615070400110D8F7809590959E
:101540008E0F9F1F0895DC0101C06D9341505040E4
:10155000E0F70895FC016150704001900110D8F748
:10156000809590958E0F9F1F08950F931F93CF9393
:10157000DF93FB01238121FD03C08FEF9FEF2CC080
:1015800022FF16C0468157812481358142175307B7
:1015900044F4A081B1819D012F5F3F4F31832083AF
:1015A0008C93268137812F5F3F4F3783268314C06A
:1015B0008B01EC01FB010084F185E02D0995892B5D
:1015C000E1F6D80116968D919C9117970196179682
:1015D0009C938E931697CE01DF91CF911F910F911F
:1015E0000895FA01AA27283051F1203181F1E894B9
:1015F0006F936E7F6E5F7F4F8F4F9F4FAF4FB1E006
:101600003ED0B4E03CD0670F781F891F9A1FA11D00
:10161000680F791F8A1F911DA11D6A0F711D811D01
:10162000911DA11D20D009F468943F912AE0269FC6
:1016300011243019305D3193DEF6CF010895462F25
:101640004770405D4193B3E00FD0C9F7F6CF462F06
:101650004F70405D4A3318F0495D31FD405241936F
:1016600002D0A9F7EACFB4E0A6959795879577952C
:101670006795BA95C9F700976105710508959B01B3
:10168000AC010A2E06945795479537952795BA953C
:10169000C9F7620F731F841F951FA01D0895052EA3
:1016A00097FB1EF400940E94660B57FD07D00E9422
:1016B000B80B07FC03D04EF40C94660B5095409584
:1016C000309521953F4F4F4F5F4F089590958095EE
:1016D000709561957F4F8F4F9F4F08950E94DA0B51
:1016E000A59F900DB49F900DA49F800D911D112476
:1016F0000895B7FF0C946E0B0E946E0B821B930B28
:1017000008952F923F924F925F926F927F928F92A5
:101710009F92AF92BF92CF92DF92EF92FF920F9380
:101720001F93CF93DF93CDB7DEB7CA1BDB0B0FB68A
:10173000F894DEBF0FBECDBF09942A883988488847
:101740005F846E847D848C849B84AA84B984C884DD
:10175000DF80EE80FD800C811B81AA81B981CE0FD4
:10176000D11D0FB6F894DEBF0FBECDBFED010895B9
:10177000A1E21A2EAA1BBB1BFD010DC0AA1FBB1F95
:10178000EE1FFF1FA217B307E407F50720F0A21B07
:10179000B30BE40BF50B661F771F881F991F1A9474
:1017A00069F760957095809590959B01AC01BD019E
:1017B000CF010895A29FB001B39FC001A39F700DF8
:1017C000811D1124911DB29F700D811D1124911D49
:0617D0000895F894FFCF1C
:1017D6000000A8012000010000000A4552524F52A5
:1017E6002C20696E707574206E6F742061206A6F8C
:1017F60079737469636B2074797065004D43502169
:10180600636F6E6669672F4D43505F43414E535475
:101816004154202578200D0A004D61696E204D65E2
:101826006E750053544152542047414D4500535460
:101836004152540044494646203100444946462018
:101846003200444946462033004849474853434FEF
:10185600524553002564207472796D004D41494EFE
:061866005F4D454E5500E8
:00000001FF
