S0110000627967676572656E322E737265638E
S11300000C94B4010C94D1010C94D1010C94D10141
S11300100C94D1010C94D1010C94D1010C94D10114
S11300200C94D1010C94D1010C94D1010C94D10104
S11300300C94D1010C94D1010C94D1010C94D101F4
S11300400C94D1010C94D1010C94D1010C94D101E4
S11300500C94D1010C94D1010C94D1010C94D101D4
S11300600C94D1010C94D1010C94D1010C94D101C4
S1130070000000000000000000065F5F06000000B2
S11300800007070007070000147F7F147F7F140018
S1130090242E6B6B3A120000466630180C66620020
S11300A0307A4F5D377A48000407030000000000EF
S11300B0001C3E63410000000041633E1C00000040
S11300C0082A3E1C1C3E2A0808083E3E0808000078
S11300D000A0E0600000000008080808080800000C
S11300E000006060000000006030180C060301008E
S11300F03E7F594D7F3E000042427F7F40400000DA
S1130100627359496F660000226349497F360000D3
S1130110181C16137F7F1000276745457D390000A2
S11301203C7E4B4979300000036371190F070000CE
S1130130367F49497F360000064F49693F1E00005B
S113014000006C6C0000000000A0EC6C00000000DB
S1130150081C366341000000141414141414000025
S1130160004163361C080000020351590F060000C9
S11301703E7F415D5D1F1E007C7E13137E7C00006C
S1130180417F7F49497F36001C3E63414163220021
S1130190417F7F41637F1C00417F7F495D41630054
S11301A0417F7F491D0103001C3E6341517372006E
S11301B07F7F08087F7F000000417F7F41000000AF
S11301C0307040417F3F0100417F7F081C7763000E
S11301D0417F7F41406070007F7F060C067F7F0077
S11301E07F7F060C187F7F001C3E6341633E1C002A
S11301F0417F7F49090F06001E3F21717F5E000089
S1130200417F7F19396F460026674D597B320000C4
S113021003417F7F410300007F7F40407F7F0000D8
S11302201F3F60603F1F00007F7F3018307F7F00DA
S113023063771C081C776300074F78784F0700002A
S11302406773594D47637100007F7F41410000008F
S11302500103060C183060000041417F7F0000005C
S1130260080C0603060C0800808080808080808053
S11302700000030704000000207454543C7840003C
S1130280413F7F44447C3800387C44446C2800005F
S1130290307848493F7F4000387C54545C18000053
S11302A0487E7F490302000098BCA4A4F87C0400A3
S11302B0417F7F08047C780000447D7D400000007D
S11302C040C484FD7D000000417F7F10386C4400F1
S11302D000417F7F400000007C7C0C180C7C78007F
S11302E07C7C04047C780000387C44447C38000026
S11302F084FCF8A4243C1800183C24A4F8FC8400D2
S1130300447C78441C180000485C54547424000055
S113031000043E7F442400003C7C40403C7C400080
S11303201C3C60603C1C00003C7C6030607C3C00F9
S1130330446C3810386C44009CBCA0A0FC7C0000C9
S11303404C64745C4C64000008083E774141000032
S113035000000077770000004141773E0808000064
S1130360020301030203010011241FBECFEFD4E0F6
S1130370DEBFCDBF11E0A0E0B1E0ECE9F7E102C0DF
S113038005900D92A038B107D9F721E0A0E8B1E0BB
S113039001C01D92A439B207E1F70E940F030C9427
S11303A0CC0B0C940000FC010FB6F8946091900102
S11303B07091910180919201909193010FBE3097B9
S11303C021F0608371838283938308950E94AB0438
S11303D083EC99E00197F1F700C0000065E088E242
S11303E00E94560461EB89E20E94560463E08AE2AB
S11303F00E94560480E00E94C90441E06FEF8BE242
S11304000E94890408950F931F93CF93DF938C0167
S1130410FC01608166956695669581E30E945604A9
S1130420F8016081F0E26F9FB001112482E30E9421
S11304305604F801618185E30E945604C0E0D0E0CF
S113044009C0F801EC0FFD1F62818C2F8A5C0E94A9
S113045056042196F801818190E0C817D9078CF3DE
S113046080E090E00E946A04DF91CF911F910F9188
S113047008950F931F93CF93DF93EC0184E1888356
S11304800E9469028C01035A1F4F0E949D02825AE6
S11304909F4F92E099830A838B83CE01DF91CF91A2
S11304A01F910F9108959C0191B3906191BBEBE86A
S11304B0F0E0908190649083EAE8F0E090819860A5
S11304C090833093870020938600808181608083AD
S11304D00895E0E0F4E184E8808386E08A95F1F70A
S11304E000C0208130E0205A310944E6429FC00117
S11304F0439F900D11246FE770E00E947806CB01B2
S11305001816190664F424E6269FC001279F900D4F
S1130510112463E470E00E947806CB0108959923C6
S11305205CF424E6269FC001279F900D112465E802
S113053070E00E947806CB010895E0E0F4E181E8E0
S1130540808386E08A95F1F700C0208130E0225A4A
S1130550310944E6429FC001439F900D11246FE787
S113056070E00E947806CB011816190664F424E69C
S1130570269FC001279F900D112461E470E00E9422
S11305807806CB01089599235CF424E6269FC001E4
S1130590279F900D112467E870E00E947806CB0134
S11305A00895E0E0F4E183E8808386E08A95F1F73A
S11305B000C0808190E00895E0E0F4E182E8808367
S11305C086E08A95F1F700C0808190E0089586B3B3
S11305D0827090E0089586B3847090E00895FF924D
S11305E00F931F93CF93DF93EC0184E089838EE113
S11305F088830E94E702F82E0E94EB02082F0E94D3
S1130600D102182F0E94DC02FA820B831C838D8393
S1130610CE01DF91CF911F910F91FF900895CF9359
S1130620DF93CDB7DEB76E970FB6F894DEBF0FBE7B
S1130630CDBF80E090E00E94D301CB010E9412085C
S113064081E890E00E94CF048FE790E00E94CF04FD
S113065083EE90E00E94CF048FEA90E00E94CF04E2
S113066080E290E00E94CF0482E090E00E94CF04F8
S11306708AE290E00E94CF048EEA90E00E94CF04C8
S11306808FE190E00E946B060E945B0680E090E0A0
S11306900E9453020E944E050E94D5040E94E60166
S11306A080E00E94C9042FEB84ED91E0215080404A
S11306B09040E1F700C00000809180019091810199
S11306C00197A1F50E944E0560E070E080E090E0A3
S11306D00E9471058AE091E00E949C05CE01459636
S11306E00E9439028AE0FE017596DE01119601909E
S11306F00D928A95E1F7CE0101960E94030283EDE3
S113070090E30197F1F700C00000CE0145960E94E6
S1130710EF028AE0FE017596DE011B9601900D92B0
S11307208A95E1F7CE010B960E9403028091800125
S113073090918101892B09F09DC00E9469028E3C31
S11307409F4F94F4809182019091830118161906A9
S11307505CF48091820190918301019790938301CD
S1130760809382010E944E058091820190918301C1
S1130770892B11F40E94E8050E949D028E3C9F4F34
S11307804CF5809184019091850107971CF5809127
S11307908401909185010196909385018093840151
S11307A0809184019091850160E070E00E94BA0517
S11307B0809184019091850160E070E001970E942E
S11307C0D1058FE996E821E0815090402040E1F77F
S11307D000C000000E949D02C39754F180918401DF
S11307E090918501181619061CF580918401909149
S11307F08501019790938501809384018091840100
S11308009091850160E070E00E94BA0580918401B6
S11308109091850160E070E001960E94D1058FE916
S113082096E821E0815090402040E1F700C00000AC
S11308300E946902C39774F08091840190918501AC
S1130840059741F40E94250681E090E0909383018E
S1130850809382010E946902C39764F080918401AD
S113086090918501019731F481E090E090938101AA
S1130870809380018FE996E821E0815090402040E8
S1130880E1F700C0000018CFCF93C82F0E9457068D
S113089083E00E9442068C2F0E9442060E94460674
S11308A0C82F0E944C068C2FCF910895CF93DF93CD
S11308B0D82FC62F0E94570682E00E9442068D2F31
S11308C00E9442068C2F0E9442060E944C06DF9131
S11308D0CF910895CF93DF93EC010E945706CE0188
S11308E063E070E00E947806009739F0813091054A
S11308F031F0029731F081E805C081E803C082E855
S113090001C084E80E9442060E944C06DF91CF9108
S113091008951F93CF93DF93182FD62FC42F0E94CF
S1130920570685E00E944206812F0E9442068D2FC1
S11309300E9442068C2F0E9442060E944C06DF91C0
S1130940CF911F9108950E94570680EC0E944206A1
S11309500E944C0608950E9450060E94A30489EF49
S113096090E00197F1F700C000008EE00E9444047B
S1130970982F907E903861F01F928F9385E191E0DB
S11309809F938F930E9468080F900F900F900F9081
S11309900895482F60EE8FE00E94890408958093A3
S11309A00010089580930012089581EA90E00E9457
S11309B0CF048AED90E00E94CF0482E190E00E948F
S11309C0CF0488EC90E00E94CF0488EA90E00E9473
S11309D0CF048FE390E00E94CF0485ED90E00E9465
S11309E0CF0480E890E00E94CF0481E890E00E9468
S11309F0CF0480E590E00E94CF0489ED90E00E944E
S1130A00CF0481E290E00E94CF0480E290E00E9453
S1130A10CF0482E090E00E94CF048BED90E00E942E
S1130A20CF0480E390E00E94CF048DEA90E00E941E
S1130A30CF0480E090E00E94CF0484EA90E00E941A
S1130A40CF0486EA90E00E94CF048FEA90E00E94EF
S1130A50CF04089580559F4F0E94CF040895CF93EB
S1130A60DF93EC018F709078992324F40197806FC1
S1130A709F6F01960E94CF04CE01DD230CF40F96E4
S1130A80959587959595879595958795959587954A
S1130A9040960E94CF04DF91CF9108950F931F9346
S1130AA0CF93DF9300E010E014C0C8010E942A0530
S1130AB080E090E00E942F05C0E0D0E005C080E017
S1130AC090E00E94D2042196C038D105C4F30F5F90
S1130AD01F4F083011054CF3DF91CF911F910F91F7
S1130AE00895CF93DF93EB010E942A05CE010E9463
S1130AF02F05DF91CF9108951F93CF93DF9310EECD
S1130B00180FC0E0D0E011C0E12FF0E0EE0FFF1F9E
S1130B10EE0FFF1FEE0FFF1FEC0FFD1FE059FF4FFD
S1130B20849190E00E94D2042196C830D10564F3E8
S1130B30DF91CF911F9108950F931F93CF93DF936C
S1130B408C01C0E0D0E007C0F801EC0FFD1F8081EC
S1130B500E947C052196F80101900020E9F7319765
S1130B60E01BF10BCE17DF0778F3DF91CF911F91D4
S1130B700F9108950E94710588E190E00E94D204CB
S1130B8088E190E00E94D2048EE790E00E94D204B3
S1130B908CE390E00E94D20488E190E00E94D204A9
S1130BA008950E94710580E090E00E94D20480E0E4
S1130BB090E00E94D20480E090E00E94D20480E0A1
S1130BC090E00E94D20480E090E00E94D204089554
S1130BD065E070E080E090E00E9471058AE791E0B2
S1130BE00E949C0565E070E081E090E00E94710540
S1130BF08CE391E00E949C0565E070E082E090E067
S1130C000E9471058DE491E00E949C0565E070E00E
S1130C1083E090E00E94710584E591E00E949C05C8
S1130C2065E070E084E090E00E9471058BE591E05E
S1130C300E949C0565E070E085E090E00E947105EB
S1130C4082E691E00E949C050895CF93DF930E9471
S1130C504E0560E070E080E090E00E947105C0E025
S1130C60D0E00AC065E070E0CE010E9471058DE617
S1130C7091E00E949C052196C630D1059CF3DF913A
S1130C80CF9108958FB9779BFECF08958FEF8FB9D9
S1130C90779BFECF8FB1089588B3806188BB089598
S1130CA080EB87BB81ED8DB90E944C06089588B313
S1130CB08F7E88BB089585B7806885BF80B78062C2
S1130CC080BF08955D9BFECF8CB908955F9902C0E3
S1130CD08CB10895089590BD89B988E18AB98EE8E8
S1130CE080BD66E676E082E696E00E941D080895DF
S1130CF097FB072E16F4009407D077FD09D00E94C5
S1130D008C0607FC05D03EF4909581959F4F08957D
S1130D10709561957F4F0895AA1BBB1B51E107C0D5
S1130D20AA1FBB1FA617B70710F0A61BB70B881F77
S1130D30991F5A95A9F780959095BC01CD01089506
S1130D400F931F93CF93DF938230910510F482E0C9
S1130D5090E0E0918801F091890120E030E0A0E08A
S1130D60B0E0309719F14081518102811381481715
S1130D705907C8F08417950769F4109731F0129653
S1130D800C93129713961C9327C000938801109319
S1130D90890122C02115310519F04217530718F4AF
S1130DA09A01BD01EF01DF01F801DBCF2115310507
S1130DB0F9F0281B390B2430310580F48A819B819A
S1130DC06115710521F0FB019383828304C0909324
S1130DD0890180938801FE01329644C0FE01E20F2E
S1130DE0F31F8193919322503109398328833AC0A8
S1130DF02091860130918701232B41F42091020137
S1130E0030910301309387012093860120910001E2
S1130E10309101012115310541F42DB73EB74091C0
S1130E20040150910501241B350BE0918601F091DA
S1130E308701E217F307A0F42E1B3F0B281739078D
S1130E4078F0AC014E5F5F4F2417350748F04E0F22
S1130E505F1F50938701409386018193919302C051
S1130E60E0E0F0E0CF01DF91CF911F910F91089561
S1130E70CF93DF93009709F481C0FC01329713826A
S1130E801282A0918801B0918901109781F4208188
S1130E903181820F931F2091860130918701281799
S1130EA0390751F5F0938701E093860167C0ED019E
S1130EB020E030E0CE17DF0740F44A815B819E01D9
S1130EC041155105F1F0EA01F5CFD383C283408186
S1130ED05181840F951FC817D90759F488819981C6
S1130EE0840F951F0296918380838A819B819383CB
S1130EF082832115310529F4F0938901E093880157
S1130F003DC0E901FB83EA8349915991C40FD51F80
S1130F10EC17FD0761F480819181840F951F02967F
S1130F20E90199838883828193819B838A83E0E0AA
S1130F30F0E012968D919C911397009719F0FD01A2
S1130F40DC01F7CF8D919C9111979D012E5F3F4F4E
S1130F50820F931F2091860130918701281739074A
S1130F6069F4309729F4109289011092880102C023
S1130F7013821282B0938701A0938601DF91CF91EF
S1130F8008958F929F92AF92BF92CF92DF92EF9289
S1130F90FF92CF93DF93EC01688179818A819B81F1
S1130FA0611571058105910521F464E279ED8BE504
S1130FB097E02DE133EF41E050E00E94320B49010C
S1130FC05A019B01AC01A7EAB1E40E94510B6B01E9
S1130FD07C01ACEEB4EFA50194010E945F0BDC012F
S1130FE0CB018C0D9D1DAE1DBF1DB7FF03C0019726
S1130FF0A109B04888839983AA83BB839F77DF9133
S1131000CF91FF90EF90DF90CF90BF90AF909F90E3
S11310108F9008950E94C107089586E091E00E9490
S1131020C1070895A0E0B0E0809306019093070102
S1131030A0930801B093090108950F931F93CF93D0
S1131040DF93009731F46115710519F480E090E0A5
S11310503AC08B01EC016EE070E081E090E00E9408
S11310605F0AFC01892B91F380E883830115110544
S113107071F01387028781E8838380918A019091BC
S11310808B01892B21F4F0938B01E0938A01209743
S1131090C9F0D187C08783818260838380918C016A
S11310A090918D01892B71F4F0938D01E0938C0163
S11310B080918E0190918F01892B21F4F0938F01FF
S11310C0E0938E01CF01DF91CF911F910F9108958D
S11310D0A0E0B0E0EEE6F8E00C94740BAE014B5FD8
S11310E05F4FFA0161917191AF0180918C019091F0
S11310F08D010E947E08E2E00C94900BABE0B0E01E
S1131100E4E8F8E00C94640B6C017B018A01FC01B7
S113111017821682838181FFCCC1CE0101963C01E6
S1131120F6019381F70193FD859193FF81917F01EE
S1131130882309F4BAC1853239F493FD859193FF6C
S113114081917F01853229F4B60190E00E94980ACA
S1131150E7CF912C212C312CFFE1F315D8F08B3201
S113116079F038F4803279F08332A1F4232D2061B0
S11311701DC08D3261F0803369F4232D216016C0C7
S1131180832D8260382EE32DE4603E2E2AC0F32D99
S1131190F8601DC037FC2DC020ED280F2A3040F028
S11311A08E32B9F436FC81C1232D2064322E19C04D
S11311B036FE06C08AE0989E200D1124922E11C09E
S11311C0EAE02E9E200D1124222EF32DF0623F2EF4
S11311D008C08C3621F4832D8068382E02C08836EE
S11311E041F4F70193FD859193FF81917F01811172
S11311F0B3CF982F9F7D9554933028F40C5F1F4FE5
S11312009FE399830DC0833631F0833771F08335C2
S113121009F059C021C0F801808189830E5F1F4FF6
S113122088248394912C530113C02801F2E04F0EBB
S1131230511CF801A080B18036FE03C0692D70E016
S113124002C06FEF7FEFC5010E948D0A4C0182013D
S1131250F32DFF773F2E16C0280122E0420E511CC9
S1131260F801A080B18036FE03C0692D70E002C091
S11312706FEF7FEFC5010E947B0A4C01F32DF068EC
S11312803F2E820133FC1BC0822D90E08816990604
S1131290B0F4B60180E290E00E94980A2A94F4CF58
S11312A0F50137FC859137FE81915F01B60190E02D
S11312B00E94980A21102A9421E0821A910881142C
S11312C0910471F7E8C0843611F0893641F5F801CC
S11312D037FE07C060817181828193810C5F1F4F4B
S11312E008C060817181072E000C880B990B0E5F7A
S11312F01F4FF32DFF763F2E97FF09C090958095E1
S1131300709561957F4F8F4F9F4FF0683F2E2AE075
S113131030E0A3010E94D40A882E861845C0853780
S113132031F4232D2F7EB22E2AE030E025C0932DF8
S1131330997FB92E8F36C1F018F4883579F0B5C08D
S1131340803719F0883721F0B0C0E92FE061BE2E54
S1131350B4FE0DC0FB2DF460BF2E09C034FE0AC0DC
S1131360292F2660B22E06C028E030E005C020E117
S113137030E002C020E132E0F801B7FE07C060812E
S11313807181828193810C5F1F4F06C060817181DE
S113139080E090E00E5F1F4FA3010E94D40A882EC4
S11313A08618FB2DFF773F2E36FE0DC0232D2E7F92
S11313B0A22E891458F434FE0BC032FC09C0832DCC
S11313C08E7EA82E05C0B82CA32C03C0B82C01C057
S11313D0B92CA4FE0FC0FE01E80DF11D80818033FD
S11313E021F49A2D997EA92E09C0A2FE06C0B394B9
S11313F0B39404C08A2D867809F0B394A3FC11C079
S1131400A0FE06C0B21488F4280C922C9B180EC0BF
S1131410B21460F4B60180E290E00E94980AB3949A
S1131420F7CFB21418F42B1802C0982C212CA4FE68
S113143010C0B60180E390E00E94980AA2FE17C093
S1131440A1FC03C088E790E002C088E590E0B60103
S11314500CC08A2D867859F0A1FE02C08BE201C02F
S113146080E2A7FC8DE2B60190E00E94980A8914FC
S113147038F4B60180E390E00E94980A9A94F7CF7A
S11314808A94F301E80DF11D8081B60190E00E9479
S1131490980A8110F5CF222009F442CEB60180E2E9
S11314A090E00E94980A2A94F6CFF60186819781EB
S11314B002C08FEF9FEF2B96E2E10C94800B0F9309
S11314C01F93CF93DF93869F8001879F100D969F74
S11314D0100D1124C8010E94A006EC01009729F008
S11314E0A80160E070E00E94860ACE01DF91CF91EE
S11314F01F910F910895FC010590615070400110F7
S1131500D8F7809590958E0F9F1F0895DC0101C038
S11315106D9341505040E0F70895FC0161507040D4
S113152001900110D8F7809590958E0F9F1F089514
S11315300F931F93CF93DF93FB01238121FD03C0FE
S11315408FEF9FEF2CC022FF16C046815781248164
S113155035814217530744F4A081B1819D012F5F67
S11315603F4F318320838C93268137812F5F3F4FF8
S11315703783268314C08B01EC01FB010084F185C1
S1131580E02D0995892BE1F6D80116968D919C9151
S11315901797019617969C938E931697CE01DF9119
S11315A0CF911F910F910895FA01AA27283051F184
S11315B0203181F1E8946F936E7F6E5F7F4F8F4F80
S11315C09F4FAF4FB1E03ED0B4E03CD0670F781FDF
S11315D0891F9A1FA11D680F791F8A1F911DA11DC4
S11315E06A0F711D811D911DA11D20D009F46894FD
S11315F03F912AE0269F11243019305D3193DEF6A5
S1131600CF010895462F4770405D4193B3E00FD05A
S1131610C9F7F6CF462F4F70405D4A3318F0495D45
S113162031FD4052419302D0A9F7EACFB4E0A69528
S11316309795879577956795BA95C9F7009761054A
S1131640710508959B01AC010A2E069457954795A0
S113165037952795BA95C9F7620F731F841F951F95
S1131660A01D0895052E97FB1EF400940E94490BBB
S113167057FD07D00E949B0B07FC03D04EF40C943B
S1131680490B50954095309521953F4F4F4F5F4FF3
S1131690089590958095709561957F4F8F4F9F4FDA
S11316A008950E94BD0BA59F900DB49F900DA49F1B
S11316B0800D911D11240895B7FF0C94510B0E94C5
S11316C0510B821B930B08952F923F924F925F927E
S11316D06F927F928F929F92AF92BF92CF92DF923E
S11316E0EF92FF920F931F93CF93DF93CDB7DEB7A3
S11316F0CA1BDB0B0FB6F894DEBF0FBECDBF099437
S11317002A88398848885F846E847D848C849B848D
S1131710AA84B984C884DF80EE80FD800C811B819B
S1131720AA81B981CE0FD11D0FB6F894DEBF0FBECA
S1131730CDBFED010895A1E21A2EAA1BBB1BFD012A
S11317400DC0AA1FBB1FEE1FFF1FA217B307E4079C
S1131750F50720F0A21BB30BE40BF50B661F771FF4
S1131760881F991F1A9469F76095709580959095D4
S11317709B01AC01BD01CF010895A29FB001B39FAD
S1131780C001A39F700D811D1124911DB29F700D86
S10F1790811D1124911D0895F894FFCFD1
S113179C0000940120000100000047414D45204CFD
S11317AC49564521004D435021636F6E6669672F7E
S11317BC4D43505F43414E53544154202578200DE2
S11317CC0A004D61696E204D656E7500535441528B
S11317DC542047414D45005354415254004449460A
S11317EC46203100444946462032004449464620AE
S11317FC33004849474853434F524553002564200E
S113180C7472796D004D41494E5F4D454E55000043
S9030000FC
