S0110000627967676572656E322E737265638E
S11300000C94B4010C94D1010C94D1010C94D10141
S11300100C94D1010C94D1010C94D1010C94D10114
S11300200C94D1010C94D1010C94D1010C94D10104
S11300300C94D1010C94D1010C94D1010C94D101F4
S11300400C94D1010C94D1010C94D1010C94D101E4
S11300500C94D1010C94D1010C94D1010C94D101D4
S11300600C94D1010C94D1010C94D1010C94D101C4
S1130070000000000000000000065F5F06000000B2
S11300800007070007070000147F7F147F7F140018
S1130090242E6B6B3A120000466630180C66620020
S11300A0307A4F5D377A48000407030000000000EF
S11300B0001C3E63410000000041633E1C00000040
S11300C0082A3E1C1C3E2A0808083E3E0808000078
S11300D000A0E0600000000008080808080800000C
S11300E000006060000000006030180C060301008E
S11300F03E7F594D7F3E000042427F7F40400000DA
S1130100627359496F660000226349497F360000D3
S1130110181C16137F7F1000276745457D390000A2
S11301203C7E4B4979300000036371190F070000CE
S1130130367F49497F360000064F49693F1E00005B
S113014000006C6C0000000000A0EC6C00000000DB
S1130150081C366341000000141414141414000025
S1130160004163361C080000020351590F060000C9
S11301703E7F415D5D1F1E007C7E13137E7C00006C
S1130180417F7F49497F36001C3E63414163220021
S1130190417F7F41637F1C00417F7F495D41630054
S11301A0417F7F491D0103001C3E6341517372006E
S11301B07F7F08087F7F000000417F7F41000000AF
S11301C0307040417F3F0100417F7F081C7763000E
S11301D0417F7F41406070007F7F060C067F7F0077
S11301E07F7F060C187F7F001C3E6341633E1C002A
S11301F0417F7F49090F06001E3F21717F5E000089
S1130200417F7F19396F460026674D597B320000C4
S113021003417F7F410300007F7F40407F7F0000D8
S11302201F3F60603F1F00007F7F3018307F7F00DA
S113023063771C081C776300074F78784F0700002A
S11302406773594D47637100007F7F41410000008F
S11302500103060C183060000041417F7F0000005C
S1130260080C0603060C0800808080808080808053
S11302700000030704000000207454543C7840003C
S1130280413F7F44447C3800387C44446C2800005F
S1130290307848493F7F4000387C54545C18000053
S11302A0487E7F490302000098BCA4A4F87C0400A3
S11302B0417F7F08047C780000447D7D400000007D
S11302C040C484FD7D000000417F7F10386C4400F1
S11302D000417F7F400000007C7C0C180C7C78007F
S11302E07C7C04047C780000387C44447C38000026
S11302F084FCF8A4243C1800183C24A4F8FC8400D2
S1130300447C78441C180000485C54547424000055
S113031000043E7F442400003C7C40403C7C400080
S11303201C3C60603C1C00003C7C6030607C3C00F9
S1130330446C3810386C44009CBCA0A0FC7C0000C9
S11303404C64745C4C64000008083E774141000032
S113035000000077770000004141773E0808000064
S1130360020301030203010011241FBECFEFD4E0F6
S1130370DEBFCDBF11E0A0E0B1E0E6E8F9E102C0E4
S113038005900D92A63AB107D9F721E0A6EAB1E0AB
S113039001C01D92AC3BB207E1F70E947C030C94B0
S11303A0C10C0C940000FC010FB6F8946091B801E4
S11303B07091B9018091BA019091BB010FBE309741
S11303C021F0608371838283938308950E94A00542
S11303D083EC99E00197F1F700C0000065E088E242
S11303E00E944B0561EB89E20E944B0563E08AE2BF
S11303F00E944B0580E00E94BE0541E06FEF8BE256
S11304000E947E0508950F931F93CF93DF938C0171
S1130410FC01608166956695669581E30E944B05B3
S1130420F8016081F0E26F9FB001112482E30E9421
S11304304B05F801618185E30E944B05C0E0D0E0E3
S113044009C0F801EC0FFD1F62818C2F8A5C0E94A9
S11304504B052196F801818190E0C817D9078CF3E8
S113046080E090E00E945F05DF91CF911F910F9192
S113047008950F931F93CF93DF938C0182E60E941C
S11304803905C82FC295C695C77081E60E94390503
S1130490880F880F880FC80FF801C08385E60E9473
S11304A03905F8018183C0E0D0E009C08C2F8A5956
S11304B00E943905F801EC0FFD1F82832196F80193
S11304C0818190E0C817D9078CF3DF91CF911F91F8
S11304D00F9108950F931F93CF93DF93EC0184E161
S11304E088830E949A028C01035A1F4F0E94CE02F5
S11304F0825A9F4F92E099830A838B83CE01DF91C6
S1130500CF911F910F9108959C0191B3906191BB7C
S1130510EBE8F0E0908190649083EAE8F0E0908169
S11305209860908330938700209386008081816057
S113053080830895E0E0F4E184E8808386E08A958E
S1130540F1F700C0208130E0205A310944E6429F8F
S1130550C001439F900D11246FE770E00E946D0766
S1130560CB011816190664F424E6269FC001279FC0
S1130570900D112463E470E00E946D07CB0108958F
S113058099235CF424E6269FC001279F900D112433
S113059065E870E00E946D07CB010895E0E0F4E1A6
S11305A081E8808386E08A95F1F700C0208130E0FD
S11305B0225A310944E6429FC001439F900D112401
S11305C06FE770E00E946D07CB011816190664F4FA
S11305D024E6269FC001279F900D112461E470E05A
S11305E00E946D07CB01089599235CF424E6269FAD
S11305F0C001279F900D112467E870E00E946D07E9
S1130600CB010895E0E0F4E183E8808386E08A95F5
S1130610F1F700C0808190E00895E0E0F4E182E821
S1130620808386E08A95F1F700C0808190E0089588
S113063086B3827090E0089586B3847090E0089544
S11306401F93CF93DF93EC0184E089838EE1888349
S11306500E941803182F0E941C031A838B83CE0157
S1130660DF91CF911F9108950F931F93CF93DF9341
S113067000D000D0CDB7DEB78C0184E0F8018183CF
S113068088E280830E9402039A8389830E940D0377
S11306909C838B8389819A81F80182838B819C81DD
S11306A08383C8010F900F900F900F90DF91CF912B
S11306B01F910F910895892B81F08091A60190914B
S11306C0A70101969093A7018093A60181E090E091
S11306D090930D0180930C0104C010920D011092AF
S11306E00C018091A6019091A7018617970711F438
S11306F081E0089580E00895CF93DF93CDB7DEB70E
S1130700E2970FB6F894DEBF0FBECDBF80E090E055
S11307100E94D301CB010E94070981E890E00E9466
S1130720C4058FE790E00E94C40583EE90E00E9428
S1130730C4058FEA90E00E94C40580E290E00E9424
S1130740C40582E090E00E94C4058AE290E00E9421
S1130750C4058EEA90E00E94C4058FE190E00E94F7
S113076060070E94500780E090E00E9484020E948B
S113077043060E94CA050E94E60180E00E94BE056D
S11307802FEB84ED91E0215080409040E1F700C0D0
S1130790000089A1843741F41092A9011092A801A4
S11307A0CE014F960E94390200910A0110910B016B
S11307B00E941803B8010E945B03813041F4109237
S11307C0A9011092A8011092A7011092A60180918C
S11307D0A8019091A901019709F069C0CE014F9633
S11307E00E9439020E94430660E070E080E090E0DD
S11307F00E9466068EE091E00E949106CE018996E1
S11308000E946A028AE0FE01B996DE011196019007
S11308100D928A95E1F7CE0101960E94030283EDC1
S113082090E30197F1F700C00000CE0189960E9481
S113083020038AE0FE01B996DE011B9601900D9219
S11308408A95E1F7CE010B960E94030283ED90E3B3
S11308500197F1F700C00000CE0189960E9434038D
S11308608AE0FE01B996DE01559601900D928A95B3
S1130870E1F7988D8F89292F092E000C330B3F93B4
S11308809F93282F082E000C330B3F938F9389E1FD
S113089091E09F938F930E945D09CE0145960E943B
S11308A003020F900F900F900F900F900F90809174
S11308B0A8019091A901892B09F0D1C0CE014F96CE
S11308C00E9439020E949A028E3C9F4F94F48091B8
S11308D0AA019091AB01181619065CF48091AA0143
S11308E09091AB0101979093AB018093AA010E9470
S11308F043068091AA019091AB01892B11F40E94C7
S1130900DD060E94CE028E3C9F4F4CF58091AC01D7
S11309109091AD0107971CF58091AC019091AD01C8
S113092001969093AD018093AC018091AC019091BC
S1130930AD0160E070E00E94AF068091AC0190913F
S1130940AD0160E070E001970E94C6068FE996E869
S113095021E0815090402040E1F700C000000E9457
S1130960CE02C39754F18091AC019091AD01181659
S113097019061CF58091AC019091AD0101979093FB
S1130980AD018093AC018091AC019091AD0160E028
S113099070E00E94AF068091AC019091AD0160E0DF
S11309A070E001960E94C6068FE996E821E0815026
S11309B090402040E1F700C000000E949A02C397D3
S11309C074F08091AC019091AD01059741F40E94BF
S11309D01A0781E090E09093AB018093AA010E94F2
S11309E09A02C39764F08091AC019091AD01019794
S11309F031F481E090E09093A9018093A8010E94D2
S1130A009A02C39764F08091AC019091AD01019773
S1130A1031F48AE090E090930B0180930A010E94E4
S1130A209A02C39764F08091AC019091AD01019753
S1130A3031F485E090E090930B0180930A010E94C9
S1130A409A02C39764F08091AC019091AD01019733
S1130A5031F483E090E090930B0180930A018FE9D5
S1130A6096E821E0815090402040E1F700C000006A
S1130A7090CECF93C82F0E944C0783E00E94370783
S1130A808C2F0E9437070E943B07C82F0E94410702
S1130A908C2FCF910895CF93DF93D82FC62F0E9428
S1130AA04C0782E00E9437078D2F0E9437078C2F56
S1130AB00E9437070E944107DF91CF910895CF9399
S1130AC0DF93EC010E944C07CE0163E070E00E94CA
S1130AD06D07009739F08130910531F0029731F0BC
S1130AE081E805C081E803C082E801C084E80E946F
S1130AF037070E944107DF91CF9108951F93CF9349
S1130B00DF93182FD62FC42F0E944C0785E00E9434
S1130B103707812F0E9437078D2F0E9437078C2FAC
S1130B200E9437070E944107DF91CF911F910895DA
S1130B300E944C0780EC0E9437070E9441070895E9
S1130B400E9445070E94980589EF90E00197F1F70C
S1130B5000C000008EE00E943905982F907E9038E6
S1130B6061F01F928F9382E391E09F938F930E9491
S1130B705D090F900F900F900F900895482F60EE2D
S1130B808FE00E947E05089580930010089580935D
S1130B900012089581EA90E00E94C4058AED90E075
S1130BA00E94C40582E190E00E94C40588EC90E0B4
S1130BB00E94C40588EA90E00E94C4058FE390E097
S1130BC00E94C40585ED90E00E94C40580E890E091
S1130BD00E94C40581E890E00E94C40580E590E08D
S1130BE00E94C40589ED90E00E94C40581E290E072
S1130BF00E94C40580E290E00E94C40582E090E077
S1130C000E94C4058BED90E00E94C40580E390E04F
S1130C100E94C4058DEA90E00E94C40580E090E043
S1130C200E94C40584EA90E00E94C40586EA90E02C
S1130C300E94C4058FEA90E00E94C405089580557F
S1130C409F4F0E94C4050895CF93DF93EC018F70EA
S1130C509078992324F40197806F9F6F01960E94E6
S1130C60C405CE01DD230CF40F96959587959595D3
S1130C708795959587959595879540960E94C40587
S1130C80DF91CF9108950F931F93CF93DF9300E0EB
S1130C9010E014C0C8010E941F0680E090E00E948A
S1130CA02406C0E0D0E005C080E090E00E94C705C3
S1130CB02196C038D105C4F30F5F1F4F08301105CA
S1130CC04CF3DF91CF911F910F910895CF93DF9350
S1130CD0EB010E941F06CE010E942406DF91CF91F2
S1130CE008951F93CF93DF9310EE180FC0E0D0E068
S1130CF011C0E12FF0E0EE0FFF1FEE0FFF1FEE0F0C
S1130D00FF1FEC0FFD1FE059FF4F849190E00E94FC
S1130D10C7052196C830D10564F3DF91CF911F91A7
S1130D2008950F931F93CF93DF938C01C0E0D0E01D
S1130D3007C0F801EC0FFD1F80810E947106219607
S1130D40F80101900020E9F73197E01BF10BCE1771
S1130D50DF0778F3DF91CF911F910F9108950E94DF
S1130D60660688E190E00E94C70588E190E00E9451
S1130D70C7058EE790E00E94C7058CE390E00E94CF
S1130D80C70588E190E00E94C70508950E946606A1
S1130D9080E090E00E94C70580E090E00E94C705D3
S1130DA080E090E00E94C70580E090E00E94C705C3
S1130DB080E090E00E94C705089565E070E080E05F
S1130DC090E00E94660680EA91E00E94910665E048
S1130DD070E081E090E00E9466068AE691E00E945D
S1130DE0910665E070E082E090E00E94660687E785
S1130DF091E00E94910665E070E083E090E00E943B
S1130E0066068CE791E00E94910665E070E084E05C
S1130E1090E00E94660683E891E00E94910665E0F6
S1130E2070E085E090E00E94660688E891E00E9408
S1130E3091060895CF93DF930E94430660E070E02B
S1130E4080E090E00E946606C0E0D0E00AC065E061
S1130E5070E0CE010E94660683E991E00E9491064B
S1130E602196C630D1059CF3DF91CF9108958FB9B7
S1130E70779BFECF08958FEF8FB9779BFECF8FB10D
S1130E80089588B3806188BB089580EB87BB81EDAA
S1130E908DB90E944107089588B38F7E88BB089559
S1130EA085B7806885BF80B7806280BF08955D9BE9
S1130EB0FECF8CB908955F9902C08CB1089508954E
S1130EC090BD89B988E18AB98EE880BD6BE577E089
S1130ED087E597E00E941209089597FB072E16F400
S1130EE0009407D077FD09D00E94810707FC05D044
S1130EF03EF4909581959F4F0895709561957F4F2D
S1130F000895AA1BBB1B51E107C0AA1FBB1FA6174C
S1130F10B70710F0A61BB70B881F991F5A95A9F79E
S1130F2080959095BC01CD0108950F931F93CF93A5
S1130F30DF938230910510F482E090E0E091B001FB
S1130F40F091B10120E030E0A0E0B0E0309719F179
S1130F50408151810281138148175907C8F08417D1
S1130F60950769F4109731F012960C931297139623
S1130F701C9327C00093B0011093B10122C0211526
S1130F80310519F04217530718F49A01BD01EF0116
S1130F90DF01F801DBCF21153105F9F0281B390BEE
S1130FA02430310580F48A819B816115710521F01B
S1130FB0FB019383828304C09093B1018093B001B9
S1130FC0FE01329644C0FE01E20FF31F8193919318
S1130FD022503109398328833AC02091AE013091DF
S1130FE0AF01232B41F4209102013091030130938E
S1130FF0AF012093AE012091000130910101211530
S1131000310541F42DB73EB74091040150910501DB
S1131010241B350BE091AE01F091AF01E217F30709
S1131020A0F42E1B3F0B2817390778F0AC014E5F54
S11310305F4F2417350748F04E0F5F1F5093AF01E1
S11310404093AE018193919302C0E0E0F0E0CF01C0
S1131050DF91CF911F910F910895CF93DF93009764
S113106009F481C0FC01329713821282A091B0016D
S1131070B091B101109781F420813181820F931FC7
S11310802091AE013091AF012817390751F5F09343
S1131090AF01E093AE0167C0ED0120E030E0CE1770
S11310A0DF0740F44A815B819E0141155105F1F04F
S11310B0EA01F5CFD383C28340815181840F951F08
S11310C0C817D90759F488819981840F951F02960E
S11310D0918380838A819B81938382832115310547
S11310E029F4F093B101E093B0013DC0E901FB8321
S11310F0EA8349915991C40FD51FEC17FD0761F498
S113110080819181840F951F0296E90199838883D8
S1131110828193819B838A83E0E0F0E012968D9133
S11311209C911397009719F0FD01DC01F7CF8D9185
S11311309C9111979D012E5F3F4F820F931F209129
S1131140AE013091AF012817390769F4309729F4BB
S11311501092B1011092B00102C013821282B093B6
S1131160AF01A093AE01DF91CF9108958F929F922A
S1131170AF92BF92CF92DF92EF92FF92CF93DF9321
S1131180EC01688179818A819B81611571058105F2
S1131190910521F464E279ED8BE597E02DE133EFDD
S11311A041E050E00E94270C49015A019B01AC0127
S11311B0A7EAB1E40E94460C6B017C01ACEEB4EFEB
S11311C0A50194010E94540CDC01CB018C0D9D1DE2
S11311D0AE1DBF1DB7FF03C00197A109B0488883A6
S11311E09983AA83BB839F77DF91CF91FF90EF9080
S11311F0DF90CF90BF90AF909F908F9008950E9402
S1131200B608089586E091E00E94B6080895A0E02B
S1131210B0E08093060190930701A0930801B09376
S1131220090108950F931F93CF93DF93009731F42F
S11312306115710519F480E090E03AC08B01EC016E
S11312406EE070E081E090E00E94540BFC01892B79
S113125091F380E883830115110571F013870287E8
S113126081E883838091B2019091B301892B21F4A9
S1131270F093B301E093B2012097C9F0D187C087FE
S11312808381826083838091B4019091B501892B1D
S113129071F4F093B501E093B4018091B60190919B
S11312A0B701892B21F4F093B701E093B601CF0184
S11312B0DF91CF911F910F910895A0E0B0E0E3E694
S11312C0F9E00C94690CAE014B5F5F4FFA01619138
S11312D07191AF018091B4019091B5010E9473099D
S11312E0E2E00C94850CABE0B0E0E9E7F9E00C94A3
S11312F0590C6C017B018A01FC01178216828381DF
S113130081FFCCC1CE0101963C01F6019381F70126
S113131093FD859193FF81917F01882309F4BAC1DC
S1131320853239F493FD859193FF81917F01853254
S113133029F4B60190E00E948D0BE7CF912C212C6B
S1131340312CFFE1F315D8F08B3279F038F4803288
S113135079F08332A1F4232D20611DC08D3261F018
S1131360803369F4232D216016C0832D8260382ECA
S1131370E32DE4603E2E2AC0F32DF8601DC037FC37
S11313802DC020ED280F2A3040F08E32B9F436FCFF
S113139081C1232D2064322E19C036FE06C08AE096
S11313A0989E200D1124922E11C0EAE02E9E200D4D
S11313B01124222EF32DF0623F2E08C08C3621F426
S11313C0832D8068382E02C0883641F4F70193FDDE
S11313D0859193FF81917F018111B3CF982F9F7DD8
S11313E09554933028F40C5F1F4F9FE399830DC0ED
S11313F0833631F0833771F0833509F059C021C049
S1131400F801808189830E5F1F4F88248394912C77
S1131410530113C02801F2E04F0E511CF801A080C3
S1131420B18036FE03C0692D70E002C06FEF7FEF1C
S1131430C5010E94820B4C018201F32DFF773F2EE0
S113144016C0280122E0420E511CF801A080B18090
S113145036FE03C0692D70E002C06FEF7FEFC50157
S11314600E94700B4C01F32DF0683F2E820133FC77
S11314701BC0822D90E088169906B0F4B60180E274
S113148090E00E948D0B2A94F4CFF50137FC8591EE
S113149037FE81915F01B60190E00E948D0B21100F
S11314A02A9421E0821A91088114910471F7E8C00A
S11314B0843611F0893641F5F80137FE07C06081A2
S11314C07181828193810C5F1F4F08C0608171819B
S11314D0072E000C880B990B0E5F1F4FF32DFF7620
S11314E03F2E97FF09C090958095709561957F4F29
S11314F08F4F9F4FF0683F2E2AE030E0A3010E94F7
S1131500C90B882E861845C0853731F4232D2F7ECC
S1131510B22E2AE030E025C0932D997FB92E8F3664
S1131520C1F018F4883579F0B5C0803719F08837E0
S113153021F0B0C0E92FE061BE2EB4FE0DC0FB2D3A
S1131540F460BF2E09C034FE0AC0292F2660B22ED3
S113155006C028E030E005C020E130E002C020E110
S113156032E0F801B7FE07C0608171818281938106
S11315700C5F1F4F06C06081718180E090E00E5FB8
S11315801F4FA3010E94C90B882E8618FB2DFF77DD
S11315903F2E36FE0DC0232D2E7FA22E891458F423
S11315A034FE0BC032FC09C0832D8E7EA82E05C0EC
S11315B0B82CA32C03C0B82C01C0B92CA4FE0FC0B6
S11315C0FE01E80DF11D8081803321F49A2D997E6E
S11315D0A92E09C0A2FE06C0B394B39404C08A2DF8
S11315E0867809F0B394A3FC11C0A0FE06C0B2141F
S11315F088F4280C922C9B180EC0B21460F4B60127
S113160080E290E00E948D0BB394F7CFB21418F4EB
S11316102B1802C0982C212CA4FE10C0B60180E324
S113162090E00E948D0BA2FE17C0A1FC03C088E7C6
S113163090E002C088E590E0B6010CC08A2D86785F
S113164059F0A1FE02C08BE201C080E2A7FC8DE24A
S1131650B60190E00E948D0B891438F4B60180E342
S113166090E00E948D0B9A94F7CF8A94F301E80DD1
S1131670F11D8081B60190E00E948D0B8110F5CFA1
S1131680222009F442CEB60180E290E00E948D0B44
S11316902A94F6CFF6018681978102C08FEF9FEFDF
S11316A02B96E2E10C94750C0F931F93CF93DF9369
S11316B0869F8001879F100D969F100D1124C801ED
S11316C00E949507EC01009729F0A80160E070E002
S11316D00E947B0BCE01DF91CF911F910F91089552
S11316E0FC010590615070400110D8F780959095E9
S11316F08E0F9F1F0895DC0101C06D93415050402F
S1131700E0F70895FC016150704001900110D8F792
S1131710809590958E0F9F1F08950F931F93CF93DD
S1131720DF93FB01238121FD03C08FEF9FEF2CC0CA
S113173022FF16C046815781248135814217530701
S113174044F4A081B1819D012F5F3F4F31832083F9
S11317508C93268137812F5F3F4F3783268314C0B4
S11317608B01EC01FB010084F185E02D0995892BA7
S1131770E1F6D80116968D919C91179701961796CC
S11317809C938E931697CE01DF91CF911F910F9169
S11317900895FA01AA27283051F1203181F1E89403
S11317A06F936E7F6E5F7F4F8F4F9F4FAF4FB1E050
S11317B03ED0B4E03CD0670F781F891F9A1FA11D4B
S11317C0680F791F8A1F911DA11D6A0F711D811D4C
S11317D0911DA11D20D009F468943F912AE0269F11
S11317E011243019305D3193DEF6CF010895462F70
S11317F04770405D4193B3E00FD0C9F7F6CF462F51
S11318004F70405D4A3318F0495D31FD40524193B9
S113181002D0A9F7EACFB4E0A69597958795779576
S11318206795BA95C9F700976105710508959B01FD
S1131830AC010A2E06945795479537952795BA9586
S1131840C9F7620F731F841F951FA01D0895052EED
S113185097FB1EF400940E943E0C57FD07D00E9493
S1131860900C07FC03D04EF40C943E0C509540951C
S1131870309521953F4F4F4F5F4F08959095809538
S1131880709561957F4F8F4F9F4F08950E94B20CC2
S1131890A59F900DB49F900DA49F800D911D1124C0
S11318A00895B7FF0C94460C0E94460C821B930BC0
S11318B008952F923F924F925F926F927F928F92F0
S11318C09F92AF92BF92CF92DF92EF92FF920F93CB
S11318D01F93CF93DF93CDB7DEB7CA1BDB0B0FB6D5
S11318E0F894DEBF0FBECDBF09942A883988488892
S11318F05F846E847D848C849B84AA84B984C88428
S1131900DF80EE80FD800C811B81AA81B981CE0F1E
S1131910D11D0FB6F894DEBF0FBECDBFED01089503
S1131920A1E21A2EAA1BBB1BFD010DC0AA1FBB1FDF
S1131930EE1FFF1FA217B307E407F50720F0A21B51
S1131940B30BE40BF50B661F771F881F991F1A94BE
S113195069F760957095809590959B01AC01BD01E8
S1131960CF010895A29FB001B39FC001A39F700D42
S1131970811D1124911DB29F700D811D1124911D93
S10919800895F894FFCF66
S11319860000BC01200001000000030001004741E3
S11319964D45204C4956452100736C696465722097
S11319A63120256420736C696465722032202564B5
S11319B60A004D435021636F6E6669672F4D43508D
S11319C65F43414E53544154202578200D0A004D5F
S11319D661696E204D656E7500535441525420471B
S11319E6414D450053544152540043484F4F5345CB
S11319F620444946463A0045415359004D45444919
S1131A06554D0048415244004849474853434F52B4
S1131A164553002564207472796D004D41494E5F2B
S1091A264D454E55000081
S9030000FC
