:0200000280007C
:10000000F8080020450508004105080041050800E2
:1000100041050800410508004105080000000000F6
:100020000000000000000000000000004105080082
:100030004105080000000000410508003D0D0800D2
:100040004105080041050800410508004105080078
:100050004105080041050800410508004105080068
:10006000E90D0800410508000000000041050800F6
:100070004105080041050800410508000000000096
:100080000000000041050800410508004105080086
:100090004105080041050800410508004105080028
:1000A0004105080000000000410508004105080066
:1000B0004105080041050800410508004105080008
:1000C00041050800410508004105080041050800F8
:1000D00041050800410508004105080041050800E8
:1000E00041050800410508004105080021030800FA
:1000F0004105080010B5054C237833B9044B13B102
:100100000448AFF300800123237010BD4404002095
:1001100000000000EC1508000C4B43B10C4810B572
:100120000C49AFF300800C48036823B910BD0A489E
:10013000036833B97047094B002BF7D0BDE8104076
:100140001847064B002BF5D0184700BF00000000F1
:10015000EC15080048040020EC1508000000000021
:10016000084B80225A6001221A61074A0749C2F8E7
:100170000C11D2F8001141F02001C2F80011022246
:100180001A60704700000C4000060E402500001069
:10019000044B1B6D9BB2B3F57A7F01D901207047E8
:1001A0000020704700000C40F0B45718082FD4BF4F
:1001B00000230123082998BF082A5CD80D46002B8C
:1001C00059D12E4A136823F00103136013692C4B95
:1001D0004FF440745C641C6F24F003041C67032418
:1001E0005C605C66A3F50063264CC3F80C41D3F851
:1001F000004144F40064C3F800415061002419E058
:100200001E4801F110035B01C2180026566000EB86
:1002100041124FF00056C2F808624FF08076C65087
:10022000D2F81C3243F40003C2F81C3201238B4085
:100230001C430131B942E3DD00230DE00F4901EB1E
:1002400043124FF00050C2F8080203F110025201AD
:100250004FF0407088500133AB42EFDB074B5C60DE
:100260004FF40061084A51601A6842F001021A60B6
:100270000020F0BC70470120FBE700BF00400B40AE
:10028000000E0E402B10001000E100E008B5022225
:100290000121014B984708BDA90108004B0103F15A
:1002A000402303F53023D3F8103213F4000F33D07A
:1002B00070B44B0103F1402303F53023D3F814420B
:1002C000D3F81822D3F80852C5F38A450580D3F82D
:1002D0001052C5F303458570002303E0C618F27081
:1002E000120A0133AB4205DA032BF7DCC618F470AF
:1002F000240AF6E7094B01F1100252014FF0807019
:10030000985003EB4111D1F81C3243F40003C1F8BB
:100310001C32002070BC70470120704700400B4029
:1003200070B584B05F4B1C6914F0060F00F0AC8010
:1003300014F0020F19D114F0040F1BD0022101A8F0
:10034000594B9847BDF80430322B17D0BDF8043014
:100350000A2B34D0BDF80430142B78D0BDF804300B
:100360001E2B00F0838000238AE0012101A84E4B60
:100370009847E7E74D484E4B9847E3E74D484C4DCB
:10038000A847BDF804104C48A8479DF806104B48F4
:10039000A8474B4E9DF807103046A8479DF8081017
:1003A0003046A8479DF809103046A8479DF80A1026
:1003B0003046A8479DF80B103046A847C6E79DF881
:1003C0000730404A1288934219D03E4A928893429D
:1003D0001FD03D4A1288934225D03A4AD288934290
:1003E0002BD0384A12899342B4D1364B997837488A
:1003F0002F4DA8479DF807103548A847AAE7314B6D
:10040000997834482A4DA8479DF807103048A847E6
:10041000A0E72C4B99783048254DA8479DF8071048
:100420002B48A84796E7274B99782C48204DA8479A
:100430009DF807102648A8478CE7224B9978284852
:100440001B4DA8479DF807102148A84782E79DF853
:100450000700244B98479DF80700234B98479DF8C9
:10046000072001462148124B984777E79DF807007F
:100470001F4B98479DF80A001E4B984773E70133BE
:100480009DF806209342FADB14F0010F02D00122FE
:10049000044B9A604FF40062174BC3F8842104B0F8
:1004A00070BD00BF00400B409D020800C81408004A
:1004B000310C0800F4140800FC14080004150800AE
:1004C00010150800000000206004002048150800F6
:1004D000501508001C1508002415080030150800E8
:1004E0003C15080081080800910608005415080012
:1004F000010D0800BD0C080000E100E0014B18628E
:100500001B6B704700800C4008B50A4B0A4AC3F8C1
:100510000C21D3F8002142F04002C3F80021A3F5DA
:10052000C3334FF480325A6002221A610020034B19
:10053000984708BD00060E4026000010FD04080084
:10054000FEE7000008B5114B114A9A4209D00F4B43
:100550000F4A03E011681960043304320D498B42DD
:10056000F8D30D4B02E000221A6004330B4A934289
:10057000F9D30B4B23F0604323F07F03094A9360C8
:10058000094B9847094B9847FEE700BF0000002041
:10059000EC1508004404002044040020F804002066
:1005A0000000080000ED00E059130800E106080013
:1005B0004FF48063204A136002F5007213601F4BF2
:1005C0001B6A13F0807F07D11D4A1C4B1A621B4B1C
:1005D0009B6E13F0010FFAD01A4A184B1A62174B90
:1005E0009B6E13F4803FFAD0144A136B23F003037D
:1005F00043F001031363114B9B6E13F0080FFAD005
:10060000114A0E4B9A620D4B9B6E13F0020FFAD0FB
:1006100011220A4B1A63094B9B6E13F0080FFAD094
:100620001222064B1A63054B9B6E13F0080FFAD08B
:10063000064A074B1A607047000A0E4000060E403B
:100640000908370009083701013F0D2000BD0105E9
:100650000C00002008B50B4B984710B90A4B1B68DB
:1006600033B1094B5A68094B1B689A4205D008BD43
:10067000054A53680133536008BD0022024B5A609B
:10068000F5E700BF9101080064040020100000207D
:10069000114A1368C31A642000FB03F00F4B83FB5D
:1006A0000013C017C0EB23101368C3F165020028C4
:1006B00007DD642202FB00F0C3F1C90390FBF3F0F5
:1006C0007047002800DB7047642303FB00F09A1A90
:1006D00090FBF2F0F7E700BF14000020CBF08D286C
:1006E00000B587B065238DF81730194B98474FF444
:1006F0000042184B5A60184B98471848184B9847B7
:10070000184B9847184B9847184B9847184B9847E1
:10071000184B984740F2FF4302930BA3D3E9002301
:10072000CDE90023012214212320134B9847134BBA
:100730009847134B9847134B9847134B98470028FB
:10074000F7D0114B9847F4E77B14AE47E17A943F1A
:10075000B1050800501A0E405D0D08006501290022
:100760008D020800550C0800610108000905080009
:10077000A5070800E10C0800F5080800F1070800CB
:10078000210308005506080091010800642303FBBB
:1007900000F0034B83FB0023C017C0EB23307047EE
:1007A0007307287708B50F4B98470F4B196840F22D
:1007B0000760014319601A6902431A61A3F50073C7
:1007C0001A6842F4FF721A605A6942F4FF725A6161
:1007D000A3F54063054AC3F80C211A6942F400529C
:1007E0001A6108BD0905080000140E400D00001034
:1007F0004FF40072014B1A63704700BF00140E40A3
:100800001C4B5A6B42F001025A635A6B42F00402CD
:100810005A63002300E00133174A9342FBDD174B74
:10082000D96B4908134A136B43F004031363002385
:1008300000E00133104A9342FBDD104BDB6BC3F346
:1008400047030C4A506B40F002005063106B40F0BD
:1008500002001063106B40F00100106343EA0123B3
:100860001BB298B2002B00DB7047C04380B201304E
:10087000FAE700BF00140E403F420F0000120E4086
:1008800070B50446134B9847134B984705462046CE
:10089000124B9847064629462046114B9847044676
:1008A00003462A4631460F480F4DA847002C07DD66
:1008B0004FF480620D4B1A63A0B20D4B984770BD88
:1008C0004FF48062094B5A63604280B2084B9847EC
:1008D00070BD00BF010808008D07080091060800E0
:1008E0001509080070150800310C080000140E40AE
:1008F000FD04080010B4064C20606160A260002274
:10090000E26022616361019BA36110BC704700BF7C
:100910006C0400202DE9F04F83B0461A1B4CE368AD
:1009200006EB0308C4F80C802568DFF86CA030469D
:10093000D047174F2946B847DFF86090C8470546AB
:10094000D4F814B061685846B84701904046D04783
:100950000199B847C84780465946A0680D4B98474B
:1009600083462069301AD0475946B847C84745449E
:1009700005442661A069854202DC4042854202DAD4
:1009800003B0BDE8F08F2846FAE700BF6C040020F2
:100990006D100800D5110800C50F08000D130800E0
:1009A00008B5C8B2014B984708BD00BFC50D080087
:1009B0002DE9F04107460E46151E02DD0A460021CC
:1009C00004E04FF020080EE00131013210780028D9
:1009D000FAD1A94201DA6D1A00E0002513F0020FE6
:1009E00006D14FF0200813F001040AD0002410E0D3
:1009F0004FF03008F7E7414638460D4B9847013431
:100A0000013D002DF7DC04E03846094B98470134DE
:100A1000013631780029F7D105E041463846044BCC
:100A200098470134013D002DF7DC2046BDE8F081F8
:100A3000A1090800F0B585B007460C9851B11E46D3
:100A40000C4613B10A2A12D0002604AD002305F883
:100A5000013D18E030238DF8043000238DF8053077
:100A60000B9B0A9A01A938461B4CA04729E0002994
:100A700001DB0026E9E74C420126E6E7303305F8C2
:100A8000013DB4FBF2F44CB1B4FBF2F302FB1343AF
:100A9000092BF3DDA0F13A010B44EFE756B10A9BB5
:100AA0001BB10B9B13F0020F0DD12D2305F8013C58
:100AB000013D00260B9B0A9A29463846064CA04762
:100AC000304405B0F0BD2D213846044B98470A9BB1
:100AD000013B0A93EEE700BFB1090800A109080035
:100AE000F0B589B006460C460592002581E0A21CAF
:100AF00001238BE0013443F002032278302AF9D03D
:100B0000002206E002EB82025000A1F13002024412
:100B100001342178A1F13000C0B20928F2D973293B
:100B200018D0642922D078292FD058293CD0752993
:100B300049D063295CD10599081D059009788DF885
:100B40001C1000218DF81D1007A93046344FB847FE
:100B500005444DE00599081D0590096821B130460E
:100B60002F4FB847054443E02E49F8E70599081D83
:100B700005900968612002900193009201230A22E6
:100B80003046294FB847054432E00599081D0590C5
:100B900009686120029001930092002310223046E0
:100BA000214FB847054423E00599081D05900968C1
:100BB00041200290019300920023102230461A4FE8
:100BC000B847054414E00599081D0590096861209F
:100BD00002900193009200230A223046124FB84738
:100BE000054405E0144621783046104B98470135FE
:100BF0000134237863B1252BF5D1621C63783BB1B6
:100C0000252BEFD02D2B3FF472AF0023144674E751
:100C100016B1336800221A70284609B0F0BD00BF33
:100C2000B10908009C150800350A0800A109080050
:100C30000FB400B583B004AA52F8041B019200203F
:100C4000034B984703B05DF804EB04B0704700BF56
:100C5000E10A0800154AD2F8003143F01003C2F847
:100C60000031134B1A6942F400221A615A6842F4A7
:100C700000225A601A6F42F400221A670D4AD2F815
:100C8000E43023F00103C2F8E43040F20A220A4BB8
:100C90001A604FF4CD620C331A607B22083B1A6055
:100CA0002022A3F528731A60704700BF00060E408B
:100CB00000120E4000400940A042094000EB4000F5
:100CC0004301054A82FB03121A44DB17C3EBE2130C
:100CD0005C33024A1360704781808080A4420940DF
:100CE000064B1A6842F480321A601A6942F4803264
:100CF0001A611A6B42F480321A637047000E0E407C
:100D000004280AD0042807D000220A4B1A600A4A95
:100D1000136B43F4803313637047064B1B68002B3F
:100D2000F0D10122034B1A60034A536B43F4803322
:100D30005363704788040020000E0E40054B1B686B
:100D40001BB90022044B1A607047024A1368013B2A
:100D5000136070478C04002010E000E0164B002266
:100D60001A705A70154B4FF44071596459601A6FDC
:100D7000186F024022F440721A6759664FF480726D
:100D8000A3F500631A6103F50073AC21196040F20A
:100D9000232119624FF40061596040F20221C3F827
:100DA00020114FF0FF31D960E121996004490A60B8
:100DB00050221A60704700BF90040020000E0E40C1
:100DC00000E100E0074B5B6913F0020F08D0054B10
:100DD000D861044B5B6913F4007FFAD000207047A0
:100DE0000120704700080E4008B5154B5B6913F0F1
:100DF000E00F03D04FF4A871114A116013F0010FF6
:100E000012D010484278531C594203F03F0301F0BE
:100E10003F0158BF4B4201788B4206D00849886990
:100E200008490A4490704B7008BD0748074B984723
:100E3000044B5978024A92690B449A7008BD00BF6E
:100E400000080E4090040020A4150800310C080092
:100E500080F0004002E000BF81F0004142001FBF6F
:100E60005FEA410392EA030F7FEA226C7FEA236C78
:100E70006AD04FEA1262D2EB1363C1BFD21841406D
:100E800048404140B8BF5B42192B88BF704710F003
:100E9000004F40F4000020F07F4018BF404211F0A6
:100EA000004F41F4000121F07F4118BF494292EA0E
:100EB000030F3FD0A2F1010241FA03FC10EB0C003A
:100EC000C3F1200301FA03F100F0004302D54942C7
:100ED00060EB4000B0F5000F13D3B0F1807F06D374
:100EE00040084FEA310102F10102FE2A51D2B1F16C
:100EF000004F40EBC25008BF20F0010040EA030061
:100F00007047490040EB000010F4000FA2F101020D
:100F1000EDD1B0FA80FCACF1080CB2EB0C0200FA97
:100F20000CF0AABF00EBC25052421843BCBFD040E5
:100F30001843704792F0000F81F4000106BF80F45F
:100F400000000132013BB5E74FEA41037FEA226C22
:100F500018BF7FEA236C21D092EA030F04D092F0ED
:100F6000000F08BF0846704790EA010F1CBF002021
:100F7000704712F07F4F04D1400028BF40F000407E
:100F8000704712F100723CBF00F50000704700F09E
:100F9000004343F0FE4040F4000070477FEA2262C5
:100FA00016BF08467FEA23630146420206BF5FEA96
:100FB000412390EA010F40F4800070474FF0000396
:100FC00004E000BF10F0004348BF40425FEA000C5D
:100FD00008BF704743F0964301464FF000001CE005
:100FE00050EA010208BF70474FF000030AE000BF5B
:100FF00050EA010208BF704711F0004302D5404299
:1010000061EB41015FEA010C02BF8446014600200A
:1010100043F0B64308BFA3F18053A3F50003BCFA25
:101020008CF2083AA3EBC25310DB01FA02FC6344D2
:1010300000FA02FCC2F12002BCF1004F20FA02F2D9
:1010400043EB020008BF20F00100704702F12002CC
:1010500001FA02FCC2F1200250EA4C0021FA02F22D
:1010600043EB020008BF20EADC7070474FF0FF0C32
:101070001CEAD0521EBF1CEAD15392EA0C0F93EA2D
:101080000C0F6FD01A4480EA010C400218BF5FEACF
:1010900041211ED04FF0006343EA501043EA511142
:1010A000A0FB01310CF00040B1F5000F3EBF49003C
:1010B00041EAD3715B0040EA010062F17F02FD2A40
:1010C0001DD8B3F1004F40EBC25008BF20F0010023
:1010D000704790F0000F0CF0004C08BF49024CEA3A
:1010E000502040EA51207F3AC2BFD2F1FF0340EACC
:1010F000C250704740F400004FF00003013A5DDC3D
:1011000012F1190FDCBF00F000407047C2F100027D
:10111000410021FA02F1C2F1200200FA02FC5FEA6A
:10112000310040F1000053EA4C0308BF20EADC70B4
:10113000704792F0000F00F0004C02BF400010F426
:10114000000F013AF9D040EA0C0093F0000F01F0D3
:10115000004C02BF490011F4000F013BF9D041EAF5
:101160000C018FE70CEAD15392EA0C0F18BF93EAF7
:101170000C0F0AD030F0004C18BF31F0004CD8D121
:1011800080EA010000F00040704790F0000F17BFA8
:1011900090F0004F084691F0000F91F0004F14D0EE
:1011A00092EA0C0F01D142020FD193EA0C0F03D146
:1011B0004B0218BF084608D180EA010000F0004049
:1011C00040F0FE4040F40000704740F0FE4040F424
:1011D000400070474FF0FF0C1CEAD0521EBF1CEAC3
:1011E000D15392EA0C0F93EA0C0F69D0A2EB0302E1
:1011F00080EA010C49024FEA402037D04FF080537B
:1012000043EA111143EA10130CF000408B4238BF3F
:101210005B0042F17D024FF4000C8B4224BF5B1A4D
:1012200040EA0C00B3EB510F24BFA3EB510340EA9B
:101230005C00B3EB910F24BFA3EB910340EA9C0049
:10124000B3EBD10F24BFA3EBD10340EADC001B01B9
:1012500018BF5FEA1C1CE0D1FD2A3FF650AF8B425D
:1012600040EBC25008BF20F0010070470CF0004C6A
:101270004CEA50207F32C2BFD2F1FF0340EAC25095
:10128000704740F400004FF00003013A37E792F056
:10129000000F00F0004C02BF400010F4000F013AB4
:1012A000F9D040EA0C0093F0000F01F0004C02BFAF
:1012B000490011F4000F013BF9D041EA0C0195E718
:1012C0000CEAD15392EA0C0F08D142027FF47DAFB1
:1012D00093EA0C0F7FF470AF084676E793EA0C0FA1
:1012E00004D14B023FF44CAF08466EE730F0004C9F
:1012F00018BF31F0004CCAD130F000427FF45CAF2F
:1013000031F000437FF43CAF5FE700BF4FEA40029B
:10131000B2F1FE4F0FD34FF09E03B3EB12620DD923
:101320004FEA002343F0004310F0004F23FA02F08D
:1013300018BF404270474FF00000704712F1610F34
:1013400001D1420205D110F0004008BF6FF000400B
:1013500070474FF00000704770B50F4E0F4D761B71
:10136000B61018BF002405D0013455F8043B984747
:10137000A642F9D10A4E0B4D00F026F9761BB610A5
:1013800018BF002406D0013455F8043B9847A64204
:10139000F9D170BD70BD00BFD4150800D415080088
:1013A000DC150800D4150800024B13B1024800F008
:1013B00005B8704700000000C9130800002301466B
:1013C0001A46184600F01EB838B50A4C0A4D641B80
:1013D000A4100AD004F18043013B05EB8305013CD6
:1013E00055F804399847002CF9D1BDE8384000F091
:1013F000F5B800BFEC150800E8150800704700BFFD
:10140000704700BF2DE9F8432C4D064628689846E2
:101410000F469146FFF7F2FF294B1C68D4F848317C
:10142000002B3ED05A681F2A1CDC02F1010E76B157
:10143000012103EB8204C4F88890D3F8880191401D
:101440000843022EC3F88801C4F8088123D0023271
:10145000C3F804E0286843F82270FFF7D1FF0020AA
:10146000BDE8F883174B0BB34FF4C870AFF300809F
:101470000346D8B10020D4F848114FF0010E58604F
:1014800019600246C4F84831C3F88801C3F88C01DA
:10149000002EDCD0CCE7D3F88C010143C3F88C11CB
:1014A000D5E704F5A673C4F84831BBE72868FFF711
:1014B000A7FF4FF0FF30BDE8F88300BF40040020D5
:1014C000C41508000000000043414E30206D6573D4
:1014D00073616765206172726976656420696E2048
:1014E0006E6F6E2D75736564206D61696C626F78C7
:1014F0000A0D00006D656C64696E670069642025E3
:10150000640A00006C656E6774682025640A000038
:10151000646174612025630A000000007570202555
:10152000630A0000646F776E2025630A00000000E4
:101530006C6566742025630A0000000072696768A4
:10154000742025630A0000006E65757472616C205A
:1015500025630A00783A2564202D2D2D2D2D2D2D63
:101560002D2D2D2D2D2D3E7863616E3A25640A00B8
:101570007265666572656E63653A20256409096562
:101580006E636F6465725F76616C75653A25640A97
:1015900020552076616C756525640A00286E756C8F
:1015A0006C2900004552523A20554152542052585D
:1015B000206275666665722069732066756C6C0AB8
:1015C0000D00000018000020F8B500BFF8BC08BCF2
:1015D0009E467047A913080019010800F8B500BF1E
:0C15E000F8BC08BC9E467047F5000800EF
:1015EC0002006500030001000400000000093D003A
:1015FC00030000005D000000000000000403002058
:10160C006C030020D4030020000000000000000048
:10161C0000000000000000000000000000000000BE
:10162C0000000000000000000000000000000000AE
:10163C00000000000000000000000000000000009E
:10164C00000000000000000000000000000000008E
:10165C00000000000000000000000000000000007E
:10166C00000000000000000000000000000000006E
:10167C00000000000000000000000000000000005E
:10168C00000000000000000000000000000000004E
:10169C00000000000000000000000000000000003E
:1016AC0001000000000000000E33CDAB34126DE6DB
:1016BC00ECDE05000B000000000000000000000044
:1016CC00000000000000000000000000000000000E
:1016DC0000000000000000000000000000000000FE
:1016EC0000000000000000000000000000000000EE
:1016FC0000000000000000000000000000000000DE
:041A2C00D4040020BE
:040000038000000079
:00000001FF
