:0200000280007C
:10000000F00800208504080081040800810408002D
:100010008104080081040800810408000000000039
:100020000000000000000000000000008104080043
:10003000810408000000000081040800AD0C0800E5
:10004000810408008104080081040800810408007C
:10005000810408008104080081040800810408006C
:10006000490D080081040800000000008104080018
:1000700081040800810408008104080000000000D9
:1000800000000000810408008104080081040800C9
:10009000810408008104080081040800810408002C
:1000A00081040800000000008104080081040800A9
:1000B000810408008104080081040800810408000C
:1000C00081040800810408008104080081040800FC
:1000D00081040800810408008104080081040800EC
:1000E000810408008104080081040800CD03080091
:1000F0008104080010B5054C237833B9044B13B1C3
:100100000448AFF300800123237010BD3C0400209D
:10011000000000001C1508000C4B43B10C4810B542
:100120000C49AFF300800C48036823B910BD0A489E
:10013000036833B97047094B002BF7D0BDE8104076
:100140001847064B002BF5D0184700BF00000000F1
:100150001C150800400400201C15080000000000C9
:10016000084B80225A6001221A61074A0749C2F8E7
:100170000C11D2F8001141F02001C2F80011022246
:100180001A60704700000C4000060E402500001069
:10019000044B1B6D9BB2B3F57A7F01D901207047E8
:1001A0000020704700000C4030B585B0002101A848
:1001B0001F4B9847BDF80430322B09D0BDF80430EE
:1001C000142B26D0BDF804301E2B27D005B030BD2F
:1001D0001848194CA047BDF804101848A0479DF8CE
:1001E00006101748A047174D9DF807102846A0474E
:1001F0009DF808102846A0479DF809102846A047FA
:100200009DF80A102846A0479DF80B102846A047E5
:10021000D4E79DF807000C4B9847D3E79DF80700FB
:100220000A4B98479DF809100948034B9847CDE7BA
:100230004903080028140800450B08003014080082
:100240003814080044140800A5070800F10B080042
:1002500050140800F0B45718082FD4BF002301230E
:10026000082998BF082A5CD80D46002B59D12E4A80
:10027000136823F00103136013692C4B4FF440748F
:100280005C641C6F24F003041C6703245C605C66E0
:10029000A3F50063264CC3F80C41D3F8004144F4A5
:1002A0000064C3F800415061002419E01E4801F1C8
:1002B00010035B01C2180026566000EB41124FF09C
:1002C0000056C2F808624FF08076C650D2F81C3251
:1002D00043F40003C2F81C3201238B401C4301315C
:1002E000B942E3DD00230DE00F4901EB43124FF06B
:1002F0000050C2F8080203F1100252014FF04070A2
:1003000088500133AB42EFDB074B5C604FF4006178
:10031000084A51601A6842F001021A600020F0BCDD
:1003200070470120FBE700BF00400B40000E0E406D
:100330002B10001000E100E008B502220121014B62
:10034000984708BD550208004B0103F1402303F50F
:100350003023D3F8103213F4000F33D070B44B01B4
:1003600003F1402303F53023D3F81442D3F81822C5
:10037000D3F80852C5F38A450580D3F81052C5F367
:1003800003458570002303E0C618F270120A01339A
:10039000AB4205DA032BF7DCC618F470240AF6E743
:1003A000094B01F1100252014FF08070985003EB9D
:1003B0004111D1F81C3243F40003C1F81C32002073
:1003C00070BC70470120704700400B4010B584B0EE
:1003D000154B1C6914F0060F19D014F0020F08D148
:1003E00014F0040F0AD0022101A8104B98470023F3
:1003F00009E0012101A80D4B9847F8E70C480D4B87
:100400009847F4E701339DF806209342FADB14F095
:10041000010F02D00122044B9A604FF40062064B98
:10042000C3F8842104B010BD00400B40490308000C
:100430005C140800450B080000E100E0014B186265
:100440001B6B704700800C4008B50A4B0A4AC3F882
:100450000C21D3F8002142F04002C3F80021A3F59B
:10046000C3334FF480325A6002221A610020034BDA
:10047000984708BD00060E40260000103D04080005
:10048000FEE7000008B5114B114A9A4209D00F4B04
:100490000F4A03E011681960043304320D498B429E
:1004A000F8D30D4B02E000221A6004330B4A93424A
:1004B000F9D30B4B23F0604323F07F03094A936089
:1004C000094B9847094B9847FEE700BF0000002002
:1004D0001C1508003C0400203C040020EC04002013
:1004E0000000080000ED00E0B91208002106080035
:1004F0004FF48063204A136002F5007213601F4BB3
:100500001B6A13F0807F07D11D4A1C4B1A621B4BDC
:100510009B6E13F0010FFAD01A4A184B1A62174B50
:100520009B6E13F4803FFAD0144A136B23F003033D
:1005300043F001031363114B9B6E13F0080FFAD0C5
:10054000114A0E4B9A620D4B9B6E13F0020FFAD0BC
:1005500011220A4B1A63094B9B6E13F0080FFAD055
:100560001222064B1A63054B9B6E13F0080FFAD04C
:10057000064A074B1A607047000A0E4000060E40FC
:100580000908370009083701013F0D2000BD0105AA
:100590000000002008B50B4B984710B90A4B1B68A8
:1005A00033B1094B5A68094B1B689A4205D008BD04
:1005B000054A53680133536008BD0022024B5A605C
:1005C000F5E700BF91010800580400200400002056
:1005D000114A1368C31A642000FB03F00F4B83FB1E
:1005E0000013C017C0EB23101368C3F16502002885
:1005F00007DD642202FB00F0C3F1C90390FBF3F0B6
:100600007047002800DB7047642303FB00F09A1A50
:1006100090FBF2F0F7E700BF08000020CBF08D2838
:1006200000B585B065238DF80F30164B98474FF411
:100630000042154B5A60154B98471548154B984783
:10064000154B9847154B9847154B9847154B9847AE
:10065000154B984740F6FE13009300230122142106
:100660002320124CA047124B9847124B9847124B2D
:100670009847124B9847124B98470028F5D0104BDB
:100680009847F2E7F1040800501A0E40BD0C08002C
:100690006501290039030800690B080061010800A1
:1006A00049040800DD060800D10B080019080800FD
:1006B00029070800CD03080095050800A9010800D6
:1006C00091010800642303FB00F0034B83FB00232C
:1006D000C017C0EB233070477307287708B50F4B5E
:1006E00098470F4B196840F20760014319601A6977
:1006F00002431A61A3F500731A6842F4FF721A608C
:100700005A6942F4FF725A61A3F54063054AC3F87F
:100710000C211A6942F400521A6108BD490408000C
:1007200000140E400D0000104FF40072014B1A63CC
:10073000704700BF00140E40F8B5174C636B43F0D0
:1007400001036363636B43F0040363631420134F7B
:10075000B847134EF56B6D08236B43F00403236316
:100760001420B847F36BC3F34703226B42F0010236
:100770002263626B42F002026263226B42F0020269
:10078000226343EA05231BB298B2002B00DBF8BDBD
:10079000C04380B20130FAE700140E40390C080063
:1007A00000120E4070B50546134B98470646134B92
:1007B000984704462846124B984705462146114B58
:1007C0009847044633462A46411B0F480F4DA84719
:1007D000002C07DD4FF480620D4B1A63A0B20D4B65
:1007E000984770BD4FF48062094B5A63604280B2F3
:1007F000084B984770BD00BF39070800C5060800C0
:10080000D1050800490808008C140800450B0800B1
:1008100000140E403D040800084B094A1A60094ABA
:100820005A604FF07E529A600022DA601A6100220C
:100830005A6140F6B8329A61704700BF60040020E8
:10084000000020420000A0412DE9F04782B0461A86
:10085000144CE5683544E560D4F80080DFF84C902E
:100860003046C847104F4146B847DFF84480C0477C
:10087000019061686069B84782462846C84751467A
:10088000B847C0470090019B009A13442661A069B5
:10089000834202DC4042834202DA02B0BDE8F087C4
:1008A0001846FAE760040020CD0F0800250F080065
:1008B0006D12080008B5C8B2014B984708BD00BFCB
:1008C000250D08002DE9F04107460E46151E02DDF4
:1008D0000A46002104E04FF020080EE00131013209
:1008E00010780028FAD1A94201DA6D1A00E000253B
:1008F00013F0020F06D14FF0200813F001040AD0C4
:10090000002410E04FF03008F7E7414638460D4B21
:1009100098470134013D002DF7DC04E03846094BCF
:1009200098470134013631780029F7D105E0414676
:100930003846044B98470134013D002DF7DC204632
:10094000BDE8F081B5080800F0B585B007460C9801
:1009500051B11E460C4613B10A2A12D0002604AD2E
:10096000002305F8013D18E030238DF80430002302
:100970008DF805300B9B0A9A01A938461B4CA047FD
:1009800029E0002901DB0026E9E74C420126E6E7E1
:10099000303305F8013DB4FBF2F44CB1B4FBF2F393
:1009A00002FB1343092BF3DDA0F13A010B44EFE7FF
:1009B00056B10A9B1BB10B9B13F0020F0DD12D23D7
:1009C00005F8013C013D00260B9B0A9A2946384652
:1009D000064CA047304405B0F0BD2D213846044BED
:1009E00098470A9B013B0A93EEE700BFC508080041
:1009F000B5080800F0B589B006460C4605920025FA
:100A000081E0A21C01238BE0013443F00203227831
:100A1000302AF9D0002206E002EB82025000A1F158
:100A20003002024401342178A1F13000C0B209281B
:100A3000F2D9732918D0642922D078292FD05829C7
:100A40003CD0752949D063295CD10599081D0590D2
:100A500009788DF81C1000218DF81D1007A930466B
:100A6000344FB84705444DE00599081D05900968C5
:100A700021B130462F4FB847054443E02E49F8E7EF
:100A80000599081D05900968612002900193009264
:100A900001230A223046294FB847054432E0059920
:100AA000081D0590096861200290019300920023BF
:100AB00010223046214FB847054423E00599081D10
:100AC00005900968412002900193009200231022B2
:100AD00030461A4FB847054414E00599081D0590A3
:100AE0000968612002900193009200230A22304697
:100AF000124FB847054405E0144621783046104BA4
:100B0000984701350134237863B1252BF5D1621C58
:100B100063783BB1252BEFD02D2B3FF472AF002330
:100B2000144674E716B1336800221A70284609B0DB
:100B3000F0BD00BFC5080800CC1408004909080032
:100B4000B50808000FB400B583B004AA52F8041B1E
:100B500001920020034B984703B05DF804EB04B00A
:100B6000704700BFF5090800154AD2F8003143F07C
:100B70001003C2F80031134B1A6942F400221A61C3
:100B80005A6842F400225A601A6F42F400221A672F
:100B90000D4AD2F8E43023F00103C2F8E43040F209
:100BA0000A220A4B1A604FF4CD620C331A607B2282
:100BB000083B1A602022A3F528731A60704700BF13
:100BC00000060E4000120E4000400940A0420940BD
:100BD000064B1A6842F480321A601A6942F4803275
:100BE0001A611A6B42F480321A637047000E0E408D
:100BF000042805D0042818D000220C4B1A60704736
:100C00000A4B1B68002BF5D110B50122074B1A6067
:100C1000074C636B43F4803363636420054B984750
:100C2000236B43F48033236310BD70477C040020A2
:100C3000000E0E40710C08000A4B18600A4B53223C
:100C40005A60F021094A82F8231000229A60072294
:100C50001A60044B1B68002BFBD10022024B1A6068
:100C6000704700BF8004002010E000E000ED00E0CD
:100C70000A4B18600A4B0B4A5A60F0210A4A82F864
:100C8000231000229A6007221A60044B1B68002B75
:100C9000FBD10022024B1A60704700BF8004002085
:100CA00010E000E01F48010000ED00E0024A136878
:100CB000013B1360704700BF80040020164B0022E8
:100CC0001A705A70154B4FF44071596459601A6F7D
:100CD000186F024022F440721A6759664FF480720E
:100CE000A3F500631A6103F50073AC21196040F2AB
:100CF000232119624FF40061596040F20221C3F8C8
:100D000020114FF0FF31D960E121996004490A6058
:100D100050221A60704700BF84040020000E0E406D
:100D200000E100E0074B5B6913F0020F08D0054BB0
:100D3000D861044B5B6913F4007FFAD00020704740
:100D40000120704700080E4008B5154B5B6913F091
:100D5000E00F03D04FF4A871114A116013F0010F96
:100D600012D010484278531C594203F03F0301F05F
:100D70003F0158BF4B4201788B4206D00849886931
:100D800008490A4490704B7008BD0748074B9847C4
:100D9000044B5978024A92690B449A7008BD00BF0F
:100DA00000080E4084040020D4140800450B0800FD
:100DB00080F0004002E000BF81F0004142001FBF10
:100DC0005FEA410392EA030F7FEA226C7FEA236C19
:100DD0006AD04FEA1262D2EB1363C1BFD21841400E
:100DE00048404140B8BF5B42192B88BF704710F0A4
:100DF000004F40F4000020F07F4018BF404211F047
:100E0000004F41F4000121F07F4118BF494292EAAE
:100E1000030F3FD0A2F1010241FA03FC10EB0C00DA
:100E2000C3F1200301FA03F100F0004302D5494267
:100E300060EB4000B0F5000F13D3B0F1807F06D314
:100E400040084FEA310102F10102FE2A51D2B1F10C
:100E5000004F40EBC25008BF20F0010040EA030001
:100E60007047490040EB000010F4000FA2F10102AE
:100E7000EDD1B0FA80FCACF1080CB2EB0C0200FA38
:100E80000CF0AABF00EBC25052421843BCBFD04086
:100E90001843704792F0000F81F4000106BF80F400
:100EA00000000132013BB5E74FEA41037FEA226CC3
:100EB00018BF7FEA236C21D092EA030F04D092F08E
:100EC000000F08BF0846704790EA010F1CBF0020C2
:100ED000704712F07F4F04D1400028BF40F000401F
:100EE000704712F100723CBF00F50000704700F03F
:100EF000004343F0FE4040F4000070477FEA226266
:100F000016BF08467FEA23630146420206BF5FEA36
:100F1000412390EA010F40F4800070474FF0000336
:100F200004E000BF10F0004348BF40425FEA000CFD
:100F300008BF704743F0964301464FF000001CE0A5
:100F400050EA010208BF70474FF000030AE000BFFB
:100F500050EA010208BF704711F0004302D5404239
:100F600061EB41015FEA010C02BF844601460020AB
:100F700043F0B64308BFA3F18053A3F50003BCFAC6
:100F80008CF2083AA3EBC25310DB01FA02FC634473
:100F900000FA02FCC2F12002BCF1004F20FA02F27A
:100FA00043EB020008BF20F00100704702F120026D
:100FB00001FA02FCC2F1200250EA4C0021FA02F2CE
:100FC00043EB020008BF20EADC7070474FF0FF0CD3
:100FD0001CEAD0521EBF1CEAD15392EA0C0F93EACE
:100FE0000C0F6FD01A4480EA010C400218BF5FEA70
:100FF00041211ED04FF0006343EA501043EA5111E3
:10100000A0FB01310CF00040B1F5000F3EBF4900DC
:1010100041EAD3715B0040EA010062F17F02FD2AE0
:101020001DD8B3F1004F40EBC25008BF20F00100C3
:10103000704790F0000F0CF0004C08BF49024CEADA
:10104000502040EA51207F3AC2BFD2F1FF0340EA6C
:10105000C250704740F400004FF00003013A5DDCDD
:1010600012F1190FDCBF00F000407047C2F100021E
:10107000410021FA02F1C2F1200200FA02FC5FEA0B
:10108000310040F1000053EA4C0308BF20EADC7055
:10109000704792F0000F00F0004C02BF400010F4C7
:1010A000000F013AF9D040EA0C0093F0000F01F074
:1010B000004C02BF490011F4000F013BF9D041EA96
:1010C0000C018FE70CEAD15392EA0C0F18BF93EA98
:1010D0000C0F0AD030F0004C18BF31F0004CD8D1C2
:1010E00080EA010000F00040704790F0000F17BF49
:1010F00090F0004F084691F0000F91F0004F14D08F
:1011000092EA0C0F01D142020FD193EA0C0F03D1E6
:101110004B0218BF084608D180EA010000F00040E9
:1011200040F0FE4040F40000704740F0FE4040F4C4
:10113000400070474FF0FF0C1CEAD0521EBF1CEA63
:10114000D15392EA0C0F93EA0C0F69D0A2EB030281
:1011500080EA010C49024FEA402037D04FF080531B
:1011600043EA111143EA10130CF000408B4238BFE0
:101170005B0042F17D024FF4000C8B4224BF5B1AEE
:1011800040EA0C00B3EB510F24BFA3EB510340EA3C
:101190005C00B3EB910F24BFA3EB910340EA9C00EA
:1011A000B3EBD10F24BFA3EBD10340EADC001B015A
:1011B00018BF5FEA1C1CE0D1FD2A3FF650AF8B42FE
:1011C00040EBC25008BF20F0010070470CF0004C0B
:1011D0004CEA50207F32C2BFD2F1FF0340EAC25036
:1011E000704740F400004FF00003013A37E792F0F7
:1011F000000F00F0004C02BF400010F4000F013A55
:10120000F9D040EA0C0093F0000F01F0004C02BF4F
:10121000490011F4000F013BF9D041EA0C0195E7B8
:101220000CEAD15392EA0C0F08D142027FF47DAF51
:1012300093EA0C0F7FF470AF084676E793EA0C0F41
:1012400004D14B023FF44CAF08466EE730F0004C3F
:1012500018BF31F0004CCAD130F000427FF45CAFCF
:1012600031F000437FF43CAF5FE700BF4FEA40023C
:10127000B2F1FE4F0FD34FF09E03B3EB12620DD9C4
:101280004FEA002343F0004310F0004F23FA02F02E
:1012900018BF404270474FF00000704712F1610FD5
:1012A00001D1420205D110F0004008BF6FF00040AC
:1012B00070474FF00000704770B50F4E0F4D761B12
:1012C000B61018BF002405D0013455F8043B9847E8
:1012D000A642F9D10A4E0B4D00F00EF9761BB6105E
:1012E00018BF002406D0013455F8043B9847A642A5
:1012F000F9D170BD70BD00BF0415080004150800C9
:101300000C15080004150800024B13B1024800F048
:1013100005B87047000000002913080000230146AB
:101320001A46184600F01EB838B50A4C0A4D641B20
:10133000A4100AD004F18043013B05EB8305013C76
:1013400055F804399847002CF9D1BDE8384000F031
:10135000DDB800BF1C15080018150800704700BF55
:10136000704700BF2DE9F8432C4D06462868984683
:101370000F469146FFF7F2FF294B1C68D4F848311D
:10138000002B3ED05A681F2A1CDC02F1010E76B1F8
:10139000012103EB8204C4F88890D3F888019140BE
:1013A0000843022EC3F88801C4F8088123D0023212
:1013B000C3F804E0286843F82270FFF7D1FF00204B
:1013C000BDE8F883174B0BB34FF4C870AFF3008040
:1013D0000346D8B10020D4F848114FF0010E5860F0
:1013E00019600246C4F84831C3F88801C3F88C017B
:1013F000002EDCD0CCE7D3F88C010143C3F88C116C
:10140000D5E704F5A673C4F84831BBE72868FFF7B1
:10141000A7FF4FF0FF30BDE8F88300BF380400207D
:10142000F4140800000000006D656C64696E6700CC
:1014300069642025640A00006C656E677468202565
:10144000640A0000646174612025630A00000000E2
:10145000736572766F3A2025640A000043414E306E
:10146000206D65737361676520617272697665646A
:1014700020696E206E6F6E2D75736564206D6169D5
:101480006C626F780A0D000068656900752D7265E1
:10149000663A202564202D2D2D2D2D2D2D2D2D3E10
:1014A00072656672656E63652564202D2D2D2D2D68
:1014B0002D2D2D2D2D2D2D2D2D2D2D2D2D2D2D3E4B
:1014C000656E636F6465723A25640A00286E756CF8
:1014D0006C2900004552523A20554152542052582E
:1014E000206275666665722069732066756C6C0A89
:1014F0000D00000010000020F8B500BFF8BC08BCCB
:101500009E4670470913080019010800F8B500BF8E
:0C151000F8BC08BC9E467047F5000800BF
:10151C0000093D00030000005D0000000000000019
:10152C0000000000FC02002064030020CC0300201B
:10153C00000000000000000000000000000000009F
:10154C00000000000000000000000000000000008F
:10155C00000000000000000000000000000000007F
:10156C00000000000000000000000000000000006F
:10157C00000000000000000000000000000000005F
:10158C00000000000000000000000000000000004F
:10159C00000000000000000000000000000000003F
:1015AC00000000000000000000000000000000002F
:1015BC00000000000000000000000000000000001F
:1015CC00000000000000000001000000000000000E
:1015DC000E33CDAB34126DE6ECDE05000B000000D3
:1015EC0000000000000000000000000000000000EF
:1015FC0000000000000000000000000000000000DF
:10160C0000000000000000000000000000000000CE
:10161C0000000000000000000000000000000000BE
:0C194C000000000000000000C8040020A3
:040000038000000079
:00000001FF
