S00D00004E6F6465322E737265635F
S214080000D8080020C1040800BD040800BD04080084
S214080010BD040800BD040800BD0408000000000078
S214080020000000000000000000000000BD040800FA
S214080030BD04080000000000BD040800BD04080058
S214080040BD040800BD040800BD040800BD0408007F
S214080050BD040800BD040800BD040800BD0408006F
S214080060810A0800BD04080000000000BD0408005E
S214080070BD040800BD040800BD0408000000000018
S21408008000000000BD040800BD040800BD04080008
S214080090BD040800BD040800BD040800BD0408002F
S2140800A0BD04080000000000BD040800BD040800E8
S2140800B0BD040800BD040800BD040800BD0408000F
S2140800C0BD040800BD040800BD040800BD040800FF
S2140800D0BD040800BD040800BD040800BD040800EF
S2140800E0BD040800BD040800BD040800210308007C
S2140800F0BD04080010B5054C237833B9044B13B17A
S2140801000448AFF300800123237010BD4404002088
S214080110000000006C0D08000C4B43B10C4810B5ED
S2140801200C49AFF300800C48036823B910BD0A4891
S214080130036833B97047094B002BF7D0BDE8104069
S2140801401847064B002BF5D0184700BF00000000E4
S2140801506C0D0800480400206C0D08000000000024
S214080160084B80225A6001221A61074A0749C2F8DA
S2140801700C11D2F8001141F02001C2F80011022239
S2140801801A60704700000C4000060E40250000105C
S214080190044B1B6D9BB2B3F57A7F01D901207047DB
S2140801A00020704700000C40F0B45718082FD4BF42
S2140801B000230123082998BF082A5CD80D46002B7F
S2140801C059D12E4A136823F00103136013692C4B88
S2140801D04FF440745C641C6F24F003041C6703240B
S2140801E05C605C66A3F50063264CC3F80C41D3F844
S2140801F0004144F40064C3F800415061002419E04B
S2140802001E4801F110035B01C2180026566000EB79
S21408021041124FF00056C2F808624FF08076C6507A
S214080220D2F81C3243F40003C2F81C3201238B4078
S2140802301C430131B942E3DD00230DE00F4901EB11
S21408024043124FF00050C2F8080203F110025201A0
S2140802504FF0407088500133AB42EFDB074B5C60D1
S2140802604FF40061084A51601A6842F001021A60A9
S2140802700020F0BC70470120FBE700BF00400B40A1
S214080280000E0E402B10001000E100E008B5022218
S2140802900121014B984708BDA90108004B0103F14D
S2140802A0402303F53023D3F8103213F4000F33D06D
S2140802B070B44B0103F1402303F53023D3F81442FE
S2140802C0D3F81822D3F80852C5F38A450580D3F820
S2140802D01052C5F303458570002303E0C618F27074
S2140802E0120A0133AB4205DA032BF7DCC618F470A2
S2140802F0240AF6E7094B01F1100252014FF080700C
S214080300985003EB4111D1F81C3243F40003C1F8AE
S2140803101C32002070BC70470120704700400B401C
S21408032070B584B0534B1C6914F0060F00F0948027
S21408033014F0020F14D114F0040F16D0022101A8ED
S2140803404D4B9847BDF80430322B12D0BDF8043018
S2140803500A2B2FD0BDF80430142B73D0002377E077
S214080360012101A8444B9847ECE74448444B98477A
S214080370E8E74448424DA847BDF804104248A84755
S2140803809DF806104148A847414E9DF8071030468C
S214080390A8479DF808103046A8479DF8091030462B
S2140803A0A8479DF80A103046A8479DF80B10304617
S2140803B0A847CBE79DF80730364A1288934219D0EB
S2140803C0344A928893421FD0334A1288934225D0E3
S2140803D0304AD28893422BD02E4A12899342B9D1FA
S2140803E02C4B99782D48264DA8479DF807102C4881
S2140803F0A847AFE7274B99782A48214DA8479DF884
S21408040007102748A847A5E7224B997826481C4D89
S214080410A8479DF807102248A8479BE71D4B9978E0
S2140804202248174DA8479DF807101D48A84791E78A
S214080430184B99781E48124DA8479DF8071018487B
S214080440A84787E79DF807001A4B984786E70133C1
S2140804509DF806209342FADB14F0010F02D0012221
S214080460044B9A604FF40062134BC3F8842104B01F
S21408047070BD00BF00400B409D020800580C0800E5
S21408048045090800840C08008C0C0800940C080029
S214080490A00C08000000002060040020D80C08000B
S2140804A0E00C0800AC0C0800B40C0800C00C0800EF
S2140804B0CC0C0800D109080000E100E0FEE70000C7
S2140804C008B5114B114A9A4209D00F4B0F4A03E060
S2140804D011681960043304320D498B42F8D30D4B6A
S2140804E002E000221A6004330B4A9342F9D30B4BFE
S2140804F023F0604323F07F03094A9360094B98472B
S214080500094B9847FEE700BF000000206C0D080066
S2140805104404002044040020D404002000000800FE
S21408052000ED00E0E90A0800250608004FF480639D
S214080530204A136002F5007213601F4B1B6A13F003
S214080540807F07D11D4A1C4B1A621B4B9B6E13F00B
S214080550010FFAD01A4A184B1A62174B9B6E13F4FF
S214080560803FFAD0144A136B23F0030343F00103C9
S2140805701363114B9B6E13F0080FFAD0114A0E4BFB
S2140805809A620D4B9B6E13F0020FFAD011220A4B9B
S2140805901A63094B9B6E13F0080FFAD01222064B0B
S2140805A01A63054B9B6E13F0080FFAD0064A074BE2
S2140805B01A607047000A0E4000060E400908370009
S2140805C009083701013F0D2000BD01050C00002079
S2140805D008B50E4B984730B90D4B1B681BB90C4B2A
S2140805E001225A601A600A4B5A680A4B1B689A42DC
S2140805F005D0074B59680848084B984708BD08486F
S214080600064B98470022024B5A60F2E79101080011
S2140806106404002010000020F00C080045090800BB
S214080620E40C080000B583B065238DF80730144B3A
S21408063098474FF40042134B5A60134B9847134899
S214080640134B9847134B9847134B984703E0134BA5
S214080650984701280DD0124B9847124B98470F4BD6
S21408066098470028F3D19DF807100F480F4B984776
S214080670F1E79DF807100E480C4B9847EBE700BFCC
S2140806802D050800501A0E40F509080065012900D6
S2140806908D02080069090800610108009101080038
S2140806A021030800D10508000C0D080045090800BC
S2140806B0140D080008B5C8B2014B984708BD00BF1E
S2140806C05D0A08002DE9F04107460E46151E02DDB4
S2140806D00A46002104E04FF020080EE001310132FE
S2140806E010780028FAD1A94201DA6D1A00E0002530
S2140806F013F0020F06D14FF0200813F001040AD0B9
S214080700002410E04FF03008F7E7414638460D4B16
S21408071098470134013D002DF7DC04E03846094BC4
S21408072098470134013631780029F7D105E041466B
S2140807303846044B98470134013D002DF7DC204627
S214080740BDE8F081B5060800F0B585B007460C98F8
S21408075051B11E460C4613B10A2A12D0002604AD23
S214080760002305F8013D18E030238DF804300023F7
S2140807708DF805300B9B0A9A01A938461B4CA047F2
S21408078029E0002901DB0026E9E74C420126E6E7D6
S214080790303305F8013DB4FBF2F44CB1B4FBF2F388
S2140807A002FB1343092BF3DDA0F13A010B44EFE7F4
S2140807B056B10A9B1BB10B9B13F0020F0DD12D23CC
S2140807C005F8013C013D00260B9B0A9A2946384647
S2140807D0064CA047304405B0F0BD2D213846044BE2
S2140807E098470A9B013B0A93EEE700BFC506080038
S2140807F0B5060800F0B589B006460C4605920025F1
S21408080081E0A21C01238BE0013443F00203227826
S214080810302AF9D0002206E002EB82025000A1F14D
S2140808203002024401342178A1F13000C0B2092810
S214080830F2D9732918D0642922D078292FD05829BC
S2140808403CD0752949D063295CD10599081D0590C7
S21408085009788DF81C1000218DF81D1007A9304660
S214080860344FB84705444DE00599081D05900968BA
S21408087021B130462F4FB847054443E02E49F8E7E4
S2140808800599081D05900968612002900193009259
S21408089001230A223046294FB847054432E0059915
S2140808A0081D0590096861200290019300920023B4
S2140808B010223046214FB847054423E00599081D05
S2140808C005900968412002900193009200231022A7
S2140808D030461A4FB847054414E00599081D059098
S2140808E00968612002900193009200230A2230468C
S2140808F0124FB847054405E0144621783046104B99
S214080900984701350134237863B1252BF5D1621C4D
S21408091063783BB1252BEFD02D2B3FF472AF002325
S214080920144674E716B1336800221A70284609B0D0
S214080930F0BD00BFC50608001C0D080049070800E2
S214080940B50608000FB400B583B004AA52F8041B15
S21408095001920020034B984703B05DF804EB04B0FF
S214080960704700BFF5070800154AD2F8003143F073
S2140809701003C2F80031134B1A6942F400221A61B8
S2140809805A6842F400225A601A6F42F400221A6724
S2140809900D4AD2F8E43023F00103C2F8E43040F2FE
S2140809A00A220A4B1A604FF4CD620C331A607B2277
S2140809B0083B1A602022A3F528731A60704700BF08
S2140809C000060E4000120E4000400940A0420940B2
S2140809D000EB40004301054A82FB03121A44DB176A
S2140809E0C3EBE2135C33024A136070478180808051
S2140809F0A4420940164B00221A705A70154B4FF441
S214080A004071596459601A6F186F024022F4407298
S214080A101A6759664FF48072A3F500631A6103F5E6
S214080A200073AC21196040F2232119624FF400616B
S214080A30596040F20221C3F820114FF0FF31D96007
S214080A40E121996004490A6050221A60704700BF85
S214080A506C040020000E0E4000E100E0074B5B69C6
S214080A6013F0020F08D0054BD861044B5B6913F4EA
S214080A70007FFAD0002070470120704700080E401B
S214080A8008B5154B5B6913F0E00F03D04FF4A87157
S214080A90114A116013F0010F12D010484278531C07
S214080AA0594203F03F0301F03F0158BF4B4201781B
S214080AB08B4206D00849886908490A4490704B70EA
S214080AC008BD0748074B9847044B5978024A92696D
S214080AD00B449A7008BD00BF00080E406C04002046
S214080AE0240D08004509080070B50F4E0F4D761BFB
S214080AF0B61018BF002405D0013455F8043B9847B3
S214080B00A642F9D10A4E0B4D00F01EF9761BB61018
S214080B1018BF002406D0013455F8043B9847A6426F
S214080B20F9D170BD70BD00BF540D0800540D080003
S214080B305C0D0800540D0800024B13B1024800F083
S214080B4005B8704700000000590B0800002301464E
S214080B501A46184600F01EB838B50A4C0A4D641BEB
S214080B60A4100AD004F18043013B05EB8305013C41
S214080B7055F804399847002CF9D1BDE8384000F0FC
S214080B80EDB800BF6C0D0800680D0800704700BF80
S214080B90704700BF2DE9F8432C4D0646286898464E
S214080BA00F469146FFF7F2FF294B1C68D4F84831E8
S214080BB0002B3ED05A681F2A1CDC02F1010E76B1C3
S214080BC0012103EB8204C4F88890D3F88801914089
S214080BD00843022EC3F88801C4F8088123D00232DD
S214080BE0C3F804E0286843F82270FFF7D1FF002016
S214080BF0BDE8F883174B0BB34FF4C870AFF300800B
S214080C000346D8B10020D4F848114FF0010E5860BA
S214080C1019600246C4F84831C3F88801C3F88C0145
S214080C20002EDCD0CCE7D3F88C010143C3F88C1136
S214080C30D5E704F5A673C4F84831BBE72868FFF77C
S214080C40A7FF4FF0FF30BDE8F88300BF4004002040
S214080C50440D08000000000043414E30206D6573C7
S214080C6073616765206172726976656420696E20B3
S214080C706E6F6E2D75736564206D61696C626F7832
S214080C800A0D00006D656C64696E6700696420254E
S214080C90640A00006C656E6774682025640A0000A4
S214080CA0646174612025630A0000000075702025C1
S214080CB0630A0000646F776E2025630A0000000050
S214080CC06C6566742025630A000000007269676810
S214080CD0742025630A0000006E65757472616C20C6
S214080CE025630A0047616D65206F7665720000000F
S214080CF02D2D2D2D2D2D2D2D2D2D2D2D2D2D2D2D17
S214080D002D2D2D2D2D3E25640A00000046414C53FE
S214080D102563000054525525630A0000286E756C3A
S214080D206C2900004552523A2055415254205258D8
S214080D30206275666665722069732066756C6C0A33
S214080D400D00000018000020F8B500BFF8BC08BC6D
S214080D509E467047390B080019010800F8B500BF11
S210080D60F8BC08BC9E467047F50008006A
S214080D6C02006500030001000400000000093D00B5
S214080D7C0300000000000000000000000403002030
S214080D8C6C030020D40300200000000000000000C4
S214080D9C000000000000000000000000000000003A
S214080DAC000000000000000000000000000000002A
S214080DBC000000000000000000000000000000001A
S214080DCC000000000000000000000000000000000A
S214080DDC00000000000000000000000000000000FA
S214080DEC00000000000000000000000000000000EA
S214080DFC00000000000000000000000000000000DA
S214080E0C00000000000000000000000000000000C9
S214080E1C00000000000000000000000000000000B9
S214080E2C01000000000000000E33CDAB34126DE656
S214080E3CECDE05000B0000000000000000000000BF
S214080E4C0000000000000000000000000000000089
S214080E5C0000000000000000000000000000000079
S214080E6C0000000000000000000000000000000069
S214080E7C0000000000000000000000000000000059
S2080811ACB00400205E
S804080000F3
