S00D00004E6F6465322E737265635F
S214080000D8080020210508001D0508001D05080061
S2140800101D0508001D0508001D0508000000000055
S2140800200000000000000000000000001D05080099
S2140800301D050800000000001D0508001D05080035
S2140800401D0508001D0508001D0508001D050800FB
S2140800501D0508001D0508001D0508001D050800EB
S214080060A10B08001D050800000000001D0508007B
S2140800701D0508001D0508001D05080000000000F5
S214080080000000001D0508001D0508001D050800E5
S2140800901D0508001D0508001D0508001D050800AB
S2140800A01D050800000000001D0508001D050800C5
S2140800B01D0508001D0508001D0508001D0508008B
S2140800C01D0508001D0508001D0508001D0508007B
S2140800D01D0508001D0508001D0508001D0508006B
S2140800E01D0508001D0508001D0508002103080059
S2140800F01D05080010B5054C237833B9044B13B119
S2140801000448AFF300800123237010BD4404002088
S214080110000000007C0E08000C4B43B10C4810B5DC
S2140801200C49AFF300800C48036823B910BD0A4891
S214080130036833B97047094B002BF7D0BDE8104069
S2140801401847064B002BF5D0184700BF00000000E4
S2140801507C0E0800480400207C0E08000000000002
S214080160084B80225A6001221A61074A0749C2F8DA
S2140801700C11D2F8001141F02001C2F80011022239
S2140801801A60704700000C4000060E40250000105C
S214080190044B1B6D9BB2B3F57A7F01D901207047DB
S2140801A00020704700000C40F0B45718082FD4BF42
S2140801B000230123082998BF082A5CD80D46002B7F
S2140801C059D12E4A136823F00103136013692C4B88
S2140801D04FF440745C641C6F24F003041C6703240B
S2140801E05C605C66A3F50063264CC3F80C41D3F844
S2140801F0004144F40064C3F800415061002419E04B
S2140802001E4801F110035B01C2180026566000EB79
S21408021041124FF00056C2F808624FF08076C6507A
S214080220D2F81C3243F40003C2F81C3201238B4078
S2140802301C430131B942E3DD00230DE00F4901EB11
S21408024043124FF00050C2F8080203F110025201A0
S2140802504FF0407088500133AB42EFDB074B5C60D1
S2140802604FF40061084A51601A6842F001021A60A9
S2140802700020F0BC70470120FBE700BF00400B40A1
S214080280000E0E402B10001000E100E008B5022218
S2140802900121014B984708BDA90108004B0103F14D
S2140802A0402303F53023D3F8103213F4000F33D06D
S2140802B070B44B0103F1402303F53023D3F81442FE
S2140802C0D3F81822D3F80852C5F38A450580D3F820
S2140802D01052C5F303458570002303E0C618F27074
S2140802E0120A0133AB4205DA032BF7DCC618F470A2
S2140802F0240AF6E7094B01F1100252014FF080700C
S214080300985003EB4111D1F81C3243F40003C1F8AE
S2140803101C32002070BC70470120704700400B401C
S21408032070B584B0584B1C6914F0060F00F09E8018
S21408033014F0020F14D114F0040F16D0022101A8ED
S214080340524B9847BDF80430322B12D0BDF8043013
S2140803500A2B2FD0BDF80430142B73D0002381E06D
S214080360012101A8494B9847ECE74948494B98476B
S214080370E8E74948474DA847BDF804104748A84746
S2140803809DF806104648A847464E9DF80710304682
S214080390A8479DF808103046A8479DF8091030462B
S2140803A0A8479DF80A103046A8479DF80B10304617
S2140803B0A847CBE79DF807303B4A1288934219D0E6
S2140803C0394A928893421FD0384A1288934225D0D9
S2140803D0354AD28893422BD0334A12899342B9D1F0
S2140803E0314B997832482B4DA8479DF8071031486D
S2140803F0A847AFE72C4B99782F48264DA8479DF875
S21408040007102C48A847A5E7274B99782B48214D75
S214080410A8479DF807102748A8479BE7224B9978D6
S21408042027481C4DA8479DF807102248A84791E77B
S2140804301D4B99782348174DA8479DF807101D4867
S214080440A84787E79DF807001F4B98479DF80700C1
S2140804501E4B98479DF8072001461D480D4B9847A8
S2140804607CE701339DF806209342FADB14F0010F6F
S21408047002D00122044B9A604FF40062154BC3F871
S214080480842104B070BD00BF00400B409D020800E8
S214080490780D0800890A0800A40D0800AC0D0800AD
S2140804A0B40D0800C00D08000000002060040020FD
S2140804B0F80D0800000E0800CC0D0800D40D080042
S2140804C0E00D0800EC0D080085070800690608001E
S2140804D0040E080000E100E0014B18621B6B704731
S2140804E000800C4008B50A4B0A4AC3F80C21D3F81A
S2140804F0002142F04002C3F80021A3F5C3334FF4AD
S21408050080325A6002221A610020034B984708BDC1
S21408051000060E4026000010D9040800FEE700007A
S21408052008B5114B114A9A4209D00F4B0F4A03E0FF
S21408053011681960043304320D498B42F8D30D4B09
S21408054002E000221A6004330B4A9342F9D30B4B9D
S21408055023F0604323F07F03094A9360094B9847CA
S214080560094B9847FEE700BF000000207C0E0800F5
S2140805704404002044040020D4040020000008009E
S21408058000ED00E0090C0800B90608004FF4806387
S214080590204A136002F5007213601F4B1B6A13F0A3
S2140805A0807F07D11D4A1C4B1A621B4B9B6E13F0AB
S2140805B0010FFAD01A4A184B1A62174B9B6E13F49F
S2140805C0803FFAD0144A136B23F0030343F0010369
S2140805D01363114B9B6E13F0080FFAD0114A0E4B9B
S2140805E09A620D4B9B6E13F0020FFAD011220A4B3B
S2140805F01A63094B9B6E13F0080FFAD01222064BAB
S2140806001A63054B9B6E13F0080FFAD0064A074B81
S2140806101A607047000A0E4000060E4009083700A8
S21408062009083701013F0D2000BD01050C00002018
S21408063008B50A4B984730B9094B1B681BB9084BD5
S21408064001225A601A60064B5A68064B1B689A4283
S21408065000D008BD0022024B5A60FAE79101080054
S2140806606404002010000020114A1368C31A64208E
S21408067000FB03F00F4B83FB0013C017C0EB2310DF
S2140806801368C3F16502002807DD642202FB00F048
S214080690C3F1C90390FBF3F07047002800DB7047EE
S2140806A0642303FB00F09A1A90FBF2F0F7E700BF0A
S2140806B014000020CBF08D2800B583B065238DF894
S2140806C00730104B98474FF400420F4B5A600F4BB9
S2140806D098470F480F4B98470F4B98470F4B98472C
S2140806E00F4B98470F4B98470F4B98470F4B984719
S2140806F00F4B98470F4B98470028F7D00D4B984755
S214080700F4E700BF8D050800501A0E40150B0800C8
S214080710650129008D020800AD0A0800610108007D
S214080720E504080039070800E9070800210308005F
S214080730310608009101080008B50F4B98470F4B83
S214080740196840F20760014319601A6902431A6182
S214080750A3F500731A6842F4FF721A605A6942F4E5
S214080760FF725A61A3F54063054AC3F80C211A695B
S21408077042F400521A6108BDE504080000140E4051
S2140807800D00001010B5124B984700281ADD4FF4DC
S2140807908062104B1A630028B8BF404200EB800402
S2140807A0C0EB04200C4C84FB0034C017C0EB641468
S2140807B06400A4B221460948094B98472046094BCD
S2140807C0984710BD4FF48062024B5A63E3E700BFB8
S2140807D06906080000140E401F85EB51200E08001D
S2140807E0890A0800D90408004FF40072014B1A63FE
S2140807F0704700BF00140E4008B5C8B2014B9847B2
S21408080008BD00BF7D0B08002DE9F04107460E46DF
S214080810151E02DD0A46002104E04FF020080EE00F
S2140808200131013210780028FAD1A94201DA6D1A8E
S21408083000E0002513F0020F06D14FF0200813F051
S21408084001040AD0002410E04FF03008F7E74146CC
S21408085038460D4B98470134013D002DF7DC04E07F
S2140808603846094B98470134013631780029F7D1C4
S21408087005E041463846044B98470134013D002DB3
S214080880F7DC2046BDE8F081F9070800F0B585B02A
S21408089007460C9851B11E460C4613B10A2A12D0C8
S2140808A0002604AD002305F8013D18E030238DF836
S2140808B0043000238DF805300B9B0A9A01A93846A8
S2140808C01B4CA04729E0002901DB0026E9E74C423B
S2140808D00126E6E7303305F8013DB4FBF2F44CB1E7
S2140808E0B4FBF2F302FB1343092BF3DDA0F13A0144
S2140808F00B44EFE756B10A9B1BB10B9B13F0020F94
S2140809000DD12D2305F8013C013D00260B9B0A9AC4
S21408091029463846064CA047304405B0F0BD2D2180
S2140809203846044B98470A9B013B0A93EEE700BFFC
S21408093009080800F9070800F0B589B006460C460D
S2140809400592002581E0A21C01238BE0013443F0C8
S21408095002032278302AF9D0002206E002EB82024F
S2140809605000A1F13002024401342178A1F1300090
S214080970C0B20928F2D9732918D0642922D0782958
S2140809802FD058293CD0752949D063295CD10599C0
S214080990081D059009788DF81C1000218DF81D108B
S2140809A007A93046344FB84705444DE00599081D59
S2140809B00590096821B130462F4FB847054443E0F3
S2140809C02E49F8E70599081D0590096861200290E8
S2140809D00193009201230A223046294FB84705445E
S2140809E032E00599081D0590096861200290019378
S2140809F00092002310223046214FB847054423E0D2
S214080A000599081D059009684120029001930092F7
S214080A100023102230461A4FB847054414E00599BB
S214080A20081D059009686120029001930092002332
S214080A300A223046124FB847054405E01446217886
S214080A403046104B984701350134237863B1252B7F
S214080A50F5D1621C63783BB1252BEFD02D2B3FF4E4
S214080A6072AF0023144674E716B1336800221A7072
S214080A70284609B0F0BD00BF090808002C0E08007B
S214080A808D080800F90708000FB400B583B004AA5B
S214080A9052F8041B01920020034B984703B05DF8F8
S214080AA004EB04B0704700BF39090800154AD2F8AD
S214080AB0003143F01003C2F80031134B1A6942F4B0
S214080AC000221A615A6842F400225A601A6F42F4E9
S214080AD000221A670D4AD2F8E43023F00103C2F860
S214080AE0E43040F20A220A4B1A604FF4CD620C3307
S214080AF01A607B22083B1A602022A3F528731A6026
S214080B00704700BF00060E4000120E400040094025
S214080B10A0420940164B00221A705A70154B4FF423
S214080B204071596459601A6F186F024022F4407277
S214080B301A6759664FF48072A3F500631A6103F5C5
S214080B400073AC21196040F2232119624FF400614A
S214080B50596040F20221C3F820114FF0FF31D960E6
S214080B60E121996004490A6050221A60704700BF64
S214080B706C040020000E0E4000E100E0074B5B69A5
S214080B8013F0020F08D0054BD861044B5B6913F4C9
S214080B90007FFAD0002070470120704700080E40FA
S214080BA008B5154B5B6913F0E00F03D04FF4A87136
S214080BB0114A116013F0010F12D010484278531CE6
S214080BC0594203F03F0301F03F0158BF4B420178FA
S214080BD08B4206D00849886908490A4490704B70C9
S214080BE008BD0748074B9847044B5978024A92694C
S214080BF00B449A7008BD00BF00080E406C04002025
S214080C00340E0800890A080070B50F4E0F4D761B83
S214080C10B61018BF002405D0013455F8043B984791
S214080C20A642F9D10A4E0B4D00F016F9761BB610FF
S214080C3018BF002406D0013455F8043B9847A6424E
S214080C40F9D170BD70BD00BF640E0800640E0800C0
S214080C506C0E0800640E0800024B13B1024800F040
S214080C6005B8704700000000790C0800002301460C
S214080C701A46184600F01EB838B50A4C0A4D641BCA
S214080C80A4100AD004F18043013B05EB8305013C20
S214080C9055F804399847002CF9D1BDE8384000F0DB
S214080CA0E5B800BF7C0E0800780E0800704700BF45
S214080CB0704700BF2DE9F8432C4D0646286898462D
S214080CC00F469146FFF7F2FF294B1C68D4F84831C7
S214080CD0002B3ED05A681F2A1CDC02F1010E76B1A2
S214080CE0012103EB8204C4F88890D3F88801914068
S214080CF00843022EC3F88801C4F8088123D00232BC
S214080D00C3F804E0286843F82270FFF7D1FF0020F4
S214080D10BDE8F883174B0BB34FF4C870AFF30080E9
S214080D200346D8B10020D4F848114FF0010E586099
S214080D3019600246C4F84831C3F88801C3F88C0124
S214080D40002EDCD0CCE7D3F88C010143C3F88C1115
S214080D50D5E704F5A673C4F84831BBE72868FFF75B
S214080D60A7FF4FF0FF30BDE8F88300BF400400201F
S214080D70540E08000000000043414E30206D657395
S214080D8073616765206172726976656420696E2092
S214080D906E6F6E2D75736564206D61696C626F7811
S214080DA00A0D00006D656C64696E6700696420252D
S214080DB0640A00006C656E6774682025640A000083
S214080DC0646174612025630A0000000075702025A0
S214080DD0630A0000646F776E2025630A000000002F
S214080DE06C6566742025630A0000000072696768EF
S214080DF0742025630A0000006E65757472616C20A5
S214080E0025630A00783A2564202D2D2D2D2D2D2DAD
S214080E102D2D2D2D2D2D3E7863616E3A25640A0002
S214080E200A73706565643A25640A0000286E756C56
S214080E306C2900004552523A2055415254205258C7
S214080E40206275666665722069732066756C6C0A22
S214080E500D00000018000020F8B500BFF8BC08BC5C
S214080E609E467047590C080019010800F8B500BFDF
S210080E70F8BC08BC9E467047F500080059
S214080E7C02006500030001000400000000093D00A4
S214080E8C030000005D0000000000000004030020C2
S214080E9C6C030020D40300200000000000000000B3
S214080EAC0000000000000000000000000000000029
S214080EBC0000000000000000000000000000000019
S214080ECC0000000000000000000000000000000009
S214080EDC00000000000000000000000000000000F9
S214080EEC00000000000000000000000000000000E9
S214080EFC00000000000000000000000000000000D9
S214080F0C00000000000000000000000000000000C8
S214080F1C00000000000000000000000000000000B8
S214080F2C00000000000000000000000000000000A8
S214080F3C01000000000000000E33CDAB34126DE645
S214080F4CECDE05000B0000000000000000000000AE
S214080F5C0000000000000000000000000000000078
S214080F6C0000000000000000000000000000000068
S214080F7C0000000000000000000000000000000058
S214080F8C0000000000000000000000000000000048
S2080812BCB00400204D
S804080000F3
