:0200000280007C
:10000000E8080020990408009504080095040800F9
:1000100095040800950408009504080000000000FD
:10002000000000000000000000000000950408002F
:10003000950408000000000095040800150C080055
:10004000950408009504080095040800950408002C
:10005000950408009504080095040800950408001C
:10006000B10C080095040800000000009504080089
:10007000950408009504080095040800000000009D
:10008000000000009504080095040800950408008D
:1000900095040800950408009504080095040800DC
:1000A000950408000000000095040800950408006D
:1000B00095040800950408009504080095040800BC
:1000C00095040800950408009504080095040800AC
:1000D000950408009504080095040800950408009C
:1000E000950408009504080095040800E103080041
:1000F0009504080010B5054C237833B9044B13B1AF
:100100000448AFF300800123237010BD3C0400209D
:1001100000000000540F08000C4B43B10C4810B510
:100120000C49AFF300800C48036823B910BD0A489E
:10013000036833B97047094B002BF7D0BDE8104076
:100140001847064B002BF5D0184700BF00000000F1
:10015000540F080040040020540F08000000000065
:10016000084B80225A6001221A61074A0749C2F8E7
:100170000C11D2F8001141F02001C2F80011022246
:100180001A60704700000C4000060E402500001069
:10019000044B1B6D9BB2B3F57A7F01D901207047E8
:1001A0000020704700000C4030B585B0002101A848
:1001B000234B9847BDF804301E2B0DD0BDF80430FA
:1001C000322B12D0BDF80430142B2FD0BDF80430E0
:1001D000282B30D005B030BD9DF80700194B98474B
:1001E0009DF80800184B9847E8E71848184CA047B6
:1001F000BDF804101748A0479DF806101648A04700
:10020000164D9DF807102846A0479DF8081028466F
:10021000A0479DF809102846A0479DF80A102846D7
:10022000A0479DF80B102846A047CBE79DF8070094
:100230000B4B9847CAE79DF808000A4B9847C9E757
:100240005D030800A9050800590B0800880E080086
:10025000810A0800900E0800980E0800A40E0800FD
:100260004D0708000D0B0800F0B45718082FD4BF35
:1002700000230123082998BF082A5CD80D46002BCB
:1002800059D12E4A136823F00103136013692C4BD4
:100290004FF440745C641C6F24F003041C67032457
:1002A0005C605C66A3F50063264CC3F80C41D3F890
:1002B000004144F40064C3F800415061002419E097
:1002C0001E4801F110035B01C2180026566000EBC6
:1002D00041124FF00056C2F808624FF08076C650C7
:1002E000D2F81C3243F40003C2F81C3201238B40C5
:1002F0001C430131B942E3DD00230DE00F4901EB5E
:1003000043124FF00050C2F8080203F110025201EC
:100310004FF0407088500133AB42EFDB074B5C601D
:100320004FF40061084A51601A6842F001021A60F5
:100330000020F0BC70470120FBE700BF00400B40ED
:10034000000E0E402B10001000E100E008B5022264
:100350000121014B984708BD690208004B0103F1D8
:10036000402303F53023D3F8103213F4000F33D0B9
:1003700070B44B0103F1402303F53023D3F814424A
:10038000D3F81822D3F80852C5F38A450580D3F86C
:100390001052C5F303458570002303E0C618F270C0
:1003A000120A0133AB4205DA032BF7DCC618F470EE
:1003B000240AF6E7094B01F1100252014FF0807058
:1003C000985003EB4111D1F81C3243F40003C1F8FB
:1003D0001C32002070BC70470120704700400B4069
:1003E00010B584B0154B1C6914F0060F19D014F029
:1003F000020F08D114F0040F0AD0022101A8104BFB
:100400009847002309E0012101A80D4B9847F8E720
:100410000C480D4B9847F4E701339DF806209342B2
:10042000FADB14F0010F02D00122044B9A604FF462
:100430000062064BC3F8842104B010BD00400B409D
:100440005D030800B00E0800810A080000E100E02A
:10045000014B18621B6B704700800C4008B50A4BBB
:100460000A4AC3F80C21D3F8002142F04002C3F835
:100470000021A3F5C3334FF480325A6002221A617F
:100480000020034B984708BD00060E4026000010D0
:1004900051040800FEE7000008B5114B114A9A42CA
:1004A00009D00F4B0F4A03E011681960043304327E
:1004B0000D498B42F8D30D4B02E000221A60043341
:1004C0000B4A9342F9D30B4B23F0604323F07F0395
:1004D000094A9360094B9847094B9847FEE700BFCC
:1004E00000000020540F08003C0400203C040020C1
:1004F000E40400200000080000ED00E0190D0800F1
:10050000890608004FF48063204A136002F50072E8
:1005100013601F4B1B6A13F0807F07D11D4A1C4BD1
:100520001A621B4B9B6E13F0010FFAD01A4A184B3C
:100530001A62174B9B6E13F4803FFAD0144A136B68
:1005400023F0030343F001031363114B9B6E13F07D
:10055000080FFAD0114A0E4B9A620D4B9B6E13F0A6
:10056000020FFAD011220A4B1A63094B9B6E13F04B
:10057000080FFAD01222064B1A63054B9B6E13F03C
:10058000080FFAD0064A074B1A607047000A0E405F
:1005900000060E400908370009083701013F0D2009
:1005A00000BD01050000002038B50446194B9847EE
:1005B00010B9194B1B684BB1022C1AD0174B1A6893
:1005C000154B5B689A421AD0022038BD134D2B6838
:1005D00001332B601420124B98470F4B01241C60F1
:1005E00029681A680F48104B9847104B98472046C7
:1005F00038BD0022084B1A600D4B9847DEE70D48C6
:10060000094B98470024054B1C60084B984720462F
:1006100038BD00BF910108000400002058040020EC
:10062000A10B0800E00E0800810A08009D070800E1
:10063000B9070800F80E0800114A1368C31A6420AD
:1006400000FB03F00F4B83FB0013C017C0EB23101C
:100650001368C3F16502002807DD642202FB00F085
:10066000C3F1C90390FBF3F07047002800DB70472B
:10067000642303FB00F09A1A90FBF2F0F7E700BF47
:100680000C000020CBF08D2800B583B065238DF8D9
:1006900007300F4B98474FF400420E4B5A600E4BF9
:1006A00098470E480E4B98470E4B98470E4B98476D
:1006B0000E4B98470E4B98470E4B98470E4B98475A
:1006C0000E4B98470E4B98470E4B9847FAE700BFE2
:1006D00005050800501A0E40250C08006501290088
:1006E0004D030800A50A0800610108005D04080028
:1006F00009070800390B0800C9070800B9070800F6
:10070000E1030800A90108000E4B196840F20760D8
:10071000014319601A6902431A61A3F500731A684C
:1007200042F4FF721A605A6942F4FF725A61A3F5EB
:100730004063054AC3F80C211A6942F400521A6159
:10074000704700BF00140E400D00001008B50F4B9D
:100750009847002815DD4FF480620D4B1A6300287E
:10076000B8BF404200EB8003C0EB0320094B83FB82
:100770000023C017C0EB6310400080B2064B9847BF
:1007800008BD4FF48062024B5A63E8E7390608005F
:1007900000140E401F85EB515104080008B50020DD
:1007A000034B98474FF40072024B5A6308BD00BFD9
:1007B0005104080000140E404FF40072014B1A63FC
:1007C000704700BF00140E40064B074A1A60074AE4
:1007D0005A6000229A60DA6000221A6140F6C41260
:1007E0005A6170475C0400200000C8410000A0402E
:1007F00008B5C8B2014B984708BD00BF8D0C080072
:100800002DE9F04107460E46151E02DD0A4600217D
:1008100004E04FF020080EE001310132107800288A
:10082000FAD1A94201DA6D1A00E0002513F0020F97
:1008300006D14FF0200813F001040AD0002410E084
:100840004FF03008F7E7414638460D4B98470134E2
:10085000013D002DF7DC04E03846094B9847013490
:10086000013631780029F7D105E041463846044B7E
:1008700098470134013D002DF7DC2046BDE8F081AA
:10088000F1070800F0B585B007460C9851B11E4637
:100890000C4613B10A2A12D0002604AD002305F835
:1008A000013D18E030238DF8043000238DF8053029
:1008B0000B9B0A9A01A938461B4CA04729E0002946
:1008C00001DB0026E9E74C420126E6E7303305F874
:1008D000013DB4FBF2F44CB1B4FBF2F302FB134361
:1008E000092BF3DDA0F13A010B44EFE756B10A9B67
:1008F0001BB10B9B13F0020F0DD12D2305F8013C0A
:10090000013D00260B9B0A9A29463846064CA04713
:10091000304405B0F0BD2D213846044B98470A9B62
:10092000013B0A93EEE700BF01080800F107080049
:10093000F0B589B006460C460592002581E0A21C60
:1009400001238BE0013443F002032278302AF9D0EE
:10095000002206E002EB82025000A1F130020244C4
:1009600001342178A1F13000C0B20928F2D97329ED
:1009700018D0642922D078292FD058293CD0752945
:1009800049D063295CD10599081D059009788DF837
:100990001C1000218DF81D1007A93046344FB847B0
:1009A00005444DE00599081D0590096821B13046C0
:1009B0002F4FB847054443E02E49F8E70599081D35
:1009C00005900968612002900193009201230A2298
:1009D0003046294FB847054432E00599081D059077
:1009E0000968612002900193009200231022304692
:1009F000214FB847054423E00599081D0590096873
:100A000041200290019300920023102230461A4F99
:100A1000B847054414E00599081D05900968612050
:100A200002900193009200230A223046124FB847E9
:100A3000054405E0144621783046104B98470135AF
:100A40000134237863B1252BF5D1621C63783BB167
:100A5000252BEFD02D2B3FF472AF0023144674E703
:100A600016B1336800221A70284609B0F0BD00BFE5
:100A700001080800040F080085080800F1070800B5
:100A80000FB400B583B004AA52F8041B01920020F1
:100A9000034B984703B05DF804EB04B0704700BF08
:100AA00031090800154AD2F8003143F01003C2F8AA
:100AB0000031134B1A6942F400221A615A6842F459
:100AC00000225A601A6F42F400221A670D4AD2F8C7
:100AD000E43023F00103C2F8E43040F20A220A4B6A
:100AE0001A604FF4CD620C331A607B22083B1A6007
:100AF0002022A3F528731A60704700BF00060E403D
:100B000000120E4000400940A042094082B0C0EBF4
:100B10000010C300064A82FB03121A44DB17C3EB22
:100B2000A2132E330193019A024B1A6002B0704750
:100B300009040281A4420940064B1A6842F480323B
:100B40001A601A6942F480321A611A6B42F48032D8
:100B50001A637047000E0E40042805D0042818D0F0
:100B600000220C4B1A6070470A4B1B68002BF5D112
:100B700010B50122074B1A60074C636B43F48033B6
:100B800063636420054B9847236B43F480332363EE
:100B900010BD704774040020000E0E40D90B0800F1
:100BA0000A4B18600A4B53225A60F021094A82F816
:100BB000231000229A6007221A60044B1B68002B46
:100BC000FBD10022024B1A60704700BF780400205E
:100BD00010E000E000ED00E00A4B18600A4B0B4A01
:100BE0005A60F0210A4A82F8231000229A600722F4
:100BF0001A60044B1B68002BFBD10022024B1A60C9
:100C0000704700BF7804002010E000E01F4801009A
:100C100000ED00E0024A1368013B1360704700BF1B
:100C200078040020164B00221A705A70154B4FF4AE
:100C30004071596459601A6F186F024022F4407273
:100C40001A6759664FF48072A3F500631A6103F5C1
:100C50000073AC21196040F2232119624FF4006146
:100C6000596040F20221C3F820114FF0FF31D960E2
:100C7000E121996004490A6050221A60704700BF60
:100C80007C040020000E0E4000E100E0074B5B6991
:100C900013F0020F08D0054BD861044B5B6913F4C5
:100CA000007FFAD0002070470120704700080E40F6
:100CB00008B5154B5B6913F0E00F03D04FF4A87132
:100CC000114A116013F0010F12D010484278531CE2
:100CD000594203F03F0301F03F0158BF4B420178F6
:100CE0008B4206D00849886908490A4490704B70C5
:100CF00008BD0748074B9847044B5978024A926948
:100D00000B449A7008BD00BF00080E407C04002010
:100D10000C0F0800810A080070B50F4E0F4D761BAE
:100D2000B61018BF002405D0013455F8043B98478D
:100D3000A642F9D10A4E0B4D00F0FAF8761BB61018
:100D400018BF002406D0013455F8043B9847A6424A
:100D5000F9D170BD70BD00BF3C0F08003C0F08000A
:100D6000440F08003C0F0800024B13B1024800F08A
:100D700005B8704700000000890D080000230146F7
:100D80001A46184600F01EB838B50A4C0A4D641BC6
:100D9000A4100AD004F18043013B05EB8305013C1C
:100DA00055F804399847002CF9D1BDE8384000F0D7
:100DB000C9B800BF540F0800500F0800704700BFAB
:100DC000704700BF2DE9F8432C4D06462868984629
:100DD0000F469146FFF7F2FF294B1C68D4F84831C3
:100DE000002B3ED05A681F2A1CDC02F1010E76B19E
:100DF000012103EB8204C4F88890D3F88801914064
:100E00000843022EC3F88801C4F8088123D00232B7
:100E1000C3F804E0286843F82270FFF7D1FF0020F0
:100E2000BDE8F883174B0BB34FF4C870AFF30080E5
:100E30000346D8B10020D4F848114FF0010E586095
:100E400019600246C4F84831C3F88801C3F88C0120
:100E5000002EDCD0CCE7D3F88C010143C3F88C1111
:100E6000D5E704F5A673C4F84831BBE72868FFF757
:100E7000A7FF4FF0FF30BDE8F88300BF3804002023
:100E80002C0F0800000000006D656C64696E67003F
:100E900069642025640A00006C656E67746820250B
:100EA000640A0000646174612025630A0000000088
:100EB00043414E30206D65737361676520617272C6
:100EC0006976656420696E206E6F6E2D757365643A
:100ED000206D61696C626F780A0D000068656900B9
:100EE000636F756E746572202564202020706175B3
:100EF00073652025640A000047616D65206F766583
:100F000072000000286E756C6C2900004552523A40
:100F100020554152542052582062756666657220F1
:100F200069732066756C6C0A0D00000010000020CB
:100F3000F8B500BFF8BC08BC9E467047690D0800B4
:100F400019010800F8B500BFF8BC08BC9E46704700
:040F5000F5000800A0
:100F540000093D0001000000030000005D000000E6
:100F640000000000FC02002064030020CC030020E9
:100F7400000000000000000000000000000000006D
:100F8400000000000000000000000000000000005D
:100F9400000000000000000000000000000000004D
:100FA400000000000000000000000000000000003D
:100FB400000000000000000000000000000000002D
:100FC400000000000000000000000000000000001D
:100FD400000000000000000000000000000000000D
:100FE40000000000000000000000000000000000FD
:100FF40000000000000000000000000000000000ED
:1010040000000000000000000100000000000000DB
:101014000E33CDAB34126DE6ECDE05000B000000A0
:1010240000000000000000000000000000000000BC
:1010340000000000000000000000000000000000AC
:10104400000000000000000000000000000000009C
:10105400000000000000000000000000000000008C
:0C1384000000000000000000C004002079
:040000038000000079
:00000001FF
